:020000040800F2
:2000000000020020C1000008A15D0008B1C1000891540008915400089154000891540008C1
:20002000915400089154000891540008915400089154000891540008915400089154000858
:2000400091540008E17B0008217C00089154000891540008817A0008C17A0008017B000806
:2000600091540008D176000851740008C1740008511401089154000891540008E177000892
:20008000C1850008915400089154000891540008915400089154000891540008C17E00083D
:2000A000915400089154000891540008F186000891540008915400089154000801880008A2
:2000C00072B6224880F30988022080F31488BFF36F8F05F095F908F0E3FE1D481D491E4A1A
:2000E000914202DA08600431FAE71C49174A914202DA08600431FAE719491A4A1A4B9A42D9
:2001000004DA0868106004310432F8E700201749174A914202DA08600431FAE705F088F953
:2001200005F076F9134C144DAC4203DA216888470434F9E70BF074FF104C114DAC4203DA6D
:20014000216888470434F9E70E4908470004002055555555000000200002002000020020AD
:200160007843010800040020141B0020181B0020B83F0020C0000008C0000008C000000886
:20018000C0000008215400080000000000000000F0B544464D4656465F46F0B46B46CB6097
:2001A000C3689D46F0BCA046A946B246BB46F0BD62B6281CA047002005F08AFC05F068FBD4
:2001C000014A024B1360FEE704ED00E00000008030B5204A4B0087B05B0893421CDD1E4A74
:2001E000934205DD02000B0004F052F907B030BD02AA00F05DF903231840049A059B012881
:2002000018D002280DD000281ED0029803990124009401F01DFAE9E70022002300F0A0FC41
:20022000E4E70298039900F09BFC80231B069C466144DBE700900298039901F009FA8023CC
:200240001B069C466144D1E70298039900F088FCCCE7C046FB21E93FFFFFEF7F000000002B
:2002600030B5214A4B0087B05B0893421EDD1F4A934205DD02000B0004F00AF907B030BDB1
:2002800002AA00F015F903231840049A059B01281ED0022811D000281FD00298039900F099
:2002A0005FFC80231B069C466144E7E7002300220093002301F0CCF9E0E7012402980399F7
:2002C000009401F0C5F980231B069C466144D5E70298039900F044FCD0E70124029803995C
:2002E000009401F0B5F9C9E7FB21E93FFFFFEF7F10B500F0E5FA10BD00000000000000000A
:20030000F0B500268DB0041C00F072FB344B051C9E57731C0BD0211C201C02F011FE071EBA
:2003200005D10021201C01F0DFFF002802D1281C0DB0F0BD2B4B201C03930A9704F0B8FC81
:200340000690079104900591002E1AD1E022264B12060021201C0892099301F0B5FF002841
:2003600036D00223029302A801F0C2FA002816D00A9B0193002B17D10898099904F0F0FCEA
:20038000D6E70022194B0021201C0892099301F09BFF00280ED002230293022EE3D104F064
:2003A0009FFD22230360E3E704F09AFD0A9B01930360E1E701230293022E0BD104F090FDFA
:2003C000212303600A4801F09BFA08900991CFE70123029302A801F08BFA0028F2D1EDE71E
:2003E0000004002064430108FFFFEFC70000F0FF94240108000000000000000000000000C5
:20040000F0B500268DB0041C00F04AFB234B051C9E57731C0BD0211C201C02F091FD071E73
:2004200005D10021201C01F055FF002802D1281C0DB0F0BD01230293194B201C03930A970B
:2004400004F036FC002206900791049005910023002E14D01000190003F06AF90890099116
:20046000022E0ED104F03CFD212303600A9B0193002B0CD10898099904F072FCD8E708925B
:20048000099302A801F034FA0028EFD1EAE704F027FD0A9B01930360ECE7C046000400208D
:2004A0006C430108000000000000000000000000F0B54E4657464546E0B4DC4B4E0090B0DA
:2004C0001700894676089E4200DC81E0D84B9E4220DCD84A002900DC89E1D74B03F0D8FF1F
:2004E000D54B04000D009E4200D18AE0D34AD44B03F0CEFF02000B0020003A607B602900E9
:2005000003F0C6FFCD4ACE4B03F0C2FFB860F960012066E0CB4B9E4200DC8DE0CA4B9E4233
:2005200065DCCA4932158A46924453461B05F51A2900040004F004FB04F03AFB02000B005C
:20054000200029000A920B9303F0A2FF0022C04B03F01EFD0290039104F0F2FA04F028FB2C
:2005600004000D0002000B00029803990C940D9503F08EFF0022B64B03F00AFD0022002303
:200580000E900F9101F064FE002800D14CE1002300222000290001F05BFE0222431E98416E
:2005A000131AAC4A3900019202220AA80092524600F0F6FB4B46002B13DA8022120694462E
:2005C0007B68404263447B60FB686344FB6008E002000B003A607B60002200230020BA60E6
:2005E000FB6010B01CBC90469946A246F0BD02000B0003F04DFFB860F96038607960002070
:20060000EFE7D3228E4B520503F042FF924A934B04000D0003F03CFF02000B0020003A60EB
:200620007B60290003F034FF8B4A8C4B03F030FFB860F9600120D4E701F0BAF8884A894B2C
:2006400004000D0003F0A4FC0022874B02F040FD04F076FA804604F0ABFA764A764B0690F9
:20066000079103F095FC02000B002000290003F00FFF734B02900391069807996F4A03F039
:2006800087FC434604000D00049405951F2B30DC013B764A9B009B589E422AD002000B0044
:2006A0000298039903F0F4FE02000B0005000C003A607B60029803992A00230003F0E8FE30
:2006C000049A059B03F0E4FE06000B003200BA60FB604B464046002B00DB82E780231B0605
:2006E0009C46644461443D607C60BE60F960404277E7049A059B0298039903F0C9FE0B00C2
:2007000002003A607B604B0036155B0D05000C00F31A102BCEDD06980799D322484B520543
:2007200003F036FC04000D0002000B000298039903F0AEFE02000B00029803990892099328
:2007400003F0A6FE22002B0003F0A2FE04000D0006980799404A414B03F01AFC22002B0067
:2007600003F096FE02000B00049005910898099903F08EFE02000B003A607B604B005B0DC5
:20078000F61A0500089A099B0C0002920393312E90DD06980799B822304B920503F0F8FBEC
:2007A00004000D0002000B000298039903F070FE0A000100130002910392020008980999FA
:2007C00003F066FE22002B0003F062FE04000D0006980799264A274B03F0DAFB22002B00DC
:2007E00003F056FE02000B000492059358E7124B02F06EFC104B04000D009E423CD00F4ACE
:020000040800F2
:200800000F4B02F065FC02000B0020003A607B60290003F03DFE094A094B02F059FCB8602C
:20082000F96001204042DCE60323BAE6FB21E93F7BD9024000004054FB21F93F3163621A62
:2008400061B4D03DFB213941FFFFEF7FEAFBFFFF00007041AC1501087370032E8A19A33B81
:2008600083C8C96D305FE43F0000E03F2C150108C14920259A837B39D3220D4B520502F026
:2008800027FC0C4A0C4B04000D0002F021FC02000B0020003A607B60290003F0F9FD054A65
:2008A000054B02F015FCB860F9600120404298E661B4D03D7370032E8A19A33B000000009C
:2008C000F0B54B0047460C1CFF2180B45B08C9058B4215DC4200804652088A4210DCFE25F3
:2008E000AD05AC423ED00227A5173D40C70F3D43002A0CD1022D31D0032D05D1304803E0FA
:20090000011C201C01F02CFD04BC9046F0BD002B1DD08B4229D08A4219D0D31ADB153C2B4A
:200920001ADC002C3ADB211C01F092FE01F078F901F056F8012D2CD0022D22D0002DE3D0F6
:20094000204901F00DFD204902F072F9DCE74346002B05DB1D48D7E71C48EBE71A48D3E7A1
:200960001B48D1E701F03CF8CEE79A421AD0022DF4D0032DC2D00020012DC5D1802000067D
:20098000C2E7104901F0ECFC011C0F4802F050F9BAE780231B069C466044B5E73C33C2DA3B
:2009A0000020C7E7022D05D0032D07D0012D03D00848A9E70848A7E70848A5E70848A3E7E9
:2009C000DB0F49C02EBDBB33DB0F4940DB0FC93FDB0FC9BFDB0F493FE4CB1640DB0F49BF0B
:2009E000E4CB16C000000000000000000000000070B50300420030D000283CDB234A90428A
:200A000040DC2349002288422DDDD8157F388018C60F5B0280195C0A02F0D2FA051C7F206D
:200A2000801BC005204301F003F91A49061C281C01F0E6FF1849041C301C01F0E1FF011CAC
:200A4000201C01F08DFC1549041C281C01F0D8FF011C201C01F084FC70BDCC20002100064C
:200A600001F0F6FDF8E79821C90501F0C9FF192203005242C9E7011C02F0DAF8002101F0FE
:200A8000E7FDE9E7011C01F06BFCE5E7FFFF7F7FFFFF7F00DB275435D95BDE3E80209A3E95
:200AA0002B49420070B50300041C52088A423AD8002A37D000283FDB2649C0158A420BD89A
:200AC000013121423FD100220C0000E00A005B00511C2342FAD0801A80225B025B0A12044E
:200AE0007F381343C20725D4802219210025002640105B005204B4189C4202DCA6181B1B83
:200B0000AD1801395B0052080029F4D1002B02D001232B40ED18FC239B059C466D106544DB
:200B2000C005401970BD011C01F06AFF211C01F017FCF7E75B00D7E7011C02F079F8011C1E
:200B400001F086FDEEE701225242801AC4E7C046FFFF7F7FFFFF7F000000000000000000D1
:200B6000F0B54F464646C0B487B000920193754B4F00814688467F089F4263DC03F0E0FFC1
:200B8000002800D1DAE04A4643464846414603F0FFF904000D006C4A6C4B03F0F9F96C4A70
:200BA0006C4B02F095FA22002B0003F0F1F96A4A6A4B03F06DFC22002B0003F0E9F9684A3A
:200BC000684B02F085FA22002B0003F0E1F9664A664B03F05DFC22002B0003F0D9F9644A6A
:200BE000644B02F075FA22002B0003F0D1F9029003910022604B2000290003F0C9F9029A4E
:200C0000039B06000F002000290003F0C1F9009A019B04000D004846414603F0B9F9020028
:200C20000B002000290003F033FC02000B003000390003F02DFC02000B0000204F4903F0F4
:200C400027FC70E002000B0003F0A2F904000D003D4A3E4B03F09CF93D4A3E4B02F038FAA9
:200C600022002B0003F094F93B4A3C4B03F010FC22002B0003F08CF9394A3A4B02F028FABB
:200C800022002B0003F084F9374A384B03F000FC22002B0003F07CF9354A364B02F018FAEB
:200CA0002B00220003F074F9354B029003919F429FDD344B00229F423ADC334900207B18BD
:200CC0002E4916001F0003F0E3FB049005910022294B2000290003F05BF932003B0003F0E7
:200CE000D7FB029A039B06000F002000290003F04FF9009A019B04000D004846414603F000
:200D000047F902000B002000290003F0C1FB02000B003000390003F0BBFB02000B000498C6
:200D2000059903F0B5FB07B00CBC90469946F0BD164B002604920593154FC8E700200F4951
:200D4000F1E7C046FFFF3F3ED43888BEE9FAA8BDC4B1B4BD9EEE213EAD529C804F7E923E17
:200D60009015CB19A001FA3E7751C1166CC1563F4C5555555555A53F0000E03F0000F03F89
:200D80003233D33F0000E93F0000E0FF0000E73F0000D23F0000000000000000000000009E
:200DA000F0B556464D4644465F46F0B4904CA544079119001400A69A099393008D4A02902A
:200DC000D2580B00E01E013B18211D0016000692009301F035F9C3430200DB171A40130087
:200DE000110001330C929A009B1ADB001B1904934C1B761918D4A79BA5009C46361924AF4E
:200E00006544013607E0286803F0D2FE013403C70435B44208D0002CF5DA00200021013441
:200E200003C70435B442F6D1069B002B01DA00F005FC74AB08939A46009B099A9946069B02
:200E400094469B46D300E3449C46029A039362449046009B002B00DAFBE14B46DC0024AB95
:200E60009C4600260027029D64442268636803CD03F08EF802000B003000390002F028F9D5
:200E8000083C06000F004545EFD15346C0C39A4601239C46E144D945DBD1069A564913006C
:200EA0008C4663449B0010A8844619000298614484460B910399043361448B4610A98C460A
:200EC00063440D930392039A0898D30019000A938C46030063441E685F68002A34DD10ABB1
:200EE00099461300454A804694466344DB00984472AB9A460022424B3000390003F048F82B
:200F000003F01EFE03F054FE00223E4B04000D0003F03EF802000B003000390003F0B8FA7D
:200F200003F00EFE4B4601C39946434620001A685B68290002F0CCF808235B429C46E044E3
:200F400006000F00D045D5D1049B30001A003900984600F0DDFCFF2300229B0504000D0003
:200F600003F016F800F02CFC0022274B03F010F802000B002000290003F08AFA04000D00EB
:200F800003F0DEFD814603F013FE02000B002000290003F07DFA444606000F00002C00DC51
:200FA00038E1039B18205A1E920010AB9B58001B19000141894481405B1A10A98B50172244
:200FC000121B13410593059B002B4BDD01239C46039BE144002B00DCFBE280250E960F9769
:200FE00010AB0021002409486D04039F19E0C0468CFDFFFFB8160108FEFFFF3FFFFFFF1FD9
:020000040800F2
:201000000000703E0000704100002040FFFFFF00002A02D0AA1A1A600134013104338F426B
:2010200009DD1A68002CF3D0821A01311A60012404338F42F5DC0E9E0F9F049B002B0EDD04
:20104000012B00D1F1E0022B09D1039B10A95A1E920010AB9B580E939B029B0A8B50059B4E
:20106000022B7ED0002200233000390001F0F0F8002800D196E0039B069A591E8A4210DC92
:20108000B44A0D98944610AA6344944600229B0063441C68043B22438342FAD1002A00D082
:2010A000F5E0069B10AA013B9B00D358002B00D08DE201220B9B043B596801320029FAD0A5
:2010C00003990B008C46013362440592934242DC0C9A9446A79A63449246099A9B009446DB
:2010E00024AA90469A44039B089A6344DB0098440A9B94469946059BE144DB006344039395
:201100005346186803F054FD434618605960009B002B23DB444600260027029D2268636829
:2011200003CD02F035FF02000B003000390001F0CFFF083C06000F005D45EFD14B469E603A
:20114000DF6004239C460433E2449C46039BE144E0449945D4D1059B0393B4E60026002781
:20116000ECE732003B0000207B4903F091F906000F00002C00D175E7049A0020764900F0F3
:20118000C7FB02000B003000390003F081F906000F00002200233000390001F059F800287D
:2011A00000D068E74B460993039B30009946049B39005A4200F0ACFB0022684B04000D0045
:2011C00001F06AF8002800D10FE2654B00222000290002F0DDFE03F0B3FC4A46060097001B
:2011E00003F0E6FC00225D4B02F0D2FE02000B002000290003F04CF903F0A2FC10AAD05194
:201200000122049B4A44183390460493930010AAD65057E0049B002B12D1039B10AA013BDB
:201220009B00D558EB150593CDE6039B10A95A1E920010AB9B580E935B025B0A8B500EE759
:201240000022484B01F028F800280ED10023059308E7534600260027C0C39A4601239C46C8
:20126000E144D94500D0F4E517E601239C4601330593039BE144002B00DDAEE632003B00E7
:201280000020354903F004F906000F00EAE64B4688460993049B10AA183B190004934346FB
:2012A0009B00D358002B0DD194464246294B43449B006344043B5868013A18390028F9D044
:2012C00090460491049A0020234900F021FB434604000D00002B00DA7DE19F0010AB9C4634
:2012E0004346DB0067449C46089A0293624416000092386803F05CFC22002B0002F048FE08
:20130000174B3060716000222000290002F040FE083E72AB04000D00043FB342E9D10023E6
:201320009B464CAB9946069B9A4643460393534600260027002B33DB1022944680200A4B36
:20134000009D63449846C005084900260027002417E0C046FFFFFF3F0000F03F00007041CB
:201360000000703E0000E03FB8160108FB21F93F08239C460835E044A34511DB434618682A
:2013800059682A686B6802F003FE02000B003000390001F09DFE013406000F00A245E7DA40
:2013A0005B46DB004B441E605F6001239C46009B72AA083BE34400939342B8D1039B984651
:2013C000A69B022B00DD73E0002B29DC1CD1029B00254B441E000024474632687368280095
:2013E000210001F075FE083E05000C00013FF4D2059B002B03D080231B069C4664442A00F5
:20140000230007990A604B600720099B18409D239B009D443CBC90469946A246AB46F0BD62
:20142000029B00204B441E0000214AAF32687368083E01F04DFEBE42F8D1059B002B23D0AA
:201440008023079A1B06CB18106053600B0002004C984D9903F01CF84346002B0ADD012483
:201460004EAD0CCD013401F033FEA045F9DA059B002B03D080231B069C4661440B00020093
:2014800007998A60CB60BFE702000B00079C226063600B0002004C984D9902F0F9FF4346B2
:2014A000002BDCDC0B00020007998A60CB60ABE7A69B032BA8D14346002B00DCA8E0029B58
:2014C0004B441E685F68614B43449B46DB004B449A4653465C681B681800210032003B004C
:2014E0000090019101F0F4FD04000D0002000B000098019902F0CCFF3B00320001F0E8FD98
:2015000053469860D9601C605D6008235B429C464AABE24426002F005345DAD14346012BB6
:2015200076DD029BCA464B441E685F685B46DB009846C244534630005C681B683900009393
:2015400001941A00230001F0C3FD04000D0002000B000098019902F09BFF3B00320001F0CE
:20156000B7FD53469860D9601C605D6008235B429C46E24426002F00D145DBD1454600271B
:20158000002408354D444EAE2A686B683800210001F09EFD083D07000C00AE42F4D1059B66
:2015A000002B3AD08021079A4C9B090613604B468C465B686444634453604B469B68176117
:2015C00093604B46DB6854616344D3601CE7012276E5002431E5A69B022B13DC002B0EDC88
:2015E00000D011E70025002402E74B46200029009E0003F0A5FA10AB9851C84662E60020CD
:2016000000211AE74CAB9946A69B032B00D0FBE6059B00270024002BC4D14C9A4D9B079999
:201620000A604B604B469A68DB68009201938A60CB603A0023000A614B61E5E674AB08938B
:20164000099BDB000393FFF728FCC046FFFFFF1FF0B54F464646C0B487B000920193464A12
:201660004B00814688465B08934205DC03F068FA4146031E484666D04A4643464846414682
:2016800002F086FC04000D0002000B004846414602F07EFC394A3A4B06000F0020002900D1
:2016A00002F076FC374A384B02F0F2FE22002B0002F06EFC354A364B01F00AFD22002B00F2
:2016C00002F066FC334A344B02F0E2FE22002B0002F05EFC314B324A01F0FAFC0E9B029035
:2016E0000391002B34D00098019900222D4B02F04FFC029A039B049005913000390002F05F
:2017000047FC02000B000498059902F0C1FE22002B0002F03DFC009A019B02F0B9FE224ACB
:2017200004000D00214B3000390002F031FC02000B002000290001F0CBFC02000B004846FB
:20174000414602F0A5FE07B00CBC90469946F0BD02000B002000290002F01AFC124A134B74
:2017600002F096FE32003B0002F012FC4A46434601F0AEFCE7E7C046FFFF3F3E7CD5CF5AF9
:201780003AD9E53DEB9C2B8AE6E55A3E7DFEB157E31DC73ED561C119A0012A3F1111813FF1
:2017A000A6F810110000E03F495555555555C53F49004B08190070470000000000000000E9
:2017C000454AF8B5564692464B005B0D9A444D465F4644465246F0B4894605000C000E00DC
:2017E0000700132A22DC002A47DB52463B4B134198460B0042461340034311D0384A394BF8
:020000040800F2
:2018000001F066FC0022002300F03CFD002805D0002C41DB4E46434600279E433800310034
:201820003CBC90469946A246AB46F8BD5246332A08DD8023DB009A45F2D102000B0001F075
:2018400047FCEDE7284A9446012263445242DA4093460242E4D0224A224B01F039FC0022BB
:20186000002300F00FFD0028D8D0002C1ADB5B464E469F4338003100D2E7194A194B01F067
:2018800027FC0022002300F0FDFC0028C6D0002C16DB00270026C1E7802352465B0313413A
:2018A0009944B7E75346142B12D03423524601279B1A9F407F19AF429B415B429944D6E7AC
:2018C0006400640825430027002DA7D0074EA5E7133B9C46E144CAE701FCFFFFFFFF0F0016
:2018E0009C7500883CE4377EEDFBFFFF0000F0BF002070470000000000000000000000000E
:20190000002001497047C0460000F87F000000004B0070B55B0D14000A00002B1AD14B00D2
:201920005B08034315D00022224B02F031FB224B0A009C4222DB4B005B0D363B1F4DE3188F
:20194000AB4220DC002B0DDD1D4C1B0522401A43110070BD1B4DAB42F0D102000B0001F0EF
:20196000B7FBF6E71D00353518DA174B02009C420ADC0B001548164900F0CAFA134A144B00
:2019800002F006FBE5E702000B001248124900F0BFFA104A104B02F0FBFADAE7084C363303
:2019A00022401B051343190000220C4B02F0F0FACFE7C04600005043B03CFFFFFE070000A3
:2019C000FFFF0F80FF07000050C3000059F3F8C21F6EA5019C7500883CE4377E0000903CEE
:2019E000F0B54746754B440080B4051C070064089C420BDDFF23DB059C4200DD72E00028EC
:201A000000DC9DE06E4804BC9046F0BD6D4B9C4279DC6D4B9C4269DD01267642291C281C45
:201A200000F0EEFF011C804600F0EAFF6749041C00F0E6FF664900F093FC211C00F0E0FF2E
:201A4000644900F08DFC211C00F0DAFF624900F087FC211C00F0D4FF604900F081FC211CE9
:201A600000F0CEFF5E4900F07BFC414600F0C8FF5C498046201C00F0C3FF5B4901F0D8F89F
:201A8000211C00F0BDFF594901F0D2F8211C00F0B7FF574901F0CCF8211C00F0B1FF55494D
:201AA00001F0C6F8211C00F0ABFF011C731C49D0514C404600F054FCB600291C00F0A0FFEE
:201AC000A319196901F0B4F8291C01F0B1F8011C305901F0ADF8002F95DA80231B069C46CC
:201AE000604490E7011C00F03BFC8CE7434900F037FCFE21890500F001FC0300281C002B59
:201B000000D080E788E700F08BF83D4B051C9C4223DC3C4B9C423FDC011C00F021FCFE215D
:201B2000890501F085F88021041CC905281C00F017FC011C201C00F08BFD0026051C6DE767
:201B4000314860E7404600F00BFC291C00F058FF011C281C01F06CF855E72C4B9C4214DC85
:201B6000FF21890501F064F8FF21041C8905281C00F046FFFE21890500F0F2FB011C201C40
:201B800000F066FD0226051C48E7011C204800F05FFD0326051C41E7FE21890501F048F859
:201BA000FE21041C8905281C00F0DAFB011C201C00F04EFD0126051C30E7C046FFFF7F5089
:201BC000DB0FC93FFFFFDF3EFFFFFF30D769853C59DA4B3D356B883D6E2EBA3D2549123E59
:201BE000ABAAAA3E21A215BD6BF16E3D95879D3D388EE33DCDCC4C3E08170108CAF249716F
:201C0000FFFF973FFFFF2F3FDB0FC9BFFFFF1B40000080BF0000000000000000000000007A
:201C2000400040087047C0460000000000000000F8B55F4656464D4644460300F0B442006B
:201C400000D193E0002800DAB4E09F4A904200DDB7E09E490022884206DC9821C90500F04F
:201C6000CFFE192203005242DD155B025C0A984BFE21E01880231B040340FE2080055840D6
:201C80007F3DAA182043DD158905AD1800F0D0FF23000F335B02061C5B0A0F2B00DC70E0B0
:201CA0008021C90500F05CFB011C301C00F0D0FC8146280001F084F949468246484600F017
:201CC0009FFE844B011C9846834600F099FE8249071C00F095FE814900F042FB391C00F0A0
:201CE0008FFE7F4900F03CFB391C00F089FE7D4900F036FB594600F083FE7B498346381CC4
:201D000000F07EFE794900F02BFB391C00F078FE774900F025FB391C00F072FE011C584684
:201D200000F01EFB734BA0441C1B4346071C1C43002C00DC9CE0FC21301C890500F060FEED
:201D4000311C00F05DFE041C002D58D1011C381C00F006FB494600F053FE011C201C00F0FA
:201D600067FF011C301C00F063FF04E0CC200021000600F06DFC3CBC90469946A246AB466C
:201D8000F8BD002100F0A0FA00281ED00020002DF1D0280001F014F95749041C00F030FEBB
:201DA0005649051C201C00F02BFE011C281C00F0D7FAE0E7011C00F03BFF002100F048FC89
:201DC000D9E7011C00F0CCFAD5E74D49301C00F017FE011CFC20800500F02AFF311C041C89
:201DE000301C00F00DFE011C201C00F009FE041C002D25D1011C301C00F01AFFBBE73E496E
:201E0000504600F0FDFD211C051C381C00F0A8FA494600F0F5FD3949071C504600F0F0FD75
:201E2000011C381C00F09CFA011C201C00F000FF311C00F0FDFE011C281C00F0F9FE9AE762
:201E4000280001F0BDF82C49051C00F0D9FD2B49071C281C00F0D4FD011C201C00F0E8FE8D
:201E6000311C00F0E5FE011C381C00F0E1FE82E7002D1CD02049504600F0C2FD391C041C5D
:201E8000301C00F0D5FE494600F0BAFD1B49051C504600F0B5FD011C281C00F0C9FE311CDB
:201EA00000F0C6FE011C201C00F0C2FE63E7011C301C00F0BDFE494600F0A2FD011C301C80
:201EC00000F0B6FE57E7C046FFFF7F7FFFFF7F0020FB4A00305CCFFF9788173E25333A3E9E
:201EE0002549923EABAA2A3F4FD01C3E298E633ECDCCCC3E88C235008071313FD1F717377C
:201F0000ABAAAA3E00000000000000000000000030B54A00DB0FDB0752081A43110030BDD4
:201F2000002243088B4274D303098B425FD3030A8B4244D3030B8B4228D3030C8B420DD392
:201F4000FF22090212BA030C8B4202D31212090265D0030B8B4219D300E0090AC30B8B421F
:201F600001D3CB03C01A5241830B8B4201D38B03C01A5241430B8B4201D34B03C01A52417E
:201F8000030B8B4201D30B03C01A5241C30A8B4201D3CB02C01A5241830A8B4201D38B02B4
:201FA000C01A5241430A8B4201D34B02C01A5241030A8B4201D30B02C01A5241CDD2C30979
:201FC0008B4201D3CB01C01A524183098B4201D38B01C01A524143098B4201D34B01C01AEE
:201FE000524103098B4201D30B01C01A5241C3088B4201D3CB00C01A524183088B4201D358
:020000040800F2
:202000008B00C01A524143088B4201D34B00C01A5241411A00D20146524110467047FFE72A
:2020200001B5002000F0FCF802BDC0460029F7D076E770470000000000000000000000001D
:2020400003460B437FD4002243088B4274D303098B425FD3030A8B4244D3030B8B4228D343
:20206000030C8B420DD3FF22090212BA030C8B4202D31212090265D0030B8B4219D300E0F0
:20208000090AC30B8B4201D3CB03C01A5241830B8B4201D38B03C01A5241430B8B4201D36A
:2020A0004B03C01A5241030B8B4201D30B03C01A5241C30A8B4201D3CB02C01A5241830A06
:2020C0008B4201D38B02C01A5241430A8B4201D34B02C01A5241030A8B4201D30B02C01A28
:2020E0005241CDD2C3098B4201D3CB01C01A524183098B4201D38B01C01A524143098B42C9
:2021000001D34B01C01A524103098B4201D30B01C01A5241C3088B4201D3CB00C01A524168
:2021200083088B4201D38B00C01A524143088B4201D34B00C01A5241411A00D201465241D0
:20214000104670475DE0CA0F00D04942031000D34042534000229C4603098B422DD3030A1C
:202160008B4212D3FC22890112BA030A8B420CD3890192118B4208D3890192118B4204D3DA
:2021800089013AD0921100E08909C3098B4201D3CB01C01A524183098B4201D38B01C01A5D
:2021A000524143098B4201D34B01C01A524103098B4201D30B01C01A5241C3088B4201D354
:2021C000CB00C01A524183088B4201D38B00C01A5241D9D243088B4201D34B00C01A524154
:2021E000411A00D20146634652415B10104601D34042002B00D54942704763465B1000D3EF
:20220000404201B5002000F00BF802BD0029F8D016E770470000000000000000000000000F
:202220007047C0460000000000000000000000008446101C62468C46191C634600E0C046AD
:202240001FB501F035FE002801D40021C8421FBD10B501F085FD4042013010BD10B501F014
:2022600027FE002801DB002010BD012010BDC04610B501F01DFE002801DD002010BD01206F
:2022800010BDC04610B501F0ABFD002801DC002010BD012010BDC04610B501F0A1FD0028AB
:2022A00001DA002010BD012010BDC046000000008446081C6146FFE71FB500F059FB0028A7
:2022C00001D40021C8421FBD10B500F0E1FA4042013010BD10B500F04BFB002801DB0020F3
:2022E00010BD012010BDC04610B500F041FB002801DD002010BD012010BDC04610B500F090
:20230000EFFA002801DC002010BD012010BDC04610B500F0E5FA002801DA002010BD012049
:2023200010BDC0460000000000000000000000009E2110B5C905041CFFF7EAFF002803D17D
:20234000201C00F015FE10BD9E21201CC90500F06FFC00F00DFE80231B069C466044F2E72F
:20236000F8B54A02430244004E00C50F240E28009B09360EC90F92098D4259D0A01B002829
:2023800000DC8DE0002E1AD1002A00D079E05A0704D00F221A40042A00D004335A0138D52B
:2023A0000134FF2C00D189E028009B015B0AE4B25B02E4055B0A2343C0071843F8BDFF2CB1
:2023C000E5D08021C9040A431B2800DD89E016002021C640081A8240511E8A4132439B1A5F
:2023E0005A0114D59B019E09300002F049FD05388640844265DC041B330020200134E340FA
:20240000041BA640721E964100243343BFE75A07BFD1DF082800FF2C2FD1002F00D187E07E
:202420008022D20313003B435B025B0AFF24BFE7A11B002949DD002E29D0FF2CA7D080268F
:20244000F60432431B2900DD8DE017002026CF40711A8A40511E8A413A439B185A01D6D54E
:202460000134FF2C64D0012276491A405B080B4013438CE7031ECAD100207B025B0AE4B2C1
:2024800096E701380028AAD0FF2C9DD17FE7002A00D17CE701390029DFD0FF2CD2D176E74A
:2024A000002820D1601CC0B2012853DD80279E1AFF0437402FD0D61A0D0095E72800002320
:2024C00076E7614B241A334061E700294DD1611CCEB2012E2FDDFF292AD09B185B080C0037
:2024E00055E701227BE7002C1BD1002B5BD0C04300280CD0FF2E7ED01B2800DD92E01D007C
:202500002024C540201A8340581E83412B43D31A34000D0064E7002E00D065E700200024C6
:20252000ABE7FF2E67D08024E40440422343E3E7FF2400233CE7002C61D1002B7ED0002AFD
:2025400000D124E79B185A0100D460E73E4A0C0013401CE7002C1ED1002B2FD1002A66D0E6
:2025600013000D0013E7012277E7002C1FD1002B5AD0C94300290BD0FF2E50D01B295FDC73
:202580001F002024CF40611A8B40591E8B413B439B18340062E7002B1CD1002A4AD0130023
:2025A0000D00FF24F3E6130034000D00EFE6FF2E35D08024E40449422343DFE7002A00D179
:2025C000E5E68027981AFF04074000D152E7D31A0D00DCE6FF24002A00D1D8E68020DB0868
:2025E000C003034204D0D208024201D113000D00DB00FF24CBE61300FF240D00C7E6002B25
:202600000DD0FF24002A00D1C1E68021DB08C9030B42EDD0D2080A42EAD11300E8E71300E8
:20262000FF24B4E6012372E713003400AFE60027002022E780270020FF03F1E61300A6E6F5
:202640000123A5E7FFFFFF7DFFFFFFFB00000000F0B5564644465F464D46F0B44402460025
:20266000C70F83B08846650A360EBA463DD0FF2E22D00023EC00802599469B46ED042543D7
:202680007F3E43465C025800DB0F640A000E984636D0FF2830D080230021E400DB041C43E7
:2026A0007F38301A0190484642460843724E800030587A4013008746002D44D10823994679
:2026C000063B9B46DDE70122FF2000241A406402C305640AD2071C431443200003B03CBC5E
:2026E00090469946A246AB46F0BD002D20D104239946033B9B46C4E7002C17D1022102E098
:20270000002C0AD10121321A01924A4643460A435A48920082587B409746200002F0B0FBE8
:20272000431F76309C4040420021BAE70321B8E7280002F0A5FB431F9D4000237630464264
:2027400099469B469DE70C239946093B9B4698E780240022E403FF20B9E70024C2468B461A
:202760005A465346022AAED0032A7DD0012A31D1012200201A400024A9E70122101A1B28EE
:2027800056DD1A4000200024A1E78023DB031D424BD18023DB032B435C02640A3A00FF20D0
:2027A00095E76D016001854230D2019A0024013A01921B220127290064006D00002901DB14
:2027C000A84201D82D1A3C43013A002AF3D16A1E95412C4301987F300028CEDD620704D022
:2027E0000F222240042A00D00434220103D5244A019814408030FE2800DD64E70122A401F4
:020000040800F2
:20280000640AC0B21A4062E72C00A9E72D1A1A220124CFE76B02BCD500248023DB031C4319
:202820006402640A4246FF2051E71C42B3D1F4E721002022C140101A8440621E94410C4332
:20284000620704D00F222240042A00D00434620104D5012201201A40002438E70122A4018D
:20286000640A1A40002032E78023DB031C436402640A5246FF202AE728170108681701080B
:20288000FFFFFFF7000000000000000000000000430270B542004C005D0AC30F4802120EA9
:2028A000460A240EC90FFF2A0FD0FF2C11D00120A24200D070BDB542FCD18B420DD0002A10
:2028C000F8D12800431E9841F4E70120002DF1D1EBE70120002EEDD1E9E70020EAE7C0463C
:2028E0004302F0B542005D0AC30F4802440A4800120E000EC90FFF2A1FD0FF2822D0002A32
:2029000009D16E426E4100280FD1002C0DD10020002D09D005E0002801D1002C01D08B429D
:2029200013D0584201231843F0BD002EF7D048424141012049420843F6E7002DDDD002201D
:202940004042F1E7002CDAD0F9E78242E9DC04DBA542E6D80020A542E6D25842434101205C
:202960005B421843E0E7C04600000000000000004302F0B542004C005E0AC30F4802120E76
:20298000450A240EC90FFF2A17D0FF2C19D0002A0BD170427041002C17D0002807D04842B5
:2029A0004141012049420843F0BD002C13D08B4214D0584201231843F6E70220002EF3D127
:2029C000E3E70220002DEFD1E1E7002DE5D10020002EE9D0EDE7002DE9D1EAE7A242E8DC38
:2029E00004DBAE42E5D80020AE42DDD25842434101205B421843D7E7000000000000000097
:202A0000F0B557464E4645464300E0B446028846760A1F0EC40F002F47D0FF2F25D000235C
:202A200080259A469946F600ED042E437F3F434642465D02D20F5B006D0A1B0E904640D0EA
:202A4000FF2B39D080220020ED00D20415437F3BFB1842465746591C62408C4607430F2F03
:202A60005CD86F49BF00C9598F46002E45D108239A46063B9946DAE7424602282DD00328AA
:202A800000D1C3E0012800D0A2E0002500260240D4B27602ED05760A2E43E4072643300055
:202AA0001CBC90469946A246F0BD002E1AD104239A46033B9946BAE72A00511E8A41901C06
:202AC000C6E70120002DC3D0280002F0D9F9431F76309D4043420020BAE70124FF251440B4
:202AE0000026D6E7300002F0CBF9431F9E400023763047429A46994699E70C239A46093BE9
:202B0000994694E780260024F603FF25C1E735004846B2E7350022004846AEE72904090CB4
:202B20000800370C3604360C2C0C7943704367437443060C64183619B14203D9802149022E
:202B4000884647440004000C310409188D01681E8541890E2943350CED19AD010D4329016A
:202B600004D5012369081D4063460D4319007F31002925DD680704D00F202840042800D0C7
:202B80000435280103D5274980330D401900FE29A3DC0124AD016E0A1440CDB279E78020AE
:202BA000C003064207D0054205D128434602760A4446FF256DE706437602760AFF2568E72D
:202BC0000124611A1B2905DD14400025002660E76346CBE72E002023CE40591A8D406B1EA6
:202BE0009D412E43730704D00F233340042B00D00436730104D5012401251440002648E719
:202C00000124B601760A1440002542E780260124F6032E437602760A1440FF2539E7C046EB
:202C2000A8170108FFFFFFF70000000000000000F8B54A024E0043024400240EC50F9B095E
:202C4000360EC90F9209FF2E00D183E001204140A01BA9425CD0002800DC95E0002E1CD154
:202C6000002A00D081E05A0704D00F221A40042A00D004335A013BD50134FF2C00D191E0F7
:202C800001209B015B0AE4B205405B02E4055B0AED0723432B431800F8BDFF2CE3D0802178
:202CA000C9040A431B2800DD90E016002021C640081A8240511E8A4132439B1A5A0115D580
:202CC0009B019E09300002F0DBF80538864084426CDC041B330020200134E340041BA640BC
:202CE000721E964100243343BDE70D005A07BCD1DF0801231D40FF2C33D1002F00D190E02D
:202D00008022D20313003B435B025B0AFF24BCE700284FDD002E2ED0FF2CA4D08025ED046E
:202D20002A431B2800DD97E016002025C640281A8240501E824132439B185A01D5D5013497
:202D4000FF2C6DD001227B481A405B08034013430D0088E7002A00D07AE777E7031EC5D1E3
:202D600000257B025B0AE4B28FE701380028A4D0FF2C97D177E7002A00D174E701380028C3
:202D8000DAD0FF2CCDD16EE7002821D1601CC0B2012858DD80279E1AFF0437402FD0D61A3D
:202DA0000D008FE701231D4000236EE7624B241A334058E7002851D1601CC6B2012E33DD7D
:202DC000FF282DD09B185B0804004CE7012274E7002C1AD0FF2E1FD08024E404404223435E
:202DE0001B2800DD96E01D002024C540201A8340581E83412B43D31A34000D005EE7002E91
:202E000000D05FE700250024ABE7002B44D0C0430028F0D0FF2EE3D11300FF240D0022E76A
:202E20000D00FF24002330E7002C5DD1002B7DD0002A00D117E79B185A0100D456E73E4AB6
:202E4000040013400FE7002C1ED1002B2FD1002A65D013000D0006E701226DE7002C1FD1E0
:202E6000002B59D0C04300280BD0FF2E4FD01B285EDC1D002024C540201A8340581E834192
:202E80002B439B18340058E7002B1CD1002A49D013000D00FF24E6E6130034000D00E2E618
:202EA000FF2E34D08024E40440422343DFE7002A00D1D8E68027981AFF04074000D14DE746
:202EC000D31A0D00CFE6FF24002A00D1CBE68020DB08C003034204D0D208024201D1130012
:202EE0000D00DB00FF24BEE6002B10D0FF24002A00D1B8E68020DB08C003034203D0D20824
:202F0000024200D11300DB000D00FF24ABE61300FF24A8E601236EE713003400A3E60027B9
:202F200000251EE780270025FF03E9E613009AE60123A6E7FFFFFF7DFFFFFFFB0000000014
:202F400043025A0A40004B024900000E5B0A090EFF2803D00020FF2906D07047FE38002A39
:202F6000FBD10020FF29F8D11800431E9841F4E74302590A4300C20F1B0E00207E2B0EDDAE
:202F80009D2B0DDC802000040143952B0BDC9620C31AD9400B005842002A00D118007047D6
:202FA000034BD018FBE7963B99400B00F3E7C046FFFFFF7F000000000000000000000000E8
:202FC00070B5002830D0C317C5185D40C40F280001F056FF9E231B1A962B0DDC9622D21ACB
:202FE00095406A02520AD8B25202C005520AE40702432243100070BD992B19DC9922D21A03
:020000040800F2
:203000009540124A2A40690704D00F210D40042D00D00432510103D50C4B1A409F231B1A4B
:203020009201520AD8B2DFE7002400200022DBE705222E00121AB921D6402A00C91A8A40E1
:20304000551EAA4135001543DBE7C046FFFFFFFB70B5041E28D001F013FF9E231B1A962BCC
:203060000ADC9622D21A94406202520AD8B25202520AC005104370BD992B18DC9922D21A54
:203080009440114A2240610704D00F210C40042C00D00432510103D50B4B1A409F231B1AE0
:2030A0009201520AD8B2E2E700200022DFE705222500121AB921D5402200C91A8A40541E1E
:2030C000A2412C001443DCE7FFFFFFFB00000000F8B556465F464D464446F0B40F00FD0F05
:2030E000AA4609037C002E005F00450F490A7F0D2943C5001803BC46400A570F640DDB0F3F
:203100003843D2009A4500D1AAE06646A61B002E00DCFFE06346002B39D10300134300D0CB
:20312000D9E06B0709D00F232B40042B05D02B1DAB42AD416D4249191D000B0200D482E056
:20314000CA4B01349C4200D1FEE00A005646C84BED081A405007640552020543120B640DA6
:20316000002112030B0D1B056405120B1A436308C04CF60714401C43640064083443280068
:2031800021003CBC90469946A246AB46F8BDB74B9C42C6D080231B041843382E00DDEBE032
:2031A0001F2E00DD1EE120239B1B9C4603006746BB40984613004746F3403B436746BA408A
:2031C000571EBA4113430200F240EB1A9D42B6411D008A1A7642911B0B0231D54A02560A36
:2031E000002E00D1B4E0300001F04AFE0300083B1F2B00DDB5E020222900D21AD1409E408B
:203200000A009D4032439C4200DDB1E01C1B631C1F2B00DDD5E0202114002800C91A8C4048
:20322000D8408D400443DA40681E854111002543002476E74146314300D134E23100454664
:203240006B0700D06FE756464807ED08C9080543864B9C4235D00A036405120B640D7FE7BF
:203260006346E31A9B46002B00DC8BE06746002F3CD07E4FBC4200D153E780273F04384332
:203280005B46382B00DCF7E00243501E82410020D2B253194218AB4289411D004942891897
:2032A0000B02CDD5714B01349C4200D13DE101206F4A6B080A4028401843D50705435108CA
:2032C0002FE72B000B4300D1CBE180231B030B431A03120B44E7013E002E6DD1AE1AB54204
:2032E0009B41091A5B42C91A350075E70700174300D116E701235B429C46E3445B46002BF9
:2033000000D0E0E0AA18AA429B4109185B4259181500C5E7002E75D1661C7605760D012E80
:2033200000DCF3E0AE1AB0464545BF410E1A7F42F61B370200D48FE0551BAA42B641411A72
:2033400076428E1B9A464BE756460022002507E7280001F095FD20300300083B1F2B00DCC2
:2033600049E72A002838824000259C4200DC4DE73F49E41A1140D4E60243501E8241D3B232
:20338000002222E7002B00D0F3E0631C9C465B055B0D012B00DC9FE0344B9C4500D1C3E0B0
:2033A000AA180918AA42804140424118CD075208154349086446B4E62C4B9C4200D0ECE690
:2033C000AFE611001F3CE1400C00202B00D17FE04021CB1A9A4015436A1E954100212543E5
:2033E00000242DE733000700203BDF403B00202E70D04027BE1BB0400243501E824113431C
:203400000022E2E6002C4FD0184CA44500D1ABE08024240476422143382E00DDDFE01F2E97
:2034200000DD43E12027BC1BA1460C004F46BC40A0462C004746F4403C434F46BD406F1E78
:20344000BD41F1402C43151BAA429241411A5242891A64469A46BFE641464546314300D0C8
:20346000BEE6002600240025F2E6C046FF070000FFFF7FFFFFFF0F801F2B59DC2027FF1A6D
:20348000BC46070063469F405B46B9461700DF40B8464F4643461F4363469A40531E9A4178
:2034A0005B463A43D840F4E60C002C435CD0F643002E55D1551BAA42A441411A6442091B62
:2034C0009A46644688E6964FBC4200D0D8E628E6002280E700208FE70B002B43002C00D0E1
:2034E000C2E0002B00D101E10300134300D118E6AB18AB42B6410918764271180A0200D43B
:2035000009E1884A1D00114064460AE6002C5BD10E002E4300D08AE00100114300D1C2E00E
:20352000010015009A46FCE56446002100258FE620235B429C46DC4463460700DF405B46FD
:20354000BC46202B00D1ACE040235F46DB1B98400243501E8241634613431A00002098E6BE
:203560006F4CA44500D057E70100150064469A46D7E5002C39D10C002C436ED0DB43002B05
:203580001AD0674CA44568D0382B00DDA4E01F2B00DDAEE020240F00E41AA740B9462F008E
:2035A000DF40B846A3464F46444627435C46A5406C1EA541D9403D43AD1895429B41091853
:2035C0005B42591864466BE60C002C4315D1010011437BD0010015009A46514CA1E50D4378
:2035E000691E8D410021ECB22DE74D4CA44534D0802424045B422143C6E7040014434ED02A
:20360000ED084C072C438025C9082D03294208D0C6082E4205D1D208410711430C009A4694
:203620003100620FC900E50011433D4C79E50600164300D175E5AE1AB0464545BF410E1A05
:203640007F42F61B370200D4F4E5551BAA42B641411A7642891B9A4663E5010015006446C0
:203660005FE5002200257BE5002B3BD00300134315D0ED084B072B438025C9082D03294225
:2036800007D0C4082C4204D141070B002100D2081343C9005A0F1143DD00214C41E5204C3E
:2036A0003FE5002054E700260025D1E534000F00203CE7403C00202E2BD04027BE1BB1400E
:2036C0000D43691E8D4100212C43BCE6802100260903134C0025BBE50D43691E8D41002156
:2036E000EDB269E7010015000D4C1AE50100150017E51C000F00203CE7403C00202B0CD04A
:203700004027FB1A99400D43691E8D410021254352E70021D4E71D0092E50021F3E7C0467C
:20372000FF070000FFFF7FFF0000000000000000F0B556464D4644465F46F0B41D000E0332
:203740004C00CB0F87B0070092468146360B640D98466AD06D4B9C4235D08022430F1204F7
:203760001343F6001E43C3009946694B00279C460023644402932B0368001B0BED0F51468E
:203780009B46400D009500D178E0604B98426CD05B46DA004B0F802109040B4313439B4674
:2037A0005346D9005A4B9C46002360444246201A6A40924601901F430F2F00D9B0E05548CE
:2037C000BF00C0598746374300D088E0002399460233082700260293CDE74346B3464946AC
:2037E0000093029B009A9246022B00D0BFE1002153460122002689461A40444B0021360375
:020000040800F2
:203800000C0D2405360B2643434C1B0526401E437600D207760816434846310007B03CBCB2
:2038200090469946A246AB46F0BD330003434FD0002E00D1BCE1300001F022FB03000B3B92
:203840001C2B00DDADE11D220100D31A08393A008F408E40DA40B9461643304B00279C467B
:20386000002360444442029385E753465A4613432CD1002300219B46023397E70B4320D058
:203880005B46002B00D19EE1584601F0F9FA03000B3B1C2B00DD8FE102005946083A9140F9
:2038A0008B461D21CB1A5146D9400B0059460B4351469B469140194B9C4660444042002394
:2038C00074E7002300219B4601336FE703236DE70023994601330427002602934BE70323F0
:2038E0000C27029347E70122D51A382D00DCB0E153461A4000210023002689467EE700233A
:203900008026994600223603004B77E7FF07000001FCFFFFE8170108FFFF0F80F303000092
:203920005E4500D972E100D16DE1019B4D46013B01930023340002935B461E020B0E1E4373
:203940000B020393330C994633041B0C494620000093FEF7E5FA009B370043430600494645
:2039600020009846FEF762FB2C0C09040C43A04509D9E419731EA74200D95CE1A04500D852
:2039800059E1023EE4194346E41A49462000FEF7C7FA0300009A80465343494620009B463B
:2039A000FEF744FB2A040904120C0A4393450DD94346D219013B974200D93AE1934500D842
:2039C00037E102235B429C46D219E0445B46D21A4346360433439B460399180C0B0C1D0081
:2039E000059309045B46090C0C001B041B0C4443049159436B4368431B190D0CEB189C42DB
:203A000003D980246402A44660441C0C09041B04090C20185D18824200D2DEE000D1D7E040
:203A2000161A029B9C465D1BAC459B415B42F61AB74200D106E149463000FEF771FA009B7A
:203A400004004343494630009846FEF7EFFA2E0C09040E43B04509D9F619631EB74200D990
:203A6000F3E0B04500D8F0E0023CF6194346F31A494618000293FEF753FA009B060043434E
:203A8000494602989846FEF7D1FA2D0409042D0C0D43A84509D9ED19731EAF4200D9D6E0B2
:203AA000A84500D8D3E0023EED192404210043463143049E059A3000ED1A0B040C0C1B0C3C
:203AC00058436643534354439A19030C9B189E4203D980225202944664441A0C00041B0483
:203AE000000C14191B18A54250D34DD001231943964A019B94466344002B00DCF3E64A0785
:203B000009D00F220A40042A05D00A1D8A42894149428B4411005A46D20108D55A468C4B5F
:203B20001A4093468022D2009446019B6344894A934200DD5BE65A46C90850070843560290
:203B4000514601225B058146360B5B0D0A4055E680231B031E4211D05A461A420ED15E46D5
:203B60001E433603360B2A0089467B4B46E6032B00D1E1E0012BBBD11A40BBE61E43360372
:203B8000360B4246744B39E6002BB1D07D194A1EAF4252D91100A542A8D1039A9A42A5D158
:203BA000A6E703003E00283B9E400023994654E601F066F9203041E603005246283B9A401B
:203BC0000021934677E6504601F05AF920305EE6029B0026AB4200D323E7039E0299B4465D
:203BE00061448846B045B6415B467642F619B218013B0291974213D290424FD800D18EE06F
:203C0000161A9B460DE7894500D28EE674084B46F60735005B081D434B46DB0702938BE610
:203C20009742EDD10399029CA142E5D93E1A9B46F7E69846CAE61E00A5E6AC423ED874D07D
:203C4000110053E70121494252E71C000EE71E002BE71F2D3CDC20230A0058465B1B984055
:203C6000EA4099400243481E81415E461143EE404B0709D00F230B40042B05D00B00191DC1
:203C800099429B415B42F61833023CD55346012200211A40002601238946AFE502235B42D6
:203CA0009C46039CE344A446029B63449846A045B6417642F6190293B218B1E603988A1E74
:203CC00041008142B6417642F619AD19039161E71F225242D31A5A46DA401300202D29D0AB
:203CE00040225846551BA8400143481E814107200B4318400026002809D00F2200261A405B
:203D00001900042ABBD10B0070077602360BDB0803439946012253461A4000236EE5029966
:203D20008D42BBD89B4600267BE603989842C5D3110032E70020D7E780265B4636031E43C3
:203D40003603360B009A8946034B57E5FF030000FFFFFFFEFE070000FF07000000000000EE
:203D6000F0B55F4656464D464446F0B41F035C00DB0F9A46194B0E034D00C90F8046360BB3
:203D80006D0D8B4691463F0B640D9D4219D0134B9C421BD00123A54206D018003CBC904690
:203DA0009946A246AB46F0BDBE42F6D1C845F4D1D34510D0002DF0D1304303005A1E93415D
:203DC000EBE7310001230143E7D1E0E73A430123002AE2D1DEE70023DFE7C046FF070000C1
:203DE000F0B55F46444656464D46F0B41F033C0B2C4F0E034D00A3465C008446360B6D0D10
:203E0000C90F9046640DDB0FBD422BD0254FBC422ED0002D0ED1304307008146784278416F
:203E2000002C17D15F463A4314D14B460020002B0AD006E0002C02D15846024301D099423D
:203E40001AD00123484218433CBC90469946A246AB46F0BD0028F2D058425841012240427A
:203E60001043F1E737000743D0D002204042EBE75F461743CDD0F8E7A542E2DC05DB5E45DD
:203E8000DFD808D000205E45DED248424841012340421843D8E7C445D3D80020C445F4D3A9
:203EA000D2E7C046FF0700000000000000000000F0B55F464D4644465646F0B41C03240B48
:203EC000A4462F4C0F034D005E00C90F80463F0B6D0D8B469146760DDB0FA54220D0284CFE
:203EE000A64222D0002D12D1384344424441002E20D0002C0DD05C42634101245B421C43C8
:203F000020003CBC90469946A246AB46F0BD002E17D05B4519D05B465C4201231C43EFE718
:203F2000390002240143EBD1D9E7614602241143E6D1D7E761460A43DBD100240028DFD031
:203F4000E9E761460A43E4D1E5E7B54203DD01225C421443D4E7B542CDDB6745DBD809D09B
:203F600000246745CCD259464C426141012449420C43C5E7C845CED80024C845F3D3BFE709
:203F8000FF070000000000000000000000000000F0B55F4656464D464446F0B40D03994685
:203FA0004E002B0B87B00700924680469B46760DCC0F002E69D06D4B9E4235D05B4680221B
:203FC000DD001204430F13432B439B46C3009846674B00279C460023664401934A46150392
:203FE0005000D20F53462D0B400D914600D176E05E4A90426CD080225B0F120413435C4AA0
:020000040800F2
:20400000ED0094461D4353460022DB00604449463618701C6140029017430F2F00D9AFE0A3
:204020005448BF00C759BF465B461F4300D088E000239B469846023308270193CEE74946A7
:20404000022A6AD0032A00D109E2012A00D0BBE111400022002300259046CCB200212D031A
:204060000A0D12052D0B1543434A1B0515401D436D00E4076D0825434046290007B03CBC8D
:2040800090469946A246AB46F0BD034352D05B46002B00D18AE1584600F0F2FE03000B3BAE
:2040A0001C2B00DD7BE11D22D31A3A0001005D46DA4008398D4013008F402B439B46B8461F
:2040C0002E4B00279C46002360444642019385E752462A432CD100250023022297E752468B
:2040E0002A4321D0002D00D154E1280000F0C8FE03000B3B1C2B00DD46E11D21CB1A514603
:204100000200D9405346083A954093400D431B4A944660444042002279E7012400220C4037
:20412000124B0025904699E70025002301226EE703226CE700239B4698460133042701939A
:204140004CE703230C27019348E700238025984600242D03054B81E75D464346019A6FE741
:204160005D4643462100019A6AE7C046FF07000001FCFFFF28180108FFFF0F80F303000033
:204180004246120C91461A0C9446424617044A461B041B0C5A43604690464A4642431000EB
:2041A000039262461C003F0C7A437C4342440192220C9246019A5244904506D98246802073
:2041C00040028046C24450460390100C049048462404240C1204121905922A0C2D042D0C9A
:2041E00068432C00824648467C4350438146200C8046574357444744BA4503D9802040020A
:204200008046C144380C3F04B84648442404240C01900498A044404404905846000C8146D0
:2042200058460404200C8246070048465F434C464343604660436446834650464443380C78
:204240008446E4186444A34203D980235B029C46E34448463F04230C3F0C2404E419574619
:2042600068436F4384464D46504655434243380C814662444A445B44944503D9802040025C
:204280008446654403983F04834604983F0C8446E344C345804140428246100484460198A2
:2042A000674484466744A344BC46A345A4419946D44464428742BF41D4458041E144A046DD
:2042C00099459B417F424042C8440743120CBA18A045A4415F423B0064422343D718434671
:2042E0007D19DB0D6D021D435B465A02059B1A43531E9A415B46DB0D1A4343465B02134309
:20430000EA0107D501225C0813402343EA07029E13436D08574AB218002A4BDD580709D045
:204320000F201840042805D0181D98429B415B42ED180300E80104D54F4A15408022D20041
:20434000B2184E48824200DDE7E60124DB08680718436D02530580462D0B5B0D0C407DE6E1
:20436000802259461203114208D0154206D115432D0398462D0B4C46414B6FE65D46154382
:204380002D032D0B3E4B69E603005546283B9D400023BCE6504600F073FD2030A8E6030063
:2043A000283B9F400023BB46984689E600F068FD203073E60124A61A382E07DD00220C40AF
:2043C00000230025904649E6029EA3E71F2E20DC20222C001800921BF040944093400443CC
:2043E000581E83411C43F540630709D00F232340042B05D023001C1D9C4292415242AD18AD
:204400002B021FD5012400220C4001230025904624E61F202C004042821AD440202E1CD0E8
:204420004022961BB5402B43581E83410720234318400025002809D00F2200251A401C00F5
:20444000042AD8D1230068076D022D0B0124DB08034398460C40002300E60025E3E780223A
:204460000124120315432D0398462D0B0C40044BF4E5C046FF030000FFFFFFFEFE070000E8
:20448000FF070000000000000000000000000000F0B557464E464546E0B40E001100F20F01
:2044A0009246C500420F180337037400400A4E0F7F0A3043CF4E17435A00640D520DDB0F17
:2044C000C900B24200D1E5E001267340A61AB446534500D1AFE0002E00DC0DE1002A3AD1D0
:2044E00003000B4300D0E4E06B0709D00F232B40042B05D02B1DAB42AD416D427F191D0064
:204500003B0200D488E0BB4B01349C4200D110E13A00B94B51461A4001235007ED08520254
:2045200064050543120B640D0B400021280012030D0D120B64052D0515436208AF4CDB0722
:204540002C401443640064081C4321001CBC90469946A246F0BDA74B9C42C5D080231B04FF
:2045600018436346382B00DDFDE01F2B00DD30E1624620239B1A02009A40664690460A00DA
:204580009940F24046464B1E99413243114363460200DA40691A8D429B410D00BA1A5B4207
:2045A000D71A3B0235D57A02530A98464346002B00D1C4E0404600F063FC0300083B1F2B7E
:2045C00000DDC5E020222900D21A4746D1409F400A009D403A439C4200DDC0E01C1B631C10
:2045E0001F2B00DDE4E0202114002800C91AD8408C408D400443DA40681E85411700254393
:20460000002471E7424663461A4300D14CE2674645466B0700D069E7012351467807ED0898
:20462000FA080B40054373498C4238D012036405120B640D79E7002E00DC9AE0002A47D022
:204640006C4A944200D14FE78022120410436246382A00DC08E10143481E81410022C9B2E4
:204660004919D219A942BF410D007F42BF183A0200D442E15F4A0134944200D14EE1012055
:204680005D4A69083A4028400843D507054357089A4629E706000E4300D017E714E7290019
:2046A000114300D1F9E1802109030A431203120B3BE701235B429846C4446346002B72D1EF
:2046C000691A8D429B413F1A5B42FF1A0D0068E702000A4300D107E7012252429046C4449E
:2046E0006246002A00D0E6E06918A942B6413F187642F7190D00BAE7002E00D080E0621C46
:204700005205520D012A00DCF9E06A1A91464D45B6413A1A7642921B9046120200D499E02F
:204720004D1BA9428941C71B49427A1A90469A463CE752460123002513400022F5E6280029
:2047400000F09EFB20300300083B1F2B00DC39E72A002838824000259C4200DC3EE7264F2F
:20476000E41A1740C0E60143481E81410022C9B210E7002E00D0F1E0621C94465205520D61
:20478000012A00DCA0E01B4A944500D1C5E06918A94292413F185242D2194908D5070D434C
:2047A00057086446A0E6134B9C4200D0D9E69BE611001F3CE1400C00202B00D180E04021A8
:2047C000CB1A9A4015436A1E95410027254300241FE763460200203BDA406346202B71D056
:2047E000402366469B1B98400143481E814111430022CFE6FF070000FFFF7FFFFFFF0F8076
:020000040800F2
:20480000002C48D0CA4CA24200D1A2E07442A1468024240427434C46382C00DDDBE01F2C5B
:2048200000DD44E14E462024A41B3E00A640A246B0464C462E00E640B4464646644626435E
:204840005446A5406C1EA54134002C434D46EF400D1B28E04A4643464D461A4300D0A5E670
:20486000002300240025DEE61F2A5ADC66462022921B060096409146B04662460E00D64079
:20488000424616434A4691404A1E9141020060463143C240E4E63C002C435AD0F443A146C1
:2048A000002C52D14D1BA9428941C71B49427F1A14009A4675E69E4A944200D0C7E613E603
:2048C00000227FE700208FE7002C00D0C8E03B002B4300D10FE103000B4300D104E669181F
:2048E000A9429B413F185B42DF193B0200D41AE1904B0D001F406446F6E59A4689E63A00A4
:204900002A43002C5CD1002A75D102000A4300D1CAE007000D009A46E6E5644600220025E7
:2049200081E662460600203AD6406246B046202A00D1B7E040226646921B9040014342464B
:20494000481E8141114300228AE6794CA24200D061E707000D0014009A46C5E5002C41D198
:204960003C002C4378D0F443A146002C20D0704CA24271D04C46382C00DDB2E01F2C00DD9C
:20498000BCE02026341BA2463C005646B4404E46A0462C00F440A446444666463443A446D7
:2049A0005446A54064466E1EB54125434C46E7406D188D4289413F184942CF19140056E6F3
:2049C000002A2FD102000A4300D184E007000D009A46574C88E53D436F1EBD41ECB2002755
:2049E0000D1B60E7524CA24236D0744280263604A1463743BEE702000A4300D174E56A1A27
:204A000090464545B6413A1A7642921B9446120200D4F7E54D1BA9428941C71B49427F1AC5
:204A20009A4661E502000A433AD0ED087C072C438025FA082D032A4208D0C7082F4205D1DF
:204A400045072C003A009A46C9080C43670FD200E5001743364C47E507000D00140043E51F
:204A60003A002A4343D002000A4319D0ED087C072C438025FA082D032A4207D0C6082E4205
:204A800004D147073C003200C9080C43D700620FE50017439A46264C26E50022002544E511
:204AA000234C21E5002049E700230025BBE54C463E00203CE6404C46B446202C31D04024BA
:204AC0004E46A61BB7403D436C1EA54164462C4300270D1BE7E6802200231203144C002506
:204AE000A1E53D436F1EBD410027EDB260E707000D000F4CF8E407000D00F5E44E463C0010
:204B0000203EF440A0464C46202C0ED040244E46A41BA7403D436F1EBD414446002725439F
:204B200046E70027CFE70D0073E50027F2E7C046FF070000FFFF7FFF00000000000000007E
:204B40000B0330B5134D1A0B4B005B0DC90F0024AB4211DD104CA34210DC802464032243B6
:204B60000E4CE41A1F2C0CDD0D48C31ADA4013005C42002900D11C00200030BD094BCC1851
:204B8000FAE7E040084CA44663449A4013000343EEE7C046FE0300001D04000033040000C8
:204BA00013040000FFFFFF7FEDFBFFFF0000000070B5002830D0C317C4185C40C50F2000E9
:204BC00000F05EF9174B184A1B1AD21A1F2A18DD164AD21A9440002224035B05240B5B0D0B
:204BE0000021100024030A0D1205240B1443104A1B0514401C436400ED0764082C43210028
:204C000070BD210091400A000B21081AC4405B052403240B5B0DE3E70025002300240022A3
:204C2000DEE7C0461E0400003304000013040000FFFF0F80000000000000000000000000AC
:204C400070B5051E28D000F01BF9154B154A1B1AD21A1F2A16DD2C00134A0025D21A944086
:204C60005A052403240B520D002124030B0D240B1B0523430D4C1205234013435B0028005F
:204C8000590870BD0B212C00081AC440954024035A05240B520DE7E700220024E4E7C0463A
:204CA0001E0400003304000013040000FFFF0F804200120E511C4302C9B270B55D0AC40F09
:204CC000012915DDE02189008C466D071B0B6244002128000D0D2D052B431C4D52052B40EE
:204CE000520813435B00E4075B082343190070BD002A15D1002D1FD0280000F0C1F80A2880
:204D00001DDC0B232A001B1ADA4013000200153295400F4A1B03121A52051B0B520DD7E785
:204D2000002D06D080221B0B120313436D07094ACEE7084A0023CBE700220023C8E70300A3
:204D40000B3B9D402B000025E3E7C046FFFF0F8089030000FF0700000000000000000000F1
:204D60004B0070B55E0D0C03751C640A420F6D052243C90FC4006D0D012D2ADD3B4BF31846
:204D8000FE2B1ADC002B42DD8001451EA841D2001043620F0243500704D00F20104004282C
:204DA00000D004328020C004104021D00133FF2B03D09201520ADBB201E0FF230022520222
:204DC000520ADB0513435B00C9075B080B43180070BD002E07D01443EFD08020D20080040F
:204DE0000243FF23D7E722430023002A03D00522D208FF2B03D05202520ADBB2DFE7002ADE
:204E000032D08020C00302435202520AD7E71800173014DB8020000402431E20C01A1F28E4
:204E20000FDC2500124BF3189D406E1EB5419A402B0013432200C2401A430023ABE70023E7
:204E4000D5E702256D42EB1A1500DD40202809D0084BF3189A401443621E9441220000233F
:204E60002A4398E70022F6E70022A8E780FCFFFF82FCFFFFA2FCFFFF000000000000000004
:204E80001C2101231B04984201D3000C10391B0A984201D3000A08391B09984201D3000996
:204EA000043902A2105C40187047C046040302020101010100000000000000000000000081
:204EC00010B50A22002100F08FFA10BD10B50A23002200F0CDF910BD0000000000000000E3
:204EE000014B18687047C046080400200000000070B50F2A32D90C0004430B00A40731D189
:204F000015000400103D2D0901352D0149191E6826605E6866609E68A660DE681033E660BC
:204F200010349942F3D10F2345191340032B1BD91C1F0023A4080134A400CE58EE5004330B
:204F40009C42FAD103232D1909191A4005D00023CC5CEC5401339A42FAD170BD0500002A29
:204F6000F5D1FAE70500F2E71A00F8E70000000070B583073FD0541E002A3BD0CEB20300CB
:204F8000032503E0621E002C34D0140001335A1E16702B42F6D1032C24D9FF250D402A0213
:204FA00015432A0415430F2C11D92600103E3609013636011A009B19156055609560D560AB
:204FC00010329342F8D10F221440032C0AD9261FB6080136B6001A009B1920C29342FCD118
:204FE00003221440002C05D0C9B21C19197001339C42FBD170BD14000300CCE70000000029
:020000040800F2
:20500000CAB270B5002A40D083070ED00378002B5ED003249A4205D136E00378002B57D0BD
:205020009A4231D001302042F7D1FF23FF250B402D020902294019430D040D432C000168B2
:20504000244B4C40CB188B431900224B224EE318A3430B4333420DD12C00043001681D4BFB
:205060004C40CB188B4319001A4BE318A3430B433342F1D00378002B04D129E001300378E0
:20508000002B25D09A42F9D170BD83070AD003780322002B03D1F7E70378002BF4D00130A1
:2050A0001042F9D102680B4B0B49D31893430B4206D104300268074BD31893430B42F8D015
:2050C0000378002BE0D001300378002BFBD1DBE70020D9E7FFFEFEFE80808080000000003C
:2050E000024670B50A4392072AD11E4DEE0104C808C9541B9443344017D0D0B2D9B2401A63
:205100002106014310D190B299B2401A210401430AD110021902000A090A401A210201430D
:2051200002D1100E190E401A70BD9A42DFD010BA19BA884201D9012070BD0020C04370BD66
:2051400002780B7801300131002A09D09A4207D102780B7801300131002A01D09A42EFD042
:20516000D01A70BD01010101000000000000000010B5830727D00378002B26D0030003210B
:2051800002E01A78002A1CD001330B42F9D119680F4A104C8A188A4322420FD10433196899
:2051A0000B4A8A188A43224208D104331968084A8A188A432242F1D000E001331A78002A80
:2051C000FBD1181A10BD0300E1E70020FAE7C046FFFEFEFE80808080000000000000000039
:2051E00030B50478002C1DD00D78002D14D0A5420FD00B0001E0A2420BD001331A78002A3E
:20520000F9D101300478002CEFD11A780023002A00D00300180030BD013004780B00002C90
:20522000E3D1F2E70023F5E7000000000000000070B50478002C14D005000E78002E09D09F
:20524000B44209D00B0001E0A24205D001331A78002AF9D1281A70BD01352C78002CEDD1ED
:20526000F8E70020F7E7C0460000000000000000F0B556464D4644465F46F0B41E00594BE2
:2052800087B004911D6805900B009046082100E03B001C785F1C2A1952781142F8D12D2C72
:2052A00000D17EE0002202922B2C00D17EE0002E04D0102E00D185E0019605E0302C00D164
:2052C00077E00A230A260193029B5A42534180221206D31A9946019B48469A461900FCF71D
:2052E000A5FE53460391484651460193FCF718FE042281469246013A9346019A3B0000204D
:2053000000274946944601960EE0019A303CA2421BDD7A1C06D088422FD82BD0624601278D
:20532000504320181C78013356462A1952781642EBD15E46324008D05726B146012A1FD0A1
:205340004A46A41A019AA242E3DC7A1C1BD0029A002A00D040424246002A04D0002F1ED184
:20536000049B4246136007B03CBC90469946A246AB46F0BD039A9442D0DD01277F42D1E7E8
:2053800036329146DCE7029805994242504180221206101A22220A604246002AE3D0013B8B
:2053A000DFE79F1C5C780123029380E79F1C5C787DE720223B789343582B0AD00823082604
:2053C000019381E7302C0AD120223B789343582B05D110237C7801930237102674E71023BE
:2053E000019371E70404002010B504001300034A10680A002100FFF73BFF10BD08040020A4
:205400007047C0460000000000000000000000007047C04600000000000000000000000012
:20542000FEE7C04600000000000000000000000080229446F0B50026104F114D114C124BC3
:205440001249BC449C420DD91A0001C901C29442FBD8DA431419A4080134A4001B199D42FB
:2054600002D940C39D42FCD81037674504D0BC68FD6839687B68E5E7F0BDC0466C190108BA
:20548000B83F0020B83F0020B83F00208C5A0108FEE7C046000000000000000000000000ED
:2054A000FEE7C04600000000000000000000000010B500F035F900F083F80B4C80220B4966
:2054C000200000F025FA0A4B0122C3612023C254084A094B116A303C0B40A061136262B642
:2054E000064800F065FA10BD181C0020241A01080002002000ED00E0FFFF00FFF4190108A5
:2055000072B6014BD862FEE7E81B002000000000F8B54F464646C0B480271B4DFF05EC692B
:20552000786AAA6AA368811A994219D300212E0088461C36D318E268AB629146424623686D
:205540005E60EB61E260B34218D062B62069C84772B6EC69786AAA6AA368811A8B42E9D9CA
:205560000A498C4206D09B181B1A012B09D9181800F07EFC0CBC90469946F8BD00F070FC16
:20558000E3E70223F3E7C046E81B0020041C0020EFF31080C30702D4EFF3058372B670477E
:2055A00010B5C30704D4EFF30583DB0501D062B610BD00F09DF9FAE700000000000000001D
:2055C000054B1A001C32DA611A62012252425A6200229A627047C046E81B002000000000EB
:2055E00070B503618023DB050500C260586A012924D9184E3200F3691C32934220D0B26A6C
:205600009B680818841A9C4215D3F3699A68944204D91B68A41A9A68A242FAD35A682B60B1
:205620006A6015605D60AC609A68141B9C6001235B42736270BD00F01BFCE6E70221D8E7BC
:20564000B062F561356208182B606B60A96000F0FFFBEFE7E81B00200000000000000000E9
:205660001A4B10B5DA6982420FD0416802681C330A60026851600021C1609A4204D0916848
:2056800083688C466344936010BD1800002411681C30D9614860D460814214D0886892683E
:2056A000844662448A608021C905486A9B6AC31A9A42E9D9D21A012A03D9101800F0D8FB11
:2056C000E2E70222F9E700F0CBFBDDE7E81B002072B62023C35C032B16D0042B18D0002B80
:2056E00010D0012300225B4243622133C25482680A4B1B6899689142FBD25A6803604260AE
:205700001060586062B670470022436A1A60E8E7026843681A6002685360E2E7E81B0020E2
:205720000022034B1B605B609A601B615B617047E81B0020000000000000000000000000B7
:2057400000222023C2548268054B1B6899689142FBD25A6803604260106058607047C046C4
:20576000E81B0020000000000000000000000000202370B50B4CA569E85420680268546057
:2057800022600122A061C254EFF30983EA69243B9A4203D90448FFF7B3FEA0692900FAF75F
:2057A000F7FC70BDE81B00200C1A01080000000030B5050087B04B1C12D00B4C0B4AA36955
:2057C00001A8FFF70DFF2800FFF7D2FF049B002B02D001A8FFF744FFA369586A07B030BD3F
:2057E000FFF7C6FF004CF7E7E81B0020D15600081C4B70B59D6941628268A968040000201E
:020000040800F2
:205800008A420BD8202160541B6899688A42FBD95A682360626014605C6070BD2022A8541E
:205820001A00126890688142FBD951682A6069600D6055609C6101222023E254EFF3098310
:20584000EA69243B9A4204D829002000FAF7A0FCE3E70548FFF754FE29002000FAF798FCDB
:20586000DBE7C046E81B00200C1A010800000000044B1A689B6990689B6883428041404236
:205880007047C046E81B002000000000000000002021012070B5114D2A68AC6913685D6064
:2058A0005054AA61002262542B60A26800E01B6899689142FBD85A682360626014605C608B
:2058C000EFF30983E269243B9A4202D90448FFF717FEA8692100FAF75BFC70BDE81B0020D8
:2058E0000C1A0108000000000000000000000000054B10B51A689B6992689B689A4201D92B
:20590000FFF7C6FF10BDC046E81B00200000000010B5022420238260C45400231F340355E0
:20592000426301220363C3622233C254054B81615A69036142611061586103002833836240
:2059400010BDC046E81B00200000000000000000826841681300383B10B5D96111000469BB
:205960005C39D9600C614469103A4C610D4C0C620168022499612021C06898605C540021C6
:205980001F341955586301201963D96222315854054948691961586103614B6118001260E8
:2059A00010BDC046B1010008E81B0020000000008268436810B55521934203D21970013300
:2059C0009A42FBD172B6FFF7C3FF00210400FFF70FFF62B6200010BD000000000000000011
:2059E00070B5451804005526A84203D226700134A542FBD172B63839441821002439E160B5
:205A0000E0610B61049B20004B61104B0B6202212023A260E15400231F31635462630122F7
:205A20002363E3622233E254094B0021A361094B5A692361626114615C6123002833A36284
:205A4000FFF7D6FE62B6200070BDC046B10100081C1A0108E81B00200000000000000000F5
:205A600072B62222835C013B8354026A064B13400F2B01D062B67047026943691A610269E1
:205A8000536162B6F7E7C046FF00FF00000000000E4B70B59C6925006062A06A28358542C0
:205AA00006D00368A362FFF74BFEA06AA842F8D12223E35C002B04D1226963691A612269C3
:205AC00053610F20FFF754FE70BDC046E81B002010B572B6FFF7DCFF10BDC04600000000B4
:205AE00070B5040072B62023C35C0F2B07D0074B826A9B691A6083620920FFF739FE656A1C
:205B000062B62000FFF7ACFF280070BDE81B002010B5010072B60820FFF74AFE62B610BDFB
:205B2000064B10B59B69002905D0036058620320FFF73EFE10BD01204042FBE7E81B002066
:205B4000036810B5002B05D00022026059621800FFF7F6FD10BDC046000000000000000002
:205B600010B500290AD0074B42689B6918605A60136043600420FFF71BFE10BD0120404272
:205B8000FBE7C046E81B00200000000000000000036810B5984206D01A68026050605962CB
:205BA0001800FFF7CDFD10BD000000000000000070B5040000680D00844208D00368236016
:205BC0005C604562FFF7BCFD20688442F6D170BD72B6024B186962B67047C046E81B002083
:205BE00072B6044B0069984201D062B670470020FBE7C046E81B0020000000000000000020
:205C000000230060406083600361704700000000F8B50500284B80689C6900283FD0844254
:205C200045D0A2688368202693421DD28260835D002B2CD0062B17D1436801681960016858
:205C40004B60416A0B0002E09F68974202D31B689942F9D15A680360426010605860886845
:205C6000A26883689342E1D32B0003E09A68A1688A4202D31B689D42F8D15A6823606260BA
:205C8000062014605C606562FFF772FDF8BD436802681A6002685360FFF752FDE4E72B697D
:205CA000AC6001332B61236BEB602563EEE72B6901332B61EAE7C046E81B00200000000094
:205CC00010B572B6FFF7A4FF62B610BD00000000164B70B59D6972B603695A1E0261002A34
:205CE00020D1C36804682B63A0421DD0696B002B09D01A68934203D09268914200D211000D
:205D0000DB68002BF5D10123A9600361236803605860236B8460C36020632000FFF710FDDD
:205D2000FFF7E6FD62B670BD8260FBE7E81B0020C36A10B519432023C162C35C0A2B0BD07B
:205D40000B2B00D010BD436A19408B42FAD100234362FFF7F5FCF5E7436A0B42F2D0002368
:205D60004362FFF7EDFCEDE7000000000000000070B5046806000D00A0420ED0E3682B43AE
:205D8000E360002D02D022691A4203D0A1686068FFF7CEFF2468A642F0D170BD0000000011
:205DA000EFF30983203383F3098862B67047C04610B50F300ED072B6EFF30984203C84F3FA
:205DC000098880235B04E361FFF752FD002802D1024BA36110BD024BA361FBE7C001000892
:205DE000BD01000800000000000000000000000010B501F0C5FB0E4801F062FF00F0F0FBE4
:205E000000F01EFC00F03CFC00F072FC00F0C8FC00F04EFD00F0BCFF00F0EAFF00F078FE19
:205E200000F0EEFC03F044F800F00AF810BDC046981B0108000000000000000000000000D8
:205E400010B501F0E5FC10BD000000000000000080230022DB0558631A610232DA607047DE
:205E600080230022DB05DA607047C046000000008023DB0558637047000000000000000091
:205E800030B51D00002404325543C361039B4D19C362049B45610060406084600161C16015
:205EA0008261016244628462036330BD000000000023022110B5026A83600261C260436239
:205EC00083624942FFF774FE10BDC04600000000C3680269934201D0181D704782680020E5
:205EE000002AFAD1F8E7C0460000000000000000C36810B51960826801328260826994469B
:205F000042696344C360934201D3036AC3600021FFF73EFE10BDC0460000000000000000AD
:205F200070B504000D0005E029002000FFF718FE002809DBA368002BF6D0002023691A1D06
:205F40001B686262D318A36270BDC0460000000070B5040072B6436A002B1CD0A26A1D7821
:205F600001336362934213D3A269A3689446013BA3602369626963442361934201D3236A86
:205F8000236100236362E36A002B01D02000984762B6280070BDFFF7C3FF002801D1636A61
:205FA000DCE762B6F6E7C0460000000000000000F0B55F46564644464D46F0B4904683B073
:205FC00004000F009A4672B68023DB055A6A9B465244019252460023013A002600929946C8
:205FE00023E038004022FEF783FF636A4037403363624036A26A9A4213D8A269A3689446D8
:020000040800F2
:20600000013BA3602369626963442361934201D3236A23614B466362E36A002B01D0200046
:20602000984762B646452DD272B6616A002912D04346A26A9B1B551A9D4200D91D00402DE5
:20604000CFD838002A00FEF753FF636A7F195B1963627619CEE7009B03330CD85B46596AF5
:20606000019B591A8A450CD32000FFF759FF002807D1616ADCE751462000FFF751FF002842
:20608000F7D062B6300003B03CBC90469946A246AB46F0BD0000000000000000000000000B
:2060A000043210B5140083605C43C361002343628362029B0C19C362039B00604060016197
:2060C000C160446182610162036310BD00000000C36902218360036A10B50361C360002373
:2060E000494243628362FFF763FD10BD000000000369C2689A4203D0180008C80B60704719
:2061000082680020002AFAD1F6E7C046000000008269836894460133836003694269634418
:2061200010B50361934201D3036A03610021FFF72FFD10BD000000000000000000000000AC
:2061400070B504000D0005E029002000FFF708FD00280ADBA368002BF6D0E36800201A1D35
:206160006262A26994466344A36270BD0000000070B504000D0072B6436A002B20D01D70EA
:20618000636AA26A01336362934216D3A269E368043A1A60A268013AA260A269944662696A
:2061A0006344E360934201D3236AE36000236362E36A002B01D02000984762B6002070BDE7
:2061C0001100FFF7BDFF002801D1636AD7E762B6F5E7C0460000000000000000000000007D
:2061E000F0B55F46564644464D46F0B4904683B004000F009A4672B68023DB055A6A9B46AC
:206200005244019252460023013A00260092994626E039004022FEF76BFE636A4037403312
:2062200063624036A26A9A4216D8A269E368043A1A60A268013AA260A269944662696344A1
:20624000E360934201D3236AE3604B466362E36A002B01D02000984762B646452DD272B61A
:20626000606A002812D04346A26A9B1B151A9D4200D91D00402DCCD839002A00FEF738FE5C
:20628000636A7F195B1963627619CBE7009B03330CD85B46596A019B591A8A450CD3200029
:2062A000FFF74EFF002807D1606ADCE751462000FFF746FF0028F7D062B6300003B03CBC3A
:2062C00090469946A246AB46F0BDC046000000000300C1681A690020914200D070479A6852
:2062E000002AFBD05A6A002AF8D0043A521AF5D00A609A68013A9A609A6994465A6961449E
:20630000D960914201D31A6ADA60002201205A62E4E7C0460000000000000000000000000F
:2063200010B50024C361029BC1608161416189180060406084600161036210BD00000000F5
:206340004369826910B5934211D08268013282605A1C4261197043690269934204D20021A7
:20636000FFF716FC002010BDC3684361F7E78268002AEAD001204042F5E7C0460000000028
:2063800070B504000D0072B605E029002000FFF7E7FB002816DBA368002BF6D0A368A2696E
:2063A000013BA360531CA36115782269934201D3E368A361E369002B01D02000984762B6BC
:2063C000280070BD62B6FCE70000000000000000F0B556464D4644465F46F0B49A46C369BA
:2063E00083B004000E001500994672B68023DB055A6A00275244019252469B46013A00925F
:20640000A368002B1ED0A368013BA360731C9846A3695A1CA2611B783370A369226993427A
:2064200001D3E368A3614B46002B01D02000C84762B6013D0137002D13D072B6A368464620
:20644000002BE0D1009B033313D85B46596A019B591A8A4504D32000FFF782FB0028CFD031
:2064600062B6380003B03CBC90469946A246AB46F0BD51462000FFF773FBEFE700000000F5
:20648000C361009B82608A1800604060C16081614161026103627047000000000000000095
:2064A00070B504000E00150072B605E029002000FFF756FB002817DBA368002BF6D0A368D2
:2064C000013BA36063695A1C62611E7063692269934201D3E3686361E369002B01D0200073
:2064E000984762B6002070BD62B6FCE7000000008369426910B59A4210D082680132826046
:206500005A1C82611C7803699A4204D20021FFF73FFB200010BDC3688361F7E78268002A31
:20652000EBD001204042F5E70000000000000000F0B556464D4644465F46F0B49A46C3696E
:2065400083B004000E001500994672B68023DB055A6A00275244019252469B46013A0092FD
:20656000A368002B1ED0A368013BA36063695A1C6261721C904632781A70636922699342E4
:2065800001D3E36863614B46002B01D02000C84762B6013D0137002D13D072B6A3684646FF
:2065A000002BE0D1009B033313D85B46596A019B591A8A4504D32000FFF7D2FA0028CFD081
:2065C00062B6380003B03CBC90469946A246AB46F0BD51462000FFF7C3FAEFE70000000045
:2065E00010B501F03DF910BD0000000000000000012310B503700023036143611830FFF71D
:20660000FFFA10BD00000000000000000000000010B5040072B6016101F06AF90223237055
:2066200062B610BD00000000000000000000000010B501F02DF910BD0000000000000000CC
:2066400010B501F085F910BD000000000000000001230370002343607047C046000000001F
:2066600010B5040072B6416001F0D2F90223237062B610BD0000000000000000000000002F
:2066800010B501F0BDFF10BD000000000000000001230370002343607047C04600000000A1
:2066A00010B5040072B6416001F0BAFF0223237062B610BD00000000000000000000000001
:2066C00010B572B60323037001F0E2FF62B610BD042310B50370040001F0F2FF0223237080
:2066E00010BDC04600000000000000000000000010B501F0EDFC10BD00000000000000005B
:20670000012310B50370002343600C30FFF778FA10BDC046000000000000000000000000E0
:2067200010B5040072B6416001F0EAFC0223237062B610BD00000000000000000000000053
:2067400010B5040084B072B60020A06003302070089802900798019006980090200001F090
:206760001FFD431C04D00223237062B604B010BD05232370F9E7C0460000000000000000D8
:2067800010B50C30FFF79CFA10BDC0460000000010B50C30FFF79CFA10BDC0460000000039
:2067A00010B501F05DFE10BD000000000000000001230370002343607047C04600000000E1
:2067C00010B5040072B6416001F06AFE0223237062B610BD00000000000000000000000031
:2067E00010B5040072B601F093FE0323237062B610BDC04600000000000000000000000082
:020000040800F2
:2068000010B501F045FD10BD00000000000000007047C046000000000000000000000000F6
:2068200010B501F065FD10BD000000000000000010B50C30FFF7CCFD10BDC04600000000E0
:20684000012310B50C305B42FFF7C2FD10BDC04610B53030FFF76CFE10BDC0460000000096
:20686000012310B530305B42FFF762FE10BDC04610B50C30FFF784FD10BDC04600000000BE
:20688000012110B50C304942FFF77AFD10BDC04610B53030FFF704FE10BDC046000000001A
:2068A000012210B530305242FFF7FAFD10BDC04610B501F08DFF10BD00000000000000002D
:2068C00030B5150002000B000C49040002C242600100012283B0027254310C3000940F3291
