:020000040800F2
:1000000000020020A1010008D10F0008417D000876
:10001000D10F0008D10F0008D10F0008D10F000840
:10002000D10F0008D10F0008D10F00089116000869
:10003000D10F0008D10F0008D10F0008D10F000820
:10004000D10F000851390008E1390008113A0008C1
:10005000D10F0008D10F000871370008A137000840
:10006000D13700080138000831380008312E000867
:10007000612E0008912E0008C12E0008F12E000804
:10008000212F0008512F0008C1CF0008D10F000810
:10009000D10F0008D10F0008D10F00086138000807
:1000A000D10F0008D10F0008D10F0008D10F0008B0
:1000B0006131000861430008D10F0008B13D00081C
:1000C000E13E0008D10F0008D10F0008D10F000851
:1000D000D10F000891430008D10F0008D10F00088C
:1000E000D138000881390008B1390008D10F000863
:1000F000D10F0008D10F0008D10F0008D10F000860
:10010000D10F0008D10F0008D10F0008D10F00084F
:10011000D10F0008D10F0008D10F0008D10F00083F
:10012000812F0008B12F0008E12F000811300008CE
:1001300041300008D10F0008D10F0008D10F00088E
:10014000413A0008A13A0008013B0008D10F00081D
:10015000D10F0008D10F0008D10F0008D10F0008FF
:10016000D10F0008D10F0008D10F00081145000879
:10017000D10F0008D10F0008D10F0008D10F0008DF
:10018000D10F0008D10F0008D10F0008D10F0008CF
:10019000D10F0008D10F0008D10F0008D10F0008BF
:1001A00072B6344880F3098840F20000CCF20000B7
:1001B0004EF63471CEF200010860BFF34F8FBFF3EB
:1001C0006F8F40F20000C0F2F0004EF68851CEF280
:1001D00000010860BFF34F8FBFF36F8F4FF0000037
:1001E000E1EE100A4EF63C71CEF2000108600620E6
:1001F00080F31488BFF36F8F00F09AFE04F088FC40
:100200004FF055301C491D4A91423CBF41F8040B48
:10021000FAE71B49174A91423CBF41F8040BFAE741
:100220001849194A194B9A423EBF51F8040B42F83B
:10023000040BF8E700201649164A91423CBF41F8EA
:10024000040BFAE700F08CFE00F07AFE124C134D1E
:10025000AC4203DA54F8041B8847F9E707F030FC96
:100260000F4C104DAC4203DA54F8041B8847F9E7F1
:1002700000F06EBE000400200000002000020020FC
:1002800000020020840A0108000400207C050020F0
:1002900080050020409D0020A0010008A00100086A
:1002A000A0010008A00100080000000000000000FC
:1002B0002DE9F04F2DED108AC1F80CD0C3689D4692
:1002C000BDEC108ABDE8F08F002383F31188284627
:1002D000A047002001F04CF901F0CAF800DFFEE76A
:1002E00081F0004102E000BF83F0004330B54FEAE7
:1002F00041044FEA430594EA050F08BF90EA020F54
:100300001FBF54EA000C55EA020C7FEA645C7FEAE6
:10031000655C00F0E2804FEA5454D4EB5555B8BF09
:100320006D420CDD2C4480EA020281EA030382EA7A
:10033000000083EA010180EA020281EA0303362D0C
:1003400088BF30BD11F0004F4FEA01314FF4801CDF
:100350004CEA113102D0404261EB410113F0004FF1
:100360004FEA03334CEA133302D0524263EB4303A8
:1003700094EA050F00F0A780A4F10104D5F1200E46
:100380000DDB02FA0EFC22FA05F2801841F10001A1
:1003900003FA0EF2801843FA05F359410EE0A5F175
:1003A00020050EF1200E012A03FA0EFC28BF4CF0A6
:1003B000020C43FA05F3C01851EBE37101F000455C
:1003C00007D54FF0000EDCF1000C7EEB00006EEB69
:1003D0000101B1F5801F1BD3B1F5001F0CD34908F3
:1003E0005FEA30004FEA3C0C04F101044FEA44524A
:1003F00012F5800F80F09A80BCF1004F08BF5FEAD1
:10040000500C50F1000041EB045141EA050130BDB0
:100410005FEA4C0C404141EB010111F4801FA4F153
:100420000104E9D191F0000F04BF01460020B1FAA8
:1004300081F308BF2033A3F10B03B3F120020CDAE0
:100440000C3208DD02F1140CC2F10C0201FA0CF0BE
:1004500021FA02F10CE002F11402D8BFC2F1200C23
:1004600001FA02F120FA0CFCDCBF41EA0C019040D9
:10047000E41AA2BF01EB0451294330BD6FEA040422
:100480001F3C1CDA0C340EDC04F11404C4F120020D
:1004900020FA04F001FA02F340EA030021FA04F31F
:1004A00045EA030130BDC4F10C04C4F1200220FA76
:1004B00002F001FA04F340EA0300294630BD21FAB4
:1004C00004F0294630BD94F0000F83F4801306BF7A
:1004D00081F480110134013D4EE77FEA645C18BF6E
:1004E0007FEA655C29D094EA050F08BF90EA020F05
:1004F00005D054EA000C04BF1946104630BD91EAFD
:10050000030F1EBF0021002030BD5FEA545C05D1FF
:100510004000494128BF41F0004130BD14F580043E
:100520003CBF01F5801130BD01F0004545F0FE41B2
:1005300041F470014FF0000030BD7FEA645C1ABFE7
:10054000194610467FEA655C1CBF0B46024650EA1E
:10055000013406BF52EA033591EA030F41F400214A
:1005600030BD00BF90F0000F04BF0021704730B5D0
:100570004FF4806404F132044FF000054FF00001A5
:1005800050E700BF90F0000F04BF0021704730B566
:100590004FF4806404F1320410F0004548BF40423B
:1005A0004FF000013EE700BF42004FEAE2014FEA90
:1005B00031014FEA02701FBF12F07F4393F07F4F6B
:1005C00081F06051704732F07F4208BF704793F06E
:1005D0007F4F04BF41F40021704730B54FF4607481
:1005E00001F0004521F000411CE700BF50EA010284
:1005F00008BF704730B54FF000050AE050EA01022D
:1006000008BF704730B511F0004502D5404261EB9C
:1006100041014FF4806404F132045FEA915C3FF4DD
:10062000D8AE4FF003025FEADC0C18BF03325FEA7A
:10063000DC0C18BF033202EBDC02C2F1200300FA2B
:1006400003FC20FA02F001FA03FE40EA0E0021FA50
:1006500002F11444BDE600BF0000000000000000ED
:1006600070B54FF0FF0C4CF4E06C1CEA11541DBF48
:100670001CEA135594EA0C0F95EA0C0F00F0DEF813
:100680002C4481EA030621EA4C5123EA4C5350EAF8
:10069000013518BF52EA033541F4801143F4801349
:1006A00038D0A0FB02CE4FF00005E1FB02E506F0DA
:1006B0000042E0FB03E54FF00006E1FB03569CF02F
:1006C000000F18BF4EF0010EA4F1FF04B6F5007F35
:1006D00064F5407404D25FEA4E0E6D4146EB0606A7
:1006E00042EAC62141EA55514FEAC52040EA5E5030
:1006F0004FEACE2EB4F1FD0C88BFBCF5E06F1ED8DA
:10070000BEF1004F08BF5FEA500E50F1000041EB10
:10071000045170BD06F0004646EA010140EA0200BD
:1007200081EA0301B4EB5C04C2BFD4EB0C0541EADF
:10073000045170BD41F480114FF0000E013C00F3F4
:10074000AB8014F1360FDEBF002001F0004170BD18
:10075000C4F10004203C35DA0C341BDC04F1140431
:10076000C4F1200500FA05F320FA04F001FA05F2BD
:1007700040EA020001F0004221F0004110EBD3708A
:1007800021FA04F642EB06015EEA430E08BF20EAB6
:10079000D37070BDC4F10C04C4F1200500FA04F359
:1007A00020FA05F001FA04F240EA020001F00041EB
:1007B00010EBD37041F100015EEA430E08BF20EA5E
:1007C000D37070BDC4F1200500FA05F24EEA020EA6
:1007D00020FA04F301FA05F243EA020321FA04F0D5
:1007E00001F0004121FA04F220EA020000EBD3708C
:1007F0005EEA430E08BF20EAD37070BD94F0000F8C
:100800000FD101F00046400041EB010111F4801FBF
:1008100008BF013CF7D041EA060195F0000F18BF70
:10082000704703F00046520043EB030313F4801FAC
:1008300008BF013DF7D043EA0603704794EA0C0F66
:100840000CEA135518BF95EA0C0F0CD050EA41067C
:1008500018BF52EA4306D1D181EA030101F00041F9
:100860004FF0000070BD50EA410606BF1046194621
:1008700052EA430619D094EA0C0F02D150EA01362D
:1008800013D195EA0C0F05D152EA03361CBF10466E
:1008900019460AD181EA030101F0004141F0FE410D
:1008A00041F470014FF0000070BD41F0FE4141F491
:1008B000780170BD70B54FF0FF0C4CF4E06C1CEA91
:1008C00011541DBF1CEA135594EA0C0F95EA0C0F46
:1008D00000F0A7F8A4EB050481EA030E52EA033501
:1008E0004FEA013100F088804FEA03334FF0805522
:1008F00045EA131343EA12634FEA022245EA11154F
:1009000045EA10654FEA00260EF000419D4208BFFF
:10091000964244F1FD0404F5407402D25B084FEAAC
:100920003202B61A65EB03055B084FEA32024FF458
:1009300080104FF4002CB6EB020E75EB030E22BFB5
:10094000B61A754640EA0C005B084FEA3202B6EB75
:10095000020E75EB030E22BFB61A754640EA5C0024
:100960005B084FEA3202B6EB020E75EB030E22BFB4
:10097000B61A754640EA9C005B084FEA3202B6EBB5
:10098000020E75EB030E22BFB61A754640EADC0074
:1009900055EA060E18D04FEA051545EA16754FEAD6
:1009A00006164FEAC30343EA52734FEAC2025FEAF4
:1009B0001C1CC0D111F4801F0BD141EA00014FF083
:1009C00000004FF0004CB6E711F4801F04BF014354
:1009D0000020B4F1FD0C88BFBCF5E06F3FF6AFAE70
:1009E000B5EB030C04BFB6EB020C5FEA500C50F100
:1009F000000041EB045170BD0EF0004E4EEA113183
:100A000014EB5C04C2BFD4EB0C0541EA045170BD89
:100A100041F480114FF0000E013C90E645EA060ECD
:100A20008DE60CEA135594EA0C0F08BF95EA0C0FFB
:100A30003FF43BAF94EA0C0F0AD150EA01347FF443
:100A400034AF95EA0C0F7FF425AF104619462CE71A
:100A500095EA0C0F06D152EA03353FF4FDAE10467D
:100A6000194622E750EA410618BF52EA43067FF4CE
:100A7000C5AE50EA41047FF40DAF52EA43057FF45E
:100A8000EBAE12E7000000000000000000000000D4
:100A90004FF0FF3C06E000BF4FF0010C02E000BF4A
:100AA0004FF0010C4DF804CD4FEA410C7FEA6C5C2D
:100AB0004FEA430C18BF7FEA6C5C1BD001B050EAD0
:100AC000410C0CBF52EA430C91EA030F02BF90EABB
:100AD000020F0020704710F1000F91EA030F58BF7A
:100AE000994208BF90422CBFD8176FEAE37040F0DC
:100AF000010070474FEA410C7FEA6C5C02D150EA7A
:100B0000013C07D14FEA430C7FEA6C5CD6D152EA34
:100B1000033CD3D05DF8040B704700BF84461046F9
:100B200062468C461946634600E000BF01B5FFF7F8
:100B3000B7FF002848BF10F1000F01BD4DF808EDC8
:100B4000FFF7F4FF0CBF012000205DF808FB00BF99
:100B50004DF808EDFFF7EAFF34BF012000205DF8F3
:100B600008FB00BF4DF808EDFFF7E0FF94BF012040
:100B700000205DF808FB00BF4DF808EDFFF7CEFF41
:100B800094BF012000205DF808FB00BF4DF808ED80
:100B9000FFF7C4FF34BF012000205DF808FB00BF51
:100BA0004FEA410C7FEA6C5C02D150EA013C0AD169
:100BB0004FEA430C7FEA6C5C02D152EA033C02D15B
:100BC0004FF0000070474FF0010070470000000038
:100BD0004A0011D212F5001211D20DD56FF47873BC
:100BE000B3EB62520ED44FEAC12343F0004343EA11
:100BF000505323FA02F070474FF00000704750EA5C
:100C0000013002D14FF0FF3070474FF000007047C5
:100C10004FEA4102B2F1E04324BFB3F5001CDCF11E
:100C2000FE5C0DD901F0004C4FEAC0024CEA507056
:100C3000B2F1004F40EB830008BF20F00100704785
:100C400011F0804F21D113F13872BCBF01F0004088
:100C5000704741F480114FEA5252C2F11802C2F1BA
:100C6000200C10FA0CF320FA02F018BF40F001003B
:100C70004FEAC1234FEAD32303FA0CFC40EA0C00ED
:100C800023FA02F34FEA4303CCE77FEA625307D12A
:100C900050EA01331EBF4FF0FE4040F44000704761
:100CA00001F0004040F0FE4040F40000704700BFFB
:100CB00080F0004002E000BF81F0004142001FBF11
:100CC0005FEA410392EA030F7FEA226C7FEA236C1A
:100CD0006AD04FEA1262D2EB1363C1BFD21841400F
:100CE00048404140B8BF5B42192B88BF704710F0A5
:100CF000004F40F4000020F07F4018BF404211F048
:100D0000004F41F4000121F07F4118BF494292EAAF
:100D1000030F3FD0A2F1010241FA03FC10EB0C00DB
:100D2000C3F1200301FA03F100F0004302D5494268
:100D300060EB4000B0F5000F13D3B0F1807F06D315
:100D400040084FEA310102F10102FE2A51D2B1F10D
:100D5000004F40EBC25008BF20F0010040EA030002
:100D60007047490040EB000010F4000FA2F10102AF
:100D7000EDD1B0FA80FCACF1080CB2EB0C0200FA39
:100D80000CF0AABF00EBC25052421843BCBFD04087
:100D90001843704792F0000F81F4000106BF80F401
:100DA00000000132013BB5E74FEA41037FEA226CC4
:100DB00018BF7FEA236C21D092EA030F04D092F08F
:100DC000000F08BF0846704790EA010F1CBF0020C3
:100DD000704712F07F4F04D1400028BF40F0004020
:100DE000704712F100723CBF00F50000704700F040
:100DF000004343F0FE4040F4000070477FEA226267
:100E000016BF08467FEA23630146420206BF5FEA37
:100E1000412390EA010F40F4800070474FF0000337
:100E200004E000BF10F0004348BF40425FEA000CFE
:100E300008BF704743F0964301464FF000001CE0A6
:100E400050EA010208BF70474FF000030AE000BFFC
:100E500050EA010208BF704711F0004302D540423A
:100E600061EB41015FEA010C02BF844601460020AC
:100E700043F0B64308BFA3F18053A3F50003BCFAC7
:100E80008CF2083AA3EBC25310DB01FA02FC634474
:100E900000FA02FCC2F12002BCF1004F20FA02F27B
:100EA00043EB020008BF20F00100704702F120026E
:100EB00001FA02FCC2F1200250EA4C0021FA02F2CF
:100EC00043EB020008BF20EADC707047000000001E
:100ED00053B94AB9002908BF00281CBF4FF0FF31A1
:100EE0004FF0FF3000F00CB8ADF1080C6DE904CE06
:100EF0000CF006FDDDF804E0DDE9022304B07047E4
:100F0000704700BF0000000000000000000000006B
:100F100010F8012B11F8013B012A28BF9A42F7D0A3
:100F2000D01A704700000000000000000000000020
:100F3000704700BF0000000000000000000000003B
:100F4000704700BF0000000000000000000000002B
:100F5000FEE700BF000000000000000000000000ED
:100F6000F0B4144F144D1548154B164907F1700C89
:100F70000026984211D904391A4651F8044F42F814
:100F8000044B9042F9D8421ED21A22F003020432D6
:100F900013449D4203D943F8046B9D42FBD8674537
:100FA00005D0D7E90413D7E906051037E1E7F0BC0F
:100FB000704700BF54DC0008409D0020409D002089
:100FC000409D0020000C010800000000000000000F
:100FD000FEE700BF0000000000000000000000006D
:100FE000FEE700BF0000000000000000000000005D
:100FF00038B5184C00F02CF900F09AF82046802201
:10100000154900F03DFA154B44F8180C14490161DC
:101010000122002402759C60D968124A12484FF6DA
:10102000FF0529400A43DA60C268104942F0807225
:10103000C2600A68102542F0010220200A60DD77B4
:1010400083F8220084F3118862B60948BDE838406D
:1010500000F046BAE0060020D4DC000800ED00E015
:10106000000200200003FA05F0ED00E0001000E0AF
:10107000DCDC0008000000000000000000000000B0
:1010800072B6014B5862FEE7B8060020000000006F
:101090002DE9F0471C4D4FF080466C692A6A706A52
:1010A000A368811A994205F114091ED300274FF055
:1010B00020080CE087F311882069D04788F3118855
:1010C0006C69706A2A6AA368811A8B420DD82168FC
:1010D000D4F80CA0134449452B62C1F8049069610F
:1010E000E760E7D100F054FBE4E74C4509D0134436
:1010F0001B1A022B2CBFC0180230BDE8F04700F0CD
:101100004FBBBDE8F08700BFB8060020000000001C
:10111000034A516853685B1A9842FBD8704700BF76
:10112000001000E0000000000000000000000000CF
:10113000054B4FF0FF30002103F11402C3E9070112
:10114000C3E90522704700BFB80600200000000078
:10115000F8B51C4F3D46022955F8144F03614FF076
:10116000804338BF0221AC420646C260586A1ED096
:101170003D6AA3680844451BAB4213D89D4204D97D
:101180002468ED1AA368AB42FAD36368C6E900434A
:101190001E606660B560A3684FF0FF325D1BA560FE
:1011A000FA61F8BD00F0FCFA7C69A368E6E73862F2
:1011B000C7E905660844C6E90044B160BDE8F840E7
:1011C00000F0DEBAB80600200000000000000000B9
:1011D0001B4B02685969814210B40FD041680A6004
:1011E0000268143300249A425160C46003D08168BD
:1011F00093680B4493605DF8044B704718460024D5
:1012000040F8142F82425060CC6014D090688C68F3
:10121000196A04444FF080409460406A421A944234
:10122000E9D9091A0B19022B2CBFC01802305DF83E
:10123000044B00F0B5BA5DF8044B00F0A9BA00BF4A
:10124000B8060020000000000000000000000000C0
:10125000024B0022C3E900339A607047B8060020B1
:1012600000228168084B10B4044602751B689A6816
:101270008A42FBD25A682046C4E9003214605C609E
:101280005DF8044B704700BFB80600200000000066
:1012900008B5202383F31188037D032B0BD0042B87
:1012A0000DD02BB14FF0FF338361FFF7D9FF00233F
:1012B00083F3118808BD836900221A60F2E7D0E940
:1012C000003213605A60EDE70000000000000000EB
:1012D00000228168084B10B4044602751B689A68A6
:1012E0008A42FBD85A682046C4E9003214605C6028
:1012F0005DF8044B704700BFB806002000000000F6
:1013000038B5104C2569236828751A6822600121B8
:10131000546023611975EFF309822969643A914297
:1013200005D829461846BDE83840FEF7C1BF064833
:10133000FFF7A6FE236929461846BDE83840FEF7A8
:10134000B7BF00BFB8060020FCDC000800000000AA
:1013500030B54B1C87B012D00C4C0D4A23690546A2
:1013600001A8FFF7F5FE2846FFF7CAFF049B13B15B
:1013700001A8FFF72DFF2369986907B030BD034C22
:10138000FFF7BEFF2369986907B030BDB80600209B
:1013900091120008000000000000000000000000A2
:1013A00070B5144D86682A6994688161A64203D895
:1013B000BDE87040FFF754BF04461046FFF750FFEA
:1013C000012306462C612375EFF309830269643B10
:1013D0009A4205D831462046BDE87040FEF768BF06
:1013E0000548FFF74DFE31462046BDE87040FEF748
:1013F0005FBF00BFB8060020FCDC00080000000052
:10140000044B1A681B6990689B68984294BF00203F
:1014100001207047B8060020000000000000000016
:1014200038B5104C236820691A6822600121546085
:1014300019752361FFF74CFF0546EFF30983026935
:10144000643B9A4205D829462069BDE83840FEF73A
:101450002FBF0548FFF714FE29462069BDE8384034
:10146000FEF726BFB8060020FCDC000800000000E4
:10147000FFF7D6BF000000000000000000000000E1
:10148000022182608182704700000000000000009D
:10149000D0E9011330B4D0E90425C06843F8101C2A
:1014A000A3F1840143F8141C43F8442C02210022C8
:1014B000074C03F80C1C03F80B2C43F8405C43F872
:1014C000180C43F8244CA3F1200030BC704700BF37
:1014D000C902000800000000000000000000000039
:1014E000D0E90132934210B504D2552103F8011B13
:1014F0009A42FBD1202383F31188FFF7C9FF002113
:101500000446FFF74DFF002383F31188204610BDEA
:10151000F8B54518A842069E05D20446552704F89A
:10152000017BA542FBD1202484F311882039441883
:10153000A4F16407094D2061022144E90936A18222
:10154000C4E9022744F8045C20460021FFF728FF85
:10155000002383F311882046F8BD00BFC9020008AC
:10156000024B1B6998610F20FFF7CABEB806002026
:10157000202383F31188FFF7F3BF00BF00000000B2
:1015800008B50146202383F311880820FFF7E0FE09
:10159000002383F3118808BD000000000000000054
:1015A00010B5054C2369036002469A610320FFF7DA
:1015B000A7FE2369986910BDB8060020000000004E
:1015C000054B02461B6921B1036003209A61FFF7B6
:1015D000BFBE4FF0FF307047B8060020000000008B
:1015E00003682BB10022026018469961FFF738BEEC
:1015F000704700BF00000000000000000000000075
:101600000346006818B100221A60FFF7C9BE704790
:1016100069B1084B10B4024644681B690420C3E951
:101620000024236053605DF8044BFFF791BE4FF038
:10163000FF307047B80600200000000000000000E6
:10164000026890420AD010B41468046003466360D4
:10165000104691615DF8044BFFF702BE704700BF72
:1016600038B5036898420BD004460D461A682260CC
:10167000184654609D61FFF7F3FD23689C42F5D145
:1016800038BD00BF000000000000000000000000A6
:1016900080B4094A536823F0010300AF5360EFF3AD
:1016A0000983683383F30988002383F31188BD46D7
:1016B0005DF8047B704700BF30EF00E000000000E1
:1016C00098B5202300AF83F31188114B5B6813F4A6
:1016D000006302D183F3118898BDF1EE103AEFF365
:1016E00009840C4B4FF08072DB6844F8083C44F8E6
:1016F0004C2CA4F1680383F30988FFF781FE18B12D
:10170000054B44F8503C98BD044B44F8503C98BD00
:1017100000ED00E030EF00E0D9020008DC02000834
:1017200008B501F015FB0E4802F05AFA00F028FC4B
:1017300000F096FC00F0BCFC00F0DAFC00F010FDBC
:1017400000F04EFD00F0BCFD01F00AF801F030F8A9
:1017500000F0C6FE03F0E4F9BDE8084000F008B868
:10176000B4DE0008000000000000000000000000DF
:1017700001F00EBD000000000000000000000000AD
:101780004FF080430021022258631961DA607047EC
:101790004FF080430022DA60704700BF0000000075
:1017A0004FF08043586370470000000000000000C5
:1017B00070B40432039D049C826103FB0216002274
:1017C0004661C0E90B54C0E90000C0E90311C0E95B
:1017D00007318260C0E9092270BC70470000000038
:1017E000016A0022C0E903118260C0E909226FF09A
:1017F0000101FFF735BF00BF00000000000000003E
:10180000D0E90332934201D0181D70478268002A44
:10181000FAD00020704700BF000000000000000068
:10182000C36810B444691960816982680B44A3429B
:10183000C36002F1010228BF036A826028BFC3604F
:1018400000215DF8044BFFF7FBBE00BF0000000065
:1018500038B504460D4603E0FFF7DAFE00280BDB3F
:10186000A36829462046002BF6D023691A68043362
:101870001A44C4E90932002038BD00BF000000004E
:1018800010B4D0E905140369826823448B420361D4
:1018900024BF036A0361013AC36A82600022426284
:1018A00013B15DF8044B18475DF8044B704700BF57
:1018B00070B52023054683F31188446A74B114F887
:1018C000016BAA6A6C62944204D2002383F31188EC
:1018D000304670BD2846FFF7D3FFF6E7FFF7B8FFA5
:1018E000064608B96C6AEAE784F31188F0E700BF9E
:1018F0002DE9F04F984683B004460D461646202346
:1019000083F311884FF08043616A5A6A01934FF064
:10191000000A08EB0203009308F1FF39574689B328
:10192000A36AA6EB0A0B5B1A9B4528BF9B46BBF13B
:10193000400F37D901F1400B2B46D1F800C0486861
:101940008A68D1F80CE0C3F80CE010315945C3F8AF
:1019500000C058609A6003F11003EED1636AA26A76
:1019600040339A4205F140050AF1400A636225D9E5
:1019700087F31188B24528D2202383F31188616A46
:101980000029CDD119F1030F23D8019B009A5B6A7E
:10199000D31A98452AD319462046FFF759FFF0B9C4
:1019A000616ABDE75A4628460CF01AF9636AA26AD2
:1019B0005B449A42DA445D446362D9D82046FFF71B
:1019C0005FFF87F31188B245D6D3504603B0BDE818
:1019D000F08F41462046FFF73BFF0028E0D0002370
:1019E00083F31188504603B0BDE8F08F81F311886E
:1019F000504603B0BDE8F08F00000000000000007A
:101A000070B40432039D049C826103FB0216002221
:101A10004661C0E90B54C0E900008360C0E90311CE
:101A2000C0E90731C0E9092270BC7047000000001E
:101A300010B4D0E9074100228460C0E90311C0E975
:101A400009226FF001015DF8044BFFF709BE00BFEA
:101A5000D0E903239A4204D0184650F8043B0B60A7
:101A600070478268002AF7D000207047000000000D
:101A700010B4D0E905140369826823448B420361E2
:101A800002F1010228BF036A826028BF03610021BE
:101A90005DF8044BFFF7D4BD00000000000000001B
:101AA00038B504460D4603E0FFF7B2FD00280BDB16
:101AB000A36829462046002BF6D0E368A1691A1DC9
:101AC0000B44C4E90923002038BD00BF000000001A
:101AD000C36810B444691960816982680B44A342E9
:101AE000C36024BF036AC360013AC36A82600022F4
:101AF000426213B15DF8044B18475DF8044B704720
:101B000070B520230E46044683F31188456A85B1DB
:101B10002E70D4E9093201339342636203D200206C
:101B200080F3118870BDA16920460439FFF7D0FF0A
:101B3000F5E71146FFF7B4FF08B9656AE8E785F3F2
:101B4000118870BD000000000000000000000000CF
:101B50002DE9F04F1F4683B004468B4615462023DF
:101B600083F311884FF08048606AD8F82430CDF8AC
:101B700004804FF0000AFB18009307F1FF39564626
:101B800080B3A26AA5EB0A03121A934228BF134638
:101B9000402B984635D959460BF1400BD1F800C07F
:101BA0004A688B68D1F80CE0C0F80CE01031594558
:101BB000C0F800C04260836000F11000EED1626A9C
:101BC000A36A403293428B460AF1400A626224D9EA
:101BD00086F31188AA4529D2202383F31188606AED
:101BE0000028CED119F1030F24D8019B596A009B1C
:101BF000591A8F422BD32046FFF752FF00BB606A71
:101C0000BFE71A4659460BF0EBFF626AA36A4244EB
:101C10009342C244C3446262DAD8A16920460439BF
:101C2000FFF756FF86F31188AA45D5D3504603B077
:101C3000BDE8F08F39462046FFF732FF0028DED09E
:101C4000002383F31188504603B0BDE8F08F80F382
:101C50001188504603B0BDE8F08F00BF00000000BF
:101C6000D0E903239A4201D0002070478368002BFB
:101C7000FAD0436A002BF7D0043B9B1AF4D010B47F
:101C80001360D0E9051483682244013B8A428360D3
:101C900028BF036AC26028BFC360002343625DF8A7
:101CA000044B0120704700BF00000000000000004E
:101CB00030B4029C046200250A4485600261C0E9D8
:101CC0000000C160C0E90511C36130BC704700BFAE
:101CD000D0E90532934211D0826810B501325C1C04
:101CE000826044611970D0E904329A4201D3C3681A
:101CF00043610021FFF7A4FC002010BD8268002A88
:101D0000EAD04FF0FF3070470000000000000000F4
:101D100070B5202304460E4683F3118803E0FFF7D5
:101D200077FC00281ADBA56831462046002DF6D046
:101D3000A169A36820694A1C013B8242A360A26199
:101D400028BFE3680D7828BFA361E3690BB1204683
:101D50009847002383F31188284670BD85F31188C6
:101D600070BD00BF00000000000000000000000087
:101D70002DE9F04F994683B004460D461646D0F83B
:101D80001C80202383F311884FF080420027526A81
:101D9000009309EB0203019309F1FF3BBA46A368E4
:101DA000FBB1A269A368511C013BA161A360137838
:101DB00005F8013B2369A2699A4224BFE368A36145
:101DC000B8F1000F01D02046C0478AF31188013EC8
:101DD00007F1010717D0009B83F31188A368002B3C
:101DE000DFD11BF1030F12D84FF08042516A019AE4
:101DF000511A894505D32046FFF70AFC0028CED0AA
:101E0000002383F31188384603B0BDE8F08F4946BC
:101E10002046FFF7FDFB0028C1D0F1E700000000DD
:101E200030B4029C82608D18C0E90315C0E9073404
:101E3000C0E90000C0E9051130BC70470000000097
:101E4000F8B504460F461646202383F3118803E0B5
:101E5000FFF7DEFB002818DBA56831462046002D81
:101E6000F6D06269A368511C013B6161A3601770E1
:101E7000D4E904329A4224BFE3686361E36903B1A1
:101E80009847002080F31188F8BD85F31188F8BDCC
:101E900038B5D0E905239A420FD082680569591CEC
:101EA000013282608161A9421C7801D3C3688361D9
:101EB0000021FFF7C5FB204638BD8268002AECD020
:101EC0004FF0FF3038BD00BF0000000000000000F0
:101ED0002DE9F04F994683B004460D461646D0F8DA
:101EE0001C80202383F311884FF080420027526A20
:101EF000009309EB0203019309F1FF3BBA46A36883
:101F0000FBB16269A368511C013B6161A36015F8D4
:101F1000013B1370D4E904329A4224BFE368636141
:101F2000B8F1000F01D02046C0478AF31188013E66
:101F300007F1010717D0009B83F31188A368002BDA
:101F4000DFD11BF1030F12D84FF08042516A019A82
:101F5000511A894505D32046FFF75AFB0028CED0F9
:101F6000002383F31188384603B0BDE8F08F49465B
:101F70002046FFF74DFB0028C1D0F1E7000000002C
:101F800001F02EB900000000000000000000000079
:101F9000002301220270C0E90133C0E90333436129
:101FA000704700BF000000000000000000000000BB
:101FB00010B52023044683F31188416001F058F9DD
:101FC00002232370002383F3118810BD000000005A
:101FD00038B5202585F311880325C0E90223016166
:101FE000057001F0ADF9002383F3118838BD00BFFF
:101FF000202282F311880278022A03D1002383F37E
:102000001188704710B5044601F0DAF92046002225
:10201000022322616FF0010100F8143BFFF7F0FA90
:10202000002383F3118810BD0000000000000000B1
:1020300070B5202585F3118805460326C0E90223E3
:10204000016105F8146B01F07BF92846FFF7A8FA47
:10205000002383F3118870BD000000000000000021
:1020600001F046BA0000000000000000000000007F
:10207000002301220270C0E904338361704700BF6E
:1020800010B52023044683F31188016101F070FA32
:1020900002232370002383F3118810BD0000000089
:1020A00001F03EBA00000000000000000000000047
:1020B00001F08EBA000000000000000000000000E7
:1020C0000122002302704360704700BF000000003F
:1020D00010B52023044683F31188416001F028FBEA
:1020E00002232370002383F3118810BD0000000039
:1020F00002F0AEB800000000000000000000000088
:102100000122002302704360704700BF00000000FE
:1021100010B52023044683F31188416002F0A8F82B
:1021200002232370002383F3118810BD00000000F8
:102130000323037002F0D4B8000000000000000088
:1021400008B5202383F31188FFF7F2FF002383F300
:10215000118808BD00000000000000000000000021
:1021600001F0FEBE000000000000000000000000C2
:102170000122002302704360704700BF000000008E
:1021800010B52023044683F31188416001F0F8FE66
:1021900002232370002383F3118810BD0000000088
:1021A000F0B585B00446DDE90B674FF0200C8CF3E9
:1021B00011884FF0030CCDE9016700250A9E0096B7
:1021C00080F800C0856001F013FF431C14BF022398
:1021D0000523237085F3118805B0F0BD00000000D1
:1021E00001F086BF000000000000000000000000B9
:1021F0000122002302704360704700BF000000000E
:1022000010B52023044683F31188416001F090FF4C
:1022100002232370002383F3118810BD0000000007
:1022200010B52023044683F3118801F0B9FF03237E
:102230002370002383F3118810BD00BF000000004D
:102240000C30FFF795BD00BF00000000000000004B
:102250000C304FF0FF33FFF78BBD00BF00000000D4
:102260003030FFF735BE00BF000000000000000066
:1022700030304FF0FF33FFF72BBE00BF00000000EF
:102280000C30FFF745BD00BF00000000000000005B
:102290000C304FF0FF31FFF73BBD00BF00000000E6
:1022A0003030FFF7CDBD00BF00000000000000008F
:1022B00030304FF0FF32FFF7C3BD00BF0000000019
:1022C00002F0E6B80000000000000000000000007E
:1022D000F0B583B0044600900C4F27600026012023
:1022E00015460B46207204F1540104F10C0066609F
:1022F0004022FFF7DDFC00942B4604F1940104F129
:1023000030004022FFF78CFD03B0F0BD0CDD00086B
:10231000436910B504461BB9436843F004034360A6
:1023200004F10C00FFF7D4FC002800DB10BD63684B
:1023300043F08003636010BD000000000000000057
:1023400010B5046BD4F8842113681978042982B07D
:1023500002D1217A022901D002B010BD11791A8967
:1023600001238B401342F7D101A904F14000FFF78C
:102370006FFB02460028EFD0D4F88401019B01795D
:10238000006800F075FAE7E70000000000000000B8
:1023900010B5046BD4F8842113681978042902D18C
:1023A000217A022900D010BD51795A8901238B402E
:1023B0001342F8D104F10C00FFF722FA0028F2D002
:1023C000D4F88431024659791868BDE8104040239A
:1023D00000F036BA0000000000000000000000001D
:1023E00010B4D0F8844124682478042C03D0002051
:1023F0005DF8044B70470C305DF8044BFFF778BA7A
:10240000D0F884311B681B78042B01D00020704762
:102410000C304FF0FF33FFF76BBA00BF0000000035
:1024200010B4D0F8844124682478042C03D0002010
:102430005DF8044B704740305DF8044BFFF788BBF4
:10244000D0F884311B681B78042B01D00020704722
:1024500040304FF0FF33FFF77BBB00BF00000000B0
:10246000D0F884311B681B78042B02D10C30FFF7A5
:102470001FBA6FF00100704700000000000000006C
:10248000D0F884311B681B78042B04D10C304FF03A
:10249000FF31FFF70DBA6FF0010070470000000038
:1024A000D0F884311B681B78042B02D14030FFF731
:1024B00027BB6FF001007047000000000000000023
:1024C000D0F884311B681B78042B04D140304FF0C6
:1024D000FF32FFF715BB6FF00100704700000000EE
:1024E000704700BF00000000000000000000000076
:1024F00010B5044682B00F480F4B01940021012211
:1025000020606160227204F1740104F10C000093F8
:1025100040220223FFF74CF9084B0093019404F189
:10252000FC0104F1400002234022FFF769FA02B0E7
:1025300010BD00BF2CDD00089123000841230008D6
:102540000B68202282F311880A7903EB82029062E1
:102550004A79113243F822008A7912B103EB8203DF
:10256000986202230372C0F88411002383F3118858
:10257000704700BF000000000000000000000000E5
:1025800010B504460C30636843F002036360FFF744
:1025900027F904F14000BDE81040FFF749BA00BF39
:1025A00070B500F10C0504462846FFF719F904F14F
:1025B0004000FFF73DFA636843F00103636028467B
:1025C000FFF71EF9D4F88431024659791868BDE83E
:1025D0007040402300F034B900000000000000000B
:1025E00090F8743003F06003202B01D00020704776
:1025F00090F87530202BF9D3212B07D8074B836631
:1026000007220023C0E91B2301207047222BEDD1B4
:102610000023C0E91A33036701207047000400203B
:10262000D0F8842113681978042902D1017A02298B
:1026300000D0704711791A8901238B401342F8D1D9
:1026400030B500F1400583B004462846FFF708FB8B
:1026500008B903B030BD01A92846FFF7F9F9D4F84D
:102660008441019B21790246206800F001F9F0E7DE
:10267000F0B500EB810383B09C6AE4B10E460546D9
:10268000202282F31188D96862684969096842F09A
:10269000080262601F464034F9B9204601A9FFF7DD
:1026A000D7F950B1024631462846019B00F0E0F8C8
:1026B000002383F3118803B0F0BDFB685A691268E8
:1026C000002AF5D01B8A013B1340F1D1314605F1B8
:1026D0007402284600F0CCF8EAE72046FFF7C8F974
:1026E000DBE700BF00000000000000000000000069
:1026F000113138B550F821401CB3202383F31188E1
:102700006368D4F8842143F004036360517913684B
:1027100003EB810304F10C05DB689B6928465968CB
:10272000FFF77EF82846FFF76BF838B1D4F884310C
:10273000024659791868402300F082F8002383F399
:10274000118838BD000000000000000000000000FB
:10275000704700BF00000000000000000000000003
:1027600001F056BD00000000000000000000000065
:102770000122002302704360704700BF0000000088
:1027800010B5044690F8763080F87E3002F030F8CC
:1027900063681B6813B10121204698470323237007
:1027A00010BD00BF0000000000000000000000009D
:1027B00001F0EEBF0000000000000000000000007B
:1027C000012300220370426000F12C0300F1480154
:1027D00043F8042B8B429A61FAD18260704700BFA4
:1027E00038B50446202383F3118800254160C0E9F1
:1027F0000355C0E90555C0E90755C0E9095501F081
:10280000CFFF0223237085F3118838BD000000003C
:1028100010B4536900EB8104E26023B100241C6012
:102820005C609C60DC60936923B100221A605A608E
:102830009A60DA605DF8044B01F0EABF0000000026
:10284000F0B400EB81044789D4F80CC00124DCF813
:1028500018508C403C4300274481AA60C5E90037EA
:10286000F0BC02F0A5B800BF0000000000000000AE
:10287000F0B400EB81040789D4F80CC00124DCF823
:1028800014508C403C4300270481AA60C5E90037FE
:10289000F0BC02F0B5B800BF00000000000000006E
:1028A00070B50223002504460370C567C0E90255D0
:1028B000C0E90455C0E90655C0E90855856280F8AD
:1028C000645002F015F863681B6823B1294620465E
:1028D000BDE87040184770BD000000000000000017
:1028E00042681368052101700BB103211847704736
:1028F000426813680421017003B11847704700BF94
:1029000070B50023044680F8643000F1740202F0D0
:102910002FF863689B6823B32046984708B3E56E99
:1029200094F8740094F87B2094F87A3043EA0223F8
:10293000AB423CBFE3661D46020600F18A80002DD3
:1029400065D0042384F86430202383F311880021A8
:10295000D4E91A232046FFF773FF002383F311887D
:1029600070BD94F8740010F0600630D194F87530A2
:1029700000F07F0545EA0325B5F5407F00F0C080F3
:1029800016D9B5F5C06F00F0DC8032D9B5F5106FFF
:1029900000F0F08040F602439D4253D0B5F5006F41
:1029A00015D104F17F0301252667C4E91A35B9E77B
:1029B000022D00F081803AD9B5F5807F00F091803A
:1029C000B5F5817F03D194F87630002B62D00021D9
:1029D000204602F055F80021204602F039F86368DD
:1029E0001B6813B1052120469847062384F86430FC
:1029F00070BD40F202339D4200F09180B5F5A06FAA
:102A0000E5D1C4E91A666F4B2367030632D4052368
:102A100084F86430202383F3118800231A46194672
:102A20002046FFF725FF002383F3118870BD3DB9D1
:102A3000022304F17C022567C4E91A231D4671E7CD
:102A4000012DC4D1604BA36602250023C4E91B53AA
:102A500068E77DB1012384F86430202383F3118873
:102A60000021D4E91A232046FFF702FF002383F355
:102A7000118870BD032384F86430202383F3118808
:102A800000231A4619462046FFF7DAFE002383F397
:102A9000118870BD94F8783013F00F0107D01E062E
:102AA000204600F1858002F003F894F874000023BA
:102AB000C4E91A332367A8E794F8783003F00F01CC
:102AC0001B06204669D401F033FF012869D0022893
:102AD0007FF47DAF3D4BA366C4E91B5694F87400A8
:102AE00020E794F87630012B7FF471AFB4F87C3096
:102AF000A66623F00203C4E91B66A4F87C3084E7D1
:102B000094F87630012B7FF462AFB4F87C30A6667F
:102B100043F00203C4E91B66A4F87C3075E794F81F
:102B20007630002B7FF453AF94F8783013F00F0118
:102B3000BDD01D06204640D401F08AFF94F87400F1
:102B4000B5E794F87900616894F878304D6894F8A6
:102B5000762094F8771043EA00232046A8470028FF
:102B60003FF435AFD0E900532667C4E91A3594F82D
:102B70007400D7E6626894F8763084F87F30002BD2
:102B800013680CBF032204222270002B8FD0204632
:102B90000221984794F8740089E701F0D9FE0128D2
:102BA00095D10B4BA366C4E91B5694F87400B9E6A3
:102BB00001F096FF94F8740079E701F061FF94F852
:102BC000740074E78127000854DD00084CDD00081C
:102BD00050DD0008000000000000000000000000C0
:102BE00038B590F864300446062B15D8DFE803F0BA
:102BF0000415250404350400002101F041FF0021E3
:102C0000204601F025FF63681B6813B105212046AB
:102C10009847062384F8643038BD90F87B1090F80C
:102C20007A30C26E43EA01239A4206D2C3681B8AF5
:102C3000B2FBF3F503FB1525B5B1032384F864302B
:102C4000202383F3118800231A4619462046FFF7F4
:102C5000F7FD002383F3118838BD036F03B1984754
:102C6000002384F8643038BD202383F311882B4679
:102C70002A462946FFF7FCFD85F31188022384F8D4
:102C8000643038BD000000000000000000000000BB
:102C900090F86420062A14D838B50123934013F025
:102CA000670F04461ED113F008050BD0C3689B695B
:102CB0005B682BB9036F03B19847002384F8643035
:102CC00038BD7047DB06FBD5052380F86430202330
:102CD00083F311882B462A462946FFF7C9FD85F361
:102CE000118838BD002101F0CBFE0021204601F003
:102CF000AFFE63681B6813B1052120469847062381
:102D000084F8643038BD00BF0000000000000000FF
:102D1000430910B49B0000F1604404F5614403F1E1
:102D20006043090103F5614300F01F000122C9B2AD
:102D300084F8001302FA00F0C3F880015DF8044B38
:102D40001860704700000000000000000000000054
:102D500010B50E4C4FF0FF320023A16AA262A362AD
:102D6000216922612361E168E260E360E36943F085
:102D70008053E36100F07CF9A369054A43F0010345
:102D8000A361136843F02003136010BD00100240DC
:102D900000000140000000000000000000000000F2
:102DA0001F4A136843F00103136013689807FCD5AA
:102DB00053681B4923F003035360536853604B6807
:102DC00013F00C03FBD10868154A00F0F900086005
:102DD0004B600B6843F480330B6013689903FCD598
:102DE000104B536042F210113023D1621363136809
:102DF0000B4943F0807313600B689B01FCD50A4BB1
:102E0000074A122018604B6843F002034B60536876
:102E100003F00C03082BFAD1136B1363704700BF48
:102E20000010024000041D070020024000000000C6
:102E300008B5074B196811F00F0105D0054A596014
:102E400013680BB150689847BDE80840FEF738BCDE
:102E500000000240FC06002000000000000000000E
:102E6000094B1968C1F3031159B10848826810B5BC
:102E70000C015C600AB1C0689047BDE81040FEF7E5
:102E80001FBCFEF71DBC00BF00000240FC06002076
:102E9000094B1968C1F3032159B10848026910B5FB
:102EA0000C025C600AB140699047BDE81040FEF733
:102EB00007BCFEF705BC00BF00000240FC06002076
:102EC000094B1968C1F3033159B10848826910B53B
:102ED0000C035C600AB1C0699047BDE81040FEF782
:102EE000EFBBFEF7EDBB00BF00000240FC06002078
:102EF000094B1968C1F3034159B10848026A10B57A
:102F00000C045C600AB1406A9047BDE81040FEF7CF
:102F1000D7BBFEF7D5BB00BF00000240FC06002077
:102F2000094B1968C1F3035159B10848826A10B5B9
:102F30000C055C600AB1C06A9047BDE81040FEF71E
:102F4000BFBBFEF7BDBB00BF00000240FC06002077
:102F5000094B1968C1F3036159B10848026B10B5F8
:102F60000C065C600AB1406B9047BDE81040FEF76C
:102F7000A7BBFEF7A5BB00BF00000240FC06002077
:102F800008B5074B196811F00F0105D0054A5960C3
:102F9000936B0BB1D06B9847BDE80840FEF790BB30
:102FA00000040240FC0600200000000000000000B9
:102FB000094B1968C1F3031159B10848026C10B5E7
:102FC0000C015C600AB1406C9047BDE81040FEF710
:102FD00077BBFEF775BB00BF00040240FC06002073
:102FE000094B1968C1F3032159B10848826C10B527
:102FF0000C025C600AB1C06C9047BDE81040FEF75F
:103000005FBBFEF75DBB00BF00040240FC06002072
:10301000094B1968C1F3033159B10848026D10B565
:103020000C035C600AB1406D9047BDE81040FEF7AC
:1030300047BBFEF745BB00BF00040240FC06002072
:10304000094B1968C1F3034159B10848826D10B5A5
:103050000C045C600AB1C06D9047BDE81040FEF7FB
:103060002FBBFEF72DBB00BF00040240FC06002072
:103070000D490E4A0E48002310B40B600D4C194642
:1030800000E05068016044F8331001330C2B02F16A
:103090001402F6D10849094A5DF8044B4FF0FF339A
:1030A0004B605360704700BF5C07002058DD00088C
:1030B00008000240FC06002000000240000402401C
:1030C0002DE9F041DFF89480477CD8F800400126D4
:1030D00006FA07F525423AD11E4E06EBC70C46F814
:1030E0003720CCF80430630604D11B4E736943F0DB
:1030F0000103736114F4786F04D1174E736943F0C0
:1031000002037361D0E900C31E68876826F00F06CA
:103110001E6090F810E00F2606FA0EF6CCF8046058
:103120003C424FF000061E6005D02C43C8F800401A
:103130000020BDE8F081002AF7D00446807CFFF72C
:10314000E7FD637CD8F8004001259D40EDE730465F
:10315000BDE8F081FC060020001002405C07002062
:103160004FF080431A69920701D4FEF7A9BA10B54F
:1031700000241C61202383F31188FDF789FF84F369
:103180001188BDE81040FEF79BBA00BF00000000A8
:103190000F4A1048D36970B443F00103D3618168CA
:1031A0004FF080430022012441F0010141F61F4607
:1031B0004FF0FF3581609E620221DD621C209A6122
:1031C0005A63DA605A605C611C6070BCFFF7A0BD96
:1031D00000100240002004E0000000000000000099
:1031E0002DE9F8431B4D1C4C1C4B1D4F1D4E284612
:1031F0004FF00008C3F8008042F28A59FEF7C8FE7B
:103200004FF0A0432046AB61C5E90776C5F824908E
:103210008C36FEF7BDFE144BA36102211220C4F8C8
:103220002490C4E90776FFF773FD104B5A6942F00A
:1032300080525A619A6A4FF4803142F080529A6209
:10324000C3F82880B9605A6922F080525A61BDE8FB
:10325000F88300BF6007002088070020B007002027
:103260000003005058DD000800010050001002402B
:1032700038B54368002B2DD00378012B00D038BD22
:10328000274B9842044628D0264B984236D0226AD3
:10329000A36961685268086803F1400595600021E0
:1032A0004FF08052C3F8B00099604FF434709A60C8
:1032B000FDF72EFFA3699A6842F000429A609A686F
:1032C000002AFCDB9A6842F001029A601A68D20771
:1032D000FCD538BD144B4360CEE70346134A006A61
:1032E0000521FFF7EDFE1249124A0B6843F0010376
:1032F0000B60536943F080535361C8E703460B4AA0
:10330000006A0521FFF7DCFE09490A4A0B6843F011
:1033100002030B60536943F080535361B7E700BF6A
:10332000600700208807002048DE000801340008FC
:10333000B007002000100240000000000000000064
:103340000269C3681178F0B4466AD56800292CD1A7
:1033500045F00105046A518864688768E76003FBEB
:1033600001F36360266026688369D2F81CC0106987
:10337000576946F0010626601C681C609024966917
:103380005C60146A1862D2E90902013941EA0C0151
:103390005F619E6119635C639863DA63DD609A68BC
:1033A00042F004029A60F0BC7047012B45F003051F
:1033B00094BF46F0200646F02406CBE7000000004C
:1033C000016A836930B4D1E90054206820F00F000D
:1033D0002060097C0F228A406A609A68510706D5EE
:1033E0009A6842F010029A609A68D206FCD430BC07
:1033F000704700BF00000000000000000000000057
:1034000070B50E07044616D4036983B38D072FD514
:103410001A78002A37D05D684DB3D0E90212012A2C
:1034200050D95B88520802FB03F301EB43012B46A2
:10343000BDE870401847FFF7C3FF23699B684BB195
:10344000052222700021204698472378052B04BFCF
:103450000223237000252561202383F311884FF078
:10346000FF3104F11400FEF7BBF885F3118870BD3D
:103470004A07FCD55B68002BF9D0D0E90212BDE801
:10348000704052081847FFF79BFF23695B68A3B1A0
:10349000042222702046D4E9021298472378042B94
:1034A0000BD0202383F31188002104F11400FEF7D0
:1034B00097F8002383F3118870BD02220023227045
:1034C0002361EEE72B46BDE870401847000000007E
:1034D000C269936843F080739360704700000000F6
:1034E000FFF7F6BF00000000000000000000000031
:1034F00038B5064D064C2846FEF7BAFD054BEB6184
:103500002046FEF7B5FD044BE36138BDB40700204B
:10351000D40700204CDE000868DE00080000000030
:1035200003699B78012B10D03BB1022B04D1C369F6
:103530001B68B1B91A6170477047C069036871B9F7
:103540000833416843F821207047C069036821B9F6
:103550000C33416843F8212070479A6170475A61E3
:103560007047DA61704700BF0000000000000000F3
:103570000378012B00D070470F4B984270B414D0E1
:103580000E4B984211D0C36902691968DE680C6855
:103590009D68128834400C600C680123AB402343C3
:1035A0000B6070BC0021FFF7BBBF054AD36943F035
:1035B0000053D361E7E700BFB4070020D407002021
:1035C00000100240000000000000000000000000A9
:1035D0000148FEF775BD00BFF407002000000000A1
:1035E00001F01F0301220F29F0B402FA03F33AD8C5
:1035F00021F00304426804F1804404F5803452F859
:103600003120A66801F00305AD000F27AF40C2F3DB
:10361000031226EA0706AA403243A26013F0FC5FB9
:103620001FD140682B4D50F83120AC68D70700EB14
:10363000C1016FEA03004CBF1C430440AC60254C41
:1036400012F0020FE26814BF1A430240E2604A68B7
:10365000002A2ED01F4A11680B431360536818408C
:103660005060F0BC70471F29D8D933F00302F8D15D
:103670004068184D50F83120AC6AD60700EBC10104
:103680006FEA03004CBF1C430440AC62114C12F0C3
:10369000020FE26A14BF1A430240E2624A6882B132
:1036A0000C4A116A0B431362536A18405062F0BC13
:1036B0007047084A51680B43536013681840106004
:1036C000CFE7044A516A0B435362136A18401062F1
:1036D000C7E700BF00040140000000000000000038
:1036E00001F01F0301229A401F296FEA02000F4BCD
:1036F0000DD81968014019605968014059609968EE
:1037000001409960D9680840D8605A617047196AC9
:1037100001401962596A01405962996A01409962EF
:10372000D96A0840D8625A63704700BF000401405C
:1037300038B50378012B054614D0002404E0013489
:10374000FFF74EFF222C0CD06B6853F8343013F087
:10375000040F21462846F2D10134FFF7C1FF222C85
:10376000F2D138BD00F0E4F9E7E700BF0000000047
:10377000084A08B5516913680B4003F0010353610F
:1037800023B10548436800215B689847BDE80840BD
:10379000FDF796BF00040140F40700200000000080
:1037A000084A08B5516913680B4003F002035361DE
:1037B00023B1054843680121DB689847BDE808400C
:1037C000FDF77EBF00040140F40700200000000068
:1037D000084A08B5516913680B4003F004035361AC
:1037E00023B10548436802215B699847BDE808405A
:1037F000FDF766BF00040140F40700200000000050
:10380000084A08B5516913680B4003F00803536177
:1038100023B1054843680321DB699847BDE80840A8
:10382000FDF74EBF00040140F40700200000000037
:10383000084A08B5516913680B4003F0100353613F
:1038400023B10548436804215B6A9847BDE80840F6
:10385000FDF736BF00040140F4070020000000001F
:10386000174B10B55A691C68144004F478725A61F9
:10387000A30604D5134843680521DB6A9847600610
:1038800004D51048436806215B6B9847210604D590
:103890000C4843680721DB6B9847E20504D50948CB
:1038A000436808215B6C9847A30504D50548436825
:1038B0000921DB6C9847BDE81040FDF701BF00BF50
:1038C00000040140F4070020000000000000000098
:1038D0001A4B10B55A691C68144004F47C425A61B2
:1038E000620504D5164843680A215B6D9847230595
:1038F00004D5134843680B21DB6D9847E00404D5D9
:103900000F4843680C215B6E9847A10404D50C480E
:1039100043680D21DB6E9847620404D5084843686C
:103920000E215B6F9847230404D5054843680F2197
:10393000DB6F9847BDE81040FDF7C2BE00040140B0
:10394000F40700200000000000000000000000005C
:10395000094A08B5516913680B4003F48033536179
:103960002BB1064843681021D3F884309847BDE84E
:103970000840FDF7A5BE00BF00040140F407002089
:10398000094A08B5516913680B4003F400335361C9
:103990002BB1064843681121D3F88C309847BDE815
:1039A0000840FDF78DBE00BF00040140F407002071
:1039B000094A08B5516913680B4003F48023536129
:1039C0002BB1064843681221D3F894309847BDE8DC
:1039D0000840FDF775BE00BF00040140F407002059
:1039E000094A08B5516913680B4003F40023536179
:1039F0002BB1064843681321D3F89C309847BDE8A3
:103A00000840FDF75DBE00BF00040140F407002040
:103A1000094A08B5516913680B4003F480135361D8
:103A20002BB1064843681421D3F8A4309847BDE869
:103A30000840FDF745BE00BF00040140F407002028
:103A4000114B124A596910B51C680C402240A10262
:103A50005A6105D50E4843681521D3F8AC30984714
:103A6000620205D50A4843681621D3F8B430984756
:103A7000A30005D5064843681D21D3F8EC309847CC
:103A8000BDE81040FDF71CBE0004014000006020AE
:103A9000F40700200000000000000000000000000B
:103AA000144A516913680B4010B503F040445B00A1
:103AB000546105D5104843681E21D3F8F430984767
:103AC000002C05DA0C4843681F21D3F8FC309847D6
:103AD000084A536B116A0B4003F0010353632BB187
:103AE000054843682021D3F804319847BDE81040C9
:103AF000FDF7E6BD00040140F407002000000000CF
:103B0000084A08B5536B136803F0020353632BB1E3
:103B1000054843682121D3F80C319847BDE8084097
:103B2000FDF7CEBD00040140F407002000000000B6
:103B3000062108B50846FFF7EBF806210720FFF736
:103B4000E7F806210820FFF7E3F806210920FFF730
:103B5000DFF806210A20FFF7DBF806211720FFF720
:103B6000D7F806212820FFF7D3F803210120FFF71B
:103B7000CFF803212920FFF7CBF806214C20FFF7CF
:103B8000C7F806210220FFF7C3F806210320FFF73C
:103B9000BFF806214020FFF7BBF806214120FFF7C0
:103BA000B7F806214220BDE80840FFF7B1B800BFD2
:103BB00070B4D1E90123D1E903654C6942608360A7
:103BC0008A690B68C66045610462426270BC03602A
:103BD000704700BF0000000000000000000000006F
:103BE000134A536943F4FC0310B50146044653617C
:103BF0004FF09040FFF7DCFF04F11C010D48FFF788
:103C0000D7FF04F138010C48FFF7D2FF04F154014B
:103C10000A48FFF7CDFF04F170010948FFF7C8FF1C
:103C200004F18C010748BDE81040FFF7C1BF00BF99
:103C3000001002400004004800080048000C004842
:103C400000100048001400480000000000000000C0
:103C50002DE9F04FC2F3411C02F00307C2F38008C4
:103C6000C2F3C10E0025C2F3C3124FF0010A4FF098
:103C7000030915E0D0F800B003EA0B033B43072D1E
:103C8000036043D8036A1E403443046249083BD0B2
:103C90004FEA48084FEA8E0E4FEA8C0CBF00013500
:103CA000CB07F3D543680AFA05F423EA040343EA91
:103CB000080343606B00846809FA03F3DB431C408C
:103CC00044EA0E048460C66805F00704A4001E40A0
:103CD0004FF00F0B46EA0C060BFA04FB022FC660EE
:103CE00002FA04F46FEA0B06C4D1072D13D8D0F8FA
:103CF00020B00BEA0606344304620468234043F014
:103D0000020349080360C3D1BDE8F08F436A1E4037
:103D100034434462BAE7D0F824B00BEA06063443D1
:103D20004462EAE70000000000000000000000001C
:103D3000D0E9073140684A688068FF2B94BF1B04B4
:103D40004FF47F0322F0FF7243EA000322F4803233
:103D500010B443EA020394BF00244FF0807423435D
:103D600043F480634B605DF8044B70470000000033
:103D700030B4046A436862684169986822F0FF734E
:103D8000FF2923F4803394BF00254FF0807543EA68
:103D9000000343EA050394BF09044FF47F010B437A
:103DA000636030BC704700BF0000000000000000EE
:103DB00038B5494D2C6AA36903F0FE02D806E261CA
:103DC00060D429782268032936D0500707D4190611
:103DD0007BD45A061AD4BDE83840FDF771BC5907A8
:103DE000F5D5AA69616A1170D5E906120131013A67
:103DF000C5E906121AB9226822F0040222601A06E6
:103E00005CD45B06E7D52B78032B2AD0636843F498
:103E100080436360236823F040032360202383F3FF
:103E2000118800212D48FDF7DBFB002383F3118867
:103E3000BDE83840FDF744BC91070ED59A070CD574
:103E4000D5E9041211F8010BA062013AC5E9041288
:103E50001AB9226822F002022260180631D45B06E9
:103E6000B9D5EB69002BD1D01B48FFF761FF236860
:103E700043F0040323606368042243F40053636047
:103E80002A70A8E76368AA6843F4804342F00402FA
:103E9000AA606360236823F046032360202383F332
:103EA00011886FF0010105F10C00FDF799FB00236B
:103EB00083F31188BDE83840FDF702BC2B78032B53
:103EC00003D10548FFF754FF85E70348FFF730FFAC
:103ED000BDE83840FDF7F4BBFC07002008080020CF
:103EE0001B49086A8B68826910B502F47C54C4616E
:103EF000046824F006040460D40544BF43F00103C1
:103F00008B60900544BF43F002038B6002F4805045
:103F1000520515D543F008038B6010B143F0200320
:103F20008B60202383F311886FF001010948FDF7AE
:103F300057FB002383F31188BDE81040FDF7C0BB99
:103F40000028EBD1002BECD1BDE81040FDF7B8BB49
:103F5000FC0700200808002000000000000000000E
:103F600010B5044C2046FEF703F90022024BE26034
:103F7000236210BDFC070020005400400000000038
:103F800038B5046A02782368012A23F00103054644
:103F900023600BD06A68D2E9002343F090032360CA
:103FA0002261236843F00103236038BD0B4B984224
:103FB000F0D10B4B1A69002142F400121A61196109
:103FC000DA6942F40012DA6103211F20FEF7A0FE35
:103FD00003212020FEF79CFEDCE700BFFC07002049
:103FE000001002400000000000000000000000007F
:103FF000F8B50024056A8460079F84F311884FF0A8
:104000008046C0E90423069BD6F824C0C0E90637E1
:10401000202787F31188AB691B0415D5736AA3EBBE
:104020000C03B3F5FA7F2BD22246344605E0636ACF
:10403000A3EB0C03B3F5FA7F22D282F3118887F346
:104040001188AB691E04F2D44368026A9B681F059D
:1040500013D551600446FFF78BFE2B68089943F097
:1040600042032B606B6843F400536B6004F10C0057
:10407000FDF7A6FA431C06D0F8BD49005160E9E7F8
:104080004FF0FF30F8BD6B6843F480436B60F8BDC0
:104090000A0770B50C4605461FD414F0020110D073
:1040A0006A68136953B19268042052082870114657
:1040B000284698472B78042B00D070BD02232B7024
:1040C00070BD6307F9D56A681369002BF5D0926853
:1040D00028465208BDE8704018470248FCF7D0FF58
:1040E000DBE700BF84DE00080000000000000000E5
:1040F00010B5094C2046FEF77BF8084B0849A36031
:104100004FF48070002341F2AE52C4E90401E26131
:10411000E360A361236210BD200800200038004046
:1041200094DD000800000000000000000000000016
:1041300038B50578012D044614D06068238AB0F99B
:104140001450B0F91600D4E902122B4343F4006373
:104150000862CB612AB1638A10622B4343F4006387
:10416000D36138BD0A4B9842E7D10A490A4ACB6964
:10417000406943F48043CB6123460321FEF7A0FF4F
:10418000A368002103F10C0219605D606262D4E74C
:1041900020080020001002409140000800000000AC
:1041A0004268938A916803F0060330B403B1490072
:1041B00043695BB15B68C469456A1C6054689D6073
:1041C000DC6059601C6844F001041C6083695BB1C9
:1041D0005B681268056A846A1D609C60DA605960D9
:1041E0001A6842F001021A60D0E90212CB6943F466
:1041F0008063CB611AB1D36943F48063D36130BC6F
:10420000704700BF00000000000000000000000038
:1042100010B5094C2046FEF7ABFA084B084AA260DD
:1042200003F1140041F20A0141F21802C4E903301B
:10423000C4E9051210BD00BF4C0800206CDD000869
:1042400000300140000000000000000000000000FD
:104250000248034BC360FDF753BF00BF680800204E
:10426000000400400000000000000000000000000A
:1042700038B50378012B044612D0D4E90103C16894
:104280000568E268B3FBF5F3013B84689BB200204C
:1042900021F0FF011060546093621061D16038BD5D
:1042A0000A4B9842E9D10A4BDA6942F00202DA611C
:1042B0001A69002042F002021A61022118611D20D1
:1042C000FEF726FD034BA360D7E700BF6808002078
:1042D0000010024000A24A0400000000000000009C
:1042E0004268C36850680139D962002201215961CE
:1042F0005A621A6110B1DA680A43DA6005221A605C
:10430000704700BF00000000000000000000000037
:10431000C36800221A601A61DA6822F0FF02DA60CC
:10432000704700BF00000000000000000000000017
:104330000378C26810B5042B4FF0000401461461E5
:1043400005D04B6808465B68BDE81040184702235B
:104350000370FFF7DDFFF4E700000000000000003D
:1043600008B50348FFF7E4FFBDE80840FDF7A8B92A
:1043700068080020000000000000000000000000AD
:10438000024A136843F0800313607047003801400D
:10439000F8B53A4DD5F8D4603768F469346223072C
:1043A00030D1E30509D5202383F311886B6843F4EA
:1043B00000736B60002383F31188A00616D43906BE
:1043C00001D5220638D463060CD5202383F3118847
:1043D000D5E911239A423FD027F0400737600023E8
:1043E00083F31188BDE8F840FDF76AB9202383F311
:1043F0001188B18C2148C9B2FDF78AFF002383F3ED
:104400001188DCE714F0080318BF8023E00748BFD9
:1044100043F02003A10748BF43F04003620748BFB1
:1044200043F48073202282F311886A6813436B601F
:10443000002383F31188B4E7202383F31188104805
:10444000FDF726FD00280FDB80B23085002383F3C3
:1044500011886306C6D5B8E7AB6B002BBCD06B6880
:1044600043F010036B60B7E76A6827F0C00342F0BF
:10447000080243F040036A603360E7E778080020F1
:10448000A80800200000000000000000000000005C
:1044900010B5094C094A20460021FDF719FF084ACA
:1044A000084BC4F8D420C4F8D83002212520BDE838
:1044B0001040FEF72DBC00BF7808002081430008A3
:1044C0000038014000A24A04000000000000000083
:1044D0000E4B1B6D03F1804303F5C04303EB00104B
:1044E000002A0368426003F1005303F540534FEA8A
:1044F00043030ADD013A22F0010202320A4431F894
:10450000020B43F8040B8A42F9D17047005C00406B
:104510002DE9F04F984B5D6C6F0587B000F11B8162
:104520002E0500F10C81EC0408D5934B9A6C100415
:1045300040F11881904B6FF480525A64A9050BD555
:10454000DFF838B2DBF80430DB680BB15846984727
:10455000894B6FF400725A642B0440F1DE80DFF85F
:104560001CB2DFF81C92DFF810A230E0398A98689C
:104570008A4228BF0A4600EB0C01C3E90212284612
:10458000FFF7A6FF236823F4F04323F0400383F0F2
:10459000300343F4004343F08003236018F4004FDA
:1045A00010D0236803EA090343F08003E9B218F44A
:1045B000006F2360019138D00BEB86066F4873685B
:1045C0005B689847DAF844502A0440F1A68005F069
:1045D0000F05AC0004F1804404F5B844AE1CD4F8D7
:1045E00000800BEB860318F0800F5F68D6D07B69E4
:1045F0002068D3F80CC0D3E9001200EA0900624435
:1046000040F4004020605A608A1AAFD1BBF80830ED
:10461000BA680121A94023EA0103ABF80830002A57
:10462000BCD0294655489047B8E7DAF85030D7F85B
:1046300018E003F1804303F5C04303EB051340F298
:10464000FE329868DB68DEF80810049300F1005C25
:104650000CF5405CC3F30900134202914FEA4C0C85
:10466000039000F08780831E5B080CF10408881C0F
:104670000199059308EB8308634653F8042B00F86F
:10468000022C43454FEA122200F8012C00F10200EF
:10469000F3D1059B029A019101330CEB830C02EBE1
:1046A00043030293049B03F001031BB1029ADCF85D
:1046B00000301370DEE90102BEF80CC0B7F81280BA
:1046C0000399DEF800300CF1FF3C1FFA8CFC0A4421
:1046D00008445B1A8845AEF80CC0CEE90102CEF85A
:1046E000003002D8BCF1000F1CD10BEB8606BBF8E2
:1046F0000A307068012202FA05F5C46823EA05054C
:10470000ABF80A50002C3FF45DAF01991B48A0475D
:10471000DAF844502A043FF55AAF07B0BDE8F04F2D
:10472000FCF7CEBF236823F4904323F0700383F497
:10473000405343F4004343F08003236042E70E4BB1
:104740000E481A6C6FF4006142F008021A64596452
:10475000FEF7C6F8E7E66FF480625A640748FEF792
:104760009FF8DDE61A6C054822F008021A64FEF78D
:10477000BFF8DFE6039B98E7005C00405409002087
:104780000F07FFFF00000000000000000000000015
:104790000148FEF715B800BF5409002000000000D2
:1047A00038B50378012B00D038BD0D4A904204463D
:1047B00004D02046BDE83840FEF772B809490A4DDA
:1047C000CA6942F40002CA614A202B640D21FEF737
:1047D0009FFA03214B20FEF79BFA00232B64E8E7A6
:1047E0005409002000100240005C0040000000005E
:1047F00090F87E30024A43F08003D364704700BFD4
:10480000005C00400000000000000000000000000C
:1048100000EB810370B4DC68236813F003035BD002
:10482000022B57D9032B0CBF4FF4C0634FF4007316
:104830002B4A6569126D02F1804202F5C04202EB1B
:1048400001126DB1258A00265660D0F880600135CE
:1048500025F001053544C0F8805043F02003166070
:10486000A569B5B1658A3E2D05F1FF3429D844F01C
:1048700001040134640204F47C44D460D0F8804024
:10488000013525F001052544C0F8805043F400535C
:10489000946043EA0102890022F4784201F18041E8
:1048A00001F5B84148F2800022F0F00202430A60AC
:1048B0000A6847F670042340534003430B6070BC02
:1048C000704744F01F040134064E641146EA842404
:1048D000A4B2D2E70023ABE74FF40073A8E700BF10
:1048E000005C00400080FFFF0000000000000000AE
:1048F00041680D4BC96870B400294FF080054FF036
:1049000000011965094C596408BF4FF41C46DD6469
:1049100018BF4FF41E4640251E64C0F88050C46086
:1049200070BCFFF775BF00BF005C004090DE000860
:10493000054B53F8210010F4405004D0B0F5805FCF
:104940000CBF012002207047005C00400000000006
:10495000054B53F8210010F0300003D010280CBF95
:1049600001200220704700BF005C004000000000F2
:104970000B4B1B6D03F1804303F5C04303EB0111A7
:1049800002F108008B6803F1005303F540535B000C
:1049900053F8041B22F8021B9042F9D1704700BF64
:1049A000005C00400000000000000000000000006B
:1049B00000EB8100C06882691368C3B1408A034478
:1049C000013BB3FBF0F39BB2890001F1804101F59B
:1049D000B84193810B6823F4904323F0700383F470
:1049E000405343F4004343F080030B6070470123BE
:1049F000EAE700BF00000000000000000000000027
:104A000038B500EB81030C46DA685369128A1D68D9
:104A1000AA4228BF2A460846DA609968FFF758FD7F
:104A2000A10001F1804101F5B8410B6823F4F04386
:104A300023F0400383F0300343F4004343F080034A
:104A40000B6038BD00000000000000000000000006
:104A5000890001F1804101F5B8410B6823F49043CE
:104A600023F0700383F4805343F4004343F0800346
:104A70000B60704700000000000000000000000014
:104A8000890001F1804101F5B8410B6823F4F0433E
:104A900023F0400383F0100343F4004343F080030A
:104AA0000B607047000000000000000000000000E4
:104AB000890001F1804101F5B8410B6803F44053CE
:104AC000B3F5405F09D00B6823F4F04323F04003B3
:104AD00043F4204343F080030B6070470000000064
:104AE000890001F1804101F5B8410B6803F0300302
:104AF000302B0BD00B6823F4F04323F0400383F0FA
:104B0000200343F4004343F080030B60704700BF71
:104B1000FEF746B9000000000000000000000000A1
:104B2000014B11221A607047002002400000000073
:104B3000F0B400F10B073D46B1FBF2F602FB161490
:104B40000A2C34BF4FF0300C4FF0370C5CFA84F471
:104B5000E4B205F8014D0BB1013B02D1914202D301
:104B600000233146E8E77F1B074401E015F8014FB9
:104B700000F8014BB842F9D1F0BC704700000000CA
:104B8000092970B51A4B0E4628BF0926FCEEC07ADB
:104B900053F82630B8EE677A06EE903A30EE470AC0
:104BA000F8EE666AB6EE007A20EE260A0D4630EE82
:104BB000070ABCEEC07A17EE104AA34205D8E41AE1
:104BC00017EE903A013307EE903A00230A2217EECF
:104BD000901AFFF7ADFF05B970BD2E2300F8013B19
:104BE000214633460A22BDE87040FFF7A1BF00BF4F
:104BF00064DF00080000000000000000000000006A
:104C00000389012B06D943685A1C42601970038935
:104C1000013B0381002070470000000000000000FD
:104C20002DE9F04F2DED048B91468BB0002220230F
:104C3000CDE90123DFEDAC8A9FEDAC8A9FEDAC9A04
:104C400007460C4614F8011B61B1252910D0019AC2
:104C50003B6801329B6801923846984714F8011B63
:104C60000029F2D101980BB0BDEC048BBDE8F08FA8
:104C70000025224614F801ABBAF12D0F10D0BAF17D
:104C80002B0F10D0BAF1300F10D0BAF1200F10D185
:104C9000224614F801ABBAF12D0F45F02005EED1F4
:104CA00045F00205E5E745F00405E2E745F01005AB
:104CB000DFE70132002607E051F8043BDBB289460A
:104CC00012F801AB03EB4006AAF13003DBB2092B6B
:104CD0004946144606EB8600F2D9BAF12A0FEBD00A
:104CE000BAF12E0F00F0678145F040054FF0000843
:104CF000AAF14403342B00F24F81DFE813F0BB002C
:104D00004D0173004D014D01BB004D014D014D01A1
:104D10004D014D0135004D014D014D014D014D013C
:104D20004B014D014D0149014D014D014D014D0119
:104D30004D014D014D014D014D014D013D01BB00A6
:104D40004D0173004D014D01BB004D014D014D0161
:104D50004D014D0135004D01FB004D01D3004D01CA
:104D60004B014D014D01490108220DF1100B0023AB
:104D700059F8041B5846FFF7DBFEDA468046A0EBE5
:104D80000B03F61A57D4E90640F11281302302933F
:104D9000AA0754D5D04540F2A98103963E4627463E
:104DA000019CD34632681BF8011B9268304690473D
:104DB0000BEB0405C345A5EB0A05F3D33C46374688
:104DC000039E002E00F09081DDF808A0B0463B68FD
:104DD00051469B6838469847B8F10108F7D17319D6
:104DE00001932FE709F1070929F00709F9E8020102
:104DF000FBF70EFF00EE100AB5EEC00AF1EE10FA56
:104E000000F10A816B0740F17D812B238DF8103072
:104E10000DF111000DF1100BB4EE680AF1EE10FA6D
:104E200040F00B818046192308F8013BA8EB0B03E7
:104E3000F61ADA46A7D5AA074FF00006AAD415F04D
:104E40002C0F02D0EB0600F1CD80002E00F0648123
:104E5000DDF808B035463B6859469B6838469847A8
:104E6000013DF8D1019BC2453344019338BF2E4622
:104E700093D3E7E659F8041B0029C0F2C280680703
:104E800040F136812B238DF810300DF111000DF11A
:104E9000100B00230A22FFF74BFEDA468046A0EBF8
:104EA0000B036EE759F804AB25F01001BAF1000FBF
:104EB00000F0D2806D069AF8003075D4002B75D0C2
:104EC00008F1FF30B8F1000F70D0D04601E0013397
:104ED00006D018F8012FAAEB08030344002AF6D1E4
:104EE0000D46A8EB0A034CE70000807F00007A44DF
:104EF0006F12833ACA465AF8043BB8F1000F7BD0D0
:104F000008F1FF320D2A34BF42460D2203924FF0C2
:104F100001090DF11D0B58464FF4927C4FF0000E25
:104F20004FF020089A0802EB530202EB121202EB38
:104F3000122202EB1242D20802EB8201A3EB4103E0
:104F4000092B04D90A3B092B02F10102FAD83033AC
:104F5000DBB200F8013C411E002A00F085801CF005
:104F6000010F04D000F8028C811E0EF1010E4FEAF1
:104F70005C0C08461346D5E759F8043B8DF8103011
:104F800025F0100501230DF1100A0DF11108F8E6C6
:104F90001022EAE60A22E8E68DF810A001230DF1BE
:104FA000100A0DF11108ECE6002B5AD10D46D0463F
:104FB00020230293ECE64FF0000805E052F8043B92
:104FC000DBB2914603EB410814F801ABAAF13003C0
:104FD000DBB2092B4A4608EB8801F3D9BAF12A0F54
:104FE000ECD085E6019A3B681AF8011B9B680132F8
:104FF00038460192984728E70D224FF005090392A1
:1050000087E72D2345F0080549428DF810300DF152
:1050100011000DF1100B3CE7B1EE400AB4EE680A46
:105020002D23F1EE10FA45F008058DF810300DF142
:1050300011000DF1100B3FF4F5AEBAF1460F77D029
:1050400015F0400F0CBF41460921FFF799FDDA46E4
:105050008046A0EB0B0394E66B06DFF884A17FF596
:105060002FAF47F6FE7030E7039AABEB010C944587
:1050700088BF9446584A0DF1100B12F80EE088BF15
:1050800049F002090BEB0C085A4605E002F8013B17
:1050900042450FD003780146202B01F10100F5D1E4
:1050A00019F0010F1AD02E2302F8013B424509F0F6
:1050B000FE09EFD119F0040F09D0BEF1200F06D080
:1050C0000CF1010C202388F800300BEB0C0808F8D9
:1050D00001EBD146A8EB0B03DA4652E619F0020FBA
:1050E0001CBF4B78881CD1E70195ABE5019D68E6B4
:1050F000AA0619D520238DF810300DF111000DF1FD
:10510000100BC6E6A8060BD520238DF810300DF144
:1051100011000DF1100B7FE6C245FFF43EAE91E5A4
:105120000DF1100B584677E60DF1100B5846B0E61E
:10513000B4EEC80AF1EE10FA414622DD264B5A7849
:1051400001332AB90AE0B4EEC80AF1EE10FA05DD1F
:1051500013F8012F80EE080A002AF4D113F8013C5D
:10516000FCEEC07A17EE902A092A1BD8023103936D
:10517000FFF706FD039B73B9A0EB0B038046DA46ED
:10518000FFE5F7EE007AB4EEE70AF1EE10FA0DD47F
:1051900001310023E4E78046DA4608F8013BA8EB3A
:1051A0000B03EEE5632A98BF0131E0E70B4B1A7859
:1051B0002AB90AE0B4EEE70AF1EE10FA05D513F8C1
:1051C000012F20EE080A002AF4D1B4EEC90AF1EE4C
:1051D00010FAC3DC0023C3E70804002014040020F5
:1051E0005CDF00080000000000000000000000007C
:1051F0000CB430B50C1E85B016DD09AB0D4D029018
:105200001A460899ADF80C4001A8CDE90035FFF722
:1052100007FD029B002284421A7000DC601E05B06C
:10522000BDE8304002B07047002005B0BDE8304016
:1052300002B070478CDF0008000000000000000092
:10524000022906D0032906D00129074818BF0020EB
:10525000704706487047032A03D8054800EBC20090
:1052600070470020704700BF48E00008FCDF0008DE
:10527000D0E0000800000000000000000000000076
:1052800008B5202383F311880348FDF7C9F90023EB
:1052900083F3118808BD00BFF00900200000000062
:1052A000022938B50C460BD0032908D1202383F3FB
:1052B00011880D48FDF764F9002383F3118838BD88
:1052C0000546202383F31188084A0121FDF7A0FA3F
:1052D00021462846064AFDF79BFA0348FDF760F988
:1052E000002383F3118838BDF00900209CDF0008FB
:1052F000C0DF000800000000000000000000000007
:105300009FED107ADFED103AF7EE007A20EE004ABA
:10531000F0EE674AB0EE470AB1EE005A37EE247A53
:1053200030EE270A67EE056A20EE236A66EE876A8A
:10533000C4EE265A67EEA57AB4EEE76AF1EE10FAEB
:10534000ECD470470000000017B7D138000000000F
:10535000024A137823F0010313707047BC04002045
:1053600070B40B78027800247C2B10D09A4212D1B2
:1053700052B1064611F8013F16F8015F7C2B07D0A9
:10538000AB4208D1002BF5D1204670BC70471546C2
:10539000002DF9D00B782BB17C2B11F8015F04D0D4
:1053A0002B46F8E74FF0FF34EEE701342B46DBE7FE
:1053B000094B002003F1300113F8022C1AB11A78BE
:1053C0002AB940F001000C339942F5D17047012A07
:1053D00008BF40F00200F6E7664A00200000000027
:1053E000F0B5114F561E091A3C464FEA820EB1FB2A
:1053F000F6FC730806FB1C117744254645F8040BA0
:105400000B449E429CBF01309B1BBD426044F5D1C2
:10541000B2F5C87F07D8054904EB0E03002243F814
:10542000042B8B42FBD1F0BDE84A00202C51002018
:1054300030B42C4DAC89002C4CD005EBC4042A466A
:1054400005F6984105F5C953B7EE004A18E034EE69
:10545000477A67EE855A27EE266A27EE277A66EEA8
:10546000857A76EE656A77EE277A0832A242C3ED36
:10547000006AC3ED017A01F1080103F1080329D0A4
:10548000D3ED006AD2ED044AD3ED017A92ED056ABC
:10549000D1ED015A91ED007A0128B1EE655A76EE10
:1054A000E46A77EEC67AD2D037EE047A27EEA55AB0
:1054B00026EE876A27EE877A66EEA57A76EE456A4B
:1054C00077EE277AB0F1FF3F04BFF1EE666AF1EEA6
:1054D000677ACAE7EB8923F0040343F04003EB81CA
:1054E00030BC7047A80B0020000000000000000046
:1054F00070B40B4943F611728B5C03F001048442D3
:105500000BD0084D084E2C7823F0010303438B5435
:1055100044F00A0400232C70B37070BC704700BFC5
:10552000A80B0020446A0020E004002000000000D6
:105530002DE9F04F2DED028B89B007F069FC0028B2
:1055400072D003469B485C68D0F80090A14500F0FB
:105550000381994A01929689002E5BD0A14580F083
:10556000248103F57A579446283786460022194647
:105570006546D1F81080C5F81080D1F81480C5F8C0
:10558000148001F68841B94205F68845F1D101320F
:10559000B2423FD05EF8041F8C420CF1080CE6D8F2
:1055A00089469F899968013F091B0691B1FBF7F86D
:1055B0007D0807FB181BB9F1000F2BD003F57A56B5
:1055C000511C00EB810106F128000593079000268D
:1055D000F7EE008A0B46B7420FD9A14508EB040A43
:1055E00001D3CA4525D85D44AF4206F101069CBFF0
:1055F0000134ED1BBE424444EFD10199B742898981
:105600006AD001328A4204D253F8049BB9F1000FE8
:10561000E1D1059B6949DA890B78019842F400725F
:1056200043F00403C2810B7009B0BDEC028BBDE8EE
:10563000F08F06998F426DD8A9EB040107EE901AFE
:1056400007EE108AF8EE677AB8EE477A87EE878A17
:105650002046CDE9032302F0DBFC0290504602F025
:10566000D7FC02998142DDE9032356D178EEC86A5E
:1056700006F1010CB64605994FEACE0E01EB0E0974
:1056800001EBCC0007998E44019901EBC20C49460D
:10569000D1ED047A90ED047A66EEA77A28EE077AC7
:1056A00077EE877ACCED047AD1ED057A90ED057A24
:1056B00066EEA77A28EE077A01F6884177EE877AB8
:1056C0007145CCED057A00F688400CF6884CDFD1A8
:1056D0000199B742898994D18A42059B9AD201984F
:1056E00003F57A55FF0028353D4400EBC20200EB7C
:1056F000C1061F44104639460C6904614C69446177
:1057000001F688418D4200F68840F5D10832964274
:10571000F0D17FE79FED2A8A9AE74846CDE9022338
:1057200002F076FC8146204602F072FC8145DDE9FC
:10573000022308D038EE688A06F1010E78EEC86AB6
:1057400006F1020C97E7B6B138EE288A06F1FF3E63
:1057500078EEC86AB4468EE79F8999687A1E50F839
:1057600022208A420FD0144A01929289002A3FF4E3
:1057700051AF002217E79FED128AB646F7EE006A96
:105780004FF0010C77E703F1100143F6A8620D48D2
:10579000019308F025FA0949019B0A780648DB893C
:1057A000C38142F004030B703EE700229F89996891
:1057B000F9E600BFE84A0020A80B0020446A002058
:1057C00000000000B80B00200000000000000000F6
:1057D00038B5124C23889BB2ABB14FF080431048D0
:1057E0005B6A006898420ED80E4B9B8A0846218857
:1057F0009D1C8D420FD0218801338B4204DA23880F
:10580000013B9BB2238038BD074B114603EB4000A0
:1058100002F04EFEF3E702F0D3FEF0E7C87100207D
:10582000406A002020040020486A00200000000098
:105830002DE9F04FAA4EAB4DB2892B889A4285B024
:1058400052D9002854D12880A74B02904FF400521F
:105850005A830F200F4607F02BF82B88B289DFF808
:1058600098829A4240F2CC8007F00102009207F041
:105870000202DFF888B2DFF888A2DFF888929B4C3A
:105880000192322707E001339BB28B422B804FF00D
:10589000000780F0B5805AF823009BF8001002F052
:1058A000D7FB009A0346002A40F08680019A2ABB63
:1058B00099F800301BB1029B002B40F0A180B8F892
:1058C00014202B88B189262ADDD9C3EBC30303EB4F
:1058D00083120139012392FBF1F21420002106F01A
:1058E00087FE2B88B189CEE700232B800028ABD020
:1058F0000029A9D1084605B0BDE8F08F0120039327
:1059000002F07EFD4FF08041B8F81420496A039BF5
:105910000F44023276493B4492B20B6022802388C6
:105920009BB223B130BF23889BB2002BFAD12888C9
:10593000704B00F2911003EBC00002F0F9FDF38907
:10594000DB05B5D52B886B49DA0006EB020C0CF5AC
:1059500048570846D7ED0D6A0A4403F2466703F23A
:10596000911100EBC10102F68C4206EBC707D2EDA4
:10597000007A91ED007AD7ED005A03F2B5430CF5A9
:10598000165006EBC30377EEE67A37EE657AD0ED74
:105990000B6A93ED006A67EEA65A67EE266A67EE19
:1059A000867A27EE067A77EEA67A37EE657A81ED6B
:1059B000007AC2ED007A7BE70390002002F020FD20
:1059C0004FF08041039B496AB8F814203B440B44D4
:1059D0000232474992B20B60228023889BB223B1E6
:1059E00030BF23889BB2002BFAD1424B288803EBAF
:1059F000C00002F09DFDF389DA0515D4032355E7B5
:105A0000022006F055FFB8F81430262B5FD8364B2D
:105A1000B1894FF400521A832888081AB0FA80F02E
:105A2000400905B0BDE8F08F2B883249DA001144F7
:105A300006EBC3000246D0ED047A90ED056A91EDC5
:105A4000007AD1ED016A03F2931002F69C4C06EB4A
:105A5000C00037EE677AD0ED005A9CED005A03F58E
:105A6000497306EBC30302F5C95276EEC66A67EEC8
:105A7000257A27EE056A93ED004AD2ED014A66EEDB
:105A8000A55A26EE855A36EE246A77EE847A36EEEB
:105A9000256A77EEC57A66EE064A67EEA75A27EEC4
:105AA000275A27EE067A66EEA77A66EE866A77EEC2
:105AB000C77A35EEA46A75EE266A87EE867A0323E6
:105AC000C6EE865A81ED017AC1ED005AEEE6012359
:105AD00040F2C7120021142006F08AFD97E700BFAC
