:020000040800F2
:1000000000010020C1000008D10C0008816F000829
:1000100031070008310700083107000831070008E0
:1000200031070008310700083107000831070008D0
:1000300031070008310700083107000831070008C0
:1000400031070008E12700082128000831070008CF
:100050003107000891260008D12600081127000862
:1000600031070008D1230008A1210008112200084F
:1000700091C600083107000831070008E124000894
:100080001130000831070008310700083107000867
:10009000310700083107000831070008B12A0008BD
:1000A0003107000831070008310700084130000817
:1000B000310700083107000831070008C131000886
:1000C00072B6224880F30988022080F31488BFF3B7
:1000D0006F8F00F0E5FA03F0A3FB1D481D491E4A8F
:1000E000914202DA08600431FAE71C49174A91424A
:1000F00002DA08600431FAE719491A4A1A4B9A429F
:1001000004DA0868106004310432F8E70020174967
:10011000174A914202DA08600431FAE700F0D8FA8F
:1001200000F0C6FA134C144DAC4203DA216888473C
:100130000434F9E706F0C4FD104C114DAC4203DA6B
:10014000216888470434F9E70E4908470003002076
:1001500055555555000000200001002000010020E9
:1001600080340108000300205004002050040020C7
:10017000D83D0020C0000008C0000008C0000008F2
:10018000C0000008C10600080000000000000000D8
:10019000F0B544464D4656465F46F0B46B46CB60DC
:1001A000C3689D46F0BCA046A946B246BB46F0BD1A
:1001B00062B6281CA047002000F022FD00F0A8FC39
:1001C000014A024B1360FEE704ED00E000000080EE
:1001D000002243088B4274D303098B425FD3030A86
:1001E0008B4244D3030B8B4228D3030C8B420DD399
:1001F000FF22090212BA030C8B4202D31212090227
:1002000065D0030B8B4219D300E0090AC30B8B4264
:1002100001D3CB03C01A5241830B8B4201D38B0312
:10022000C01A5241430B8B4201D34B03C01A5241B7
:10023000030B8B4201D30B03C01A5241C30A8B42FA
:1002400001D3CB02C01A5241830A8B4201D38B02E5
:10025000C01A5241430A8B4201D34B02C01A524189
:10026000030A8B4201D30B02C01A5241CDD2C309FB
:100270008B4201D3CB01C01A524183098B4201D377
:100280008B01C01A524143098B4201D34B01C01A62
:10029000524103098B4201D30B01C01A5241C308DA
:1002A0008B4201D3CB00C01A524183088B4201D349
:1002B0008B00C01A524143088B4201D34B00C01A35
:1002C0005241411A00D20146524110467047FFE7A1
:1002D00001B5002000F0FCF802BDC0460029F7D0AF
:1002E00076E77047000000000000000000000000FA
:1002F00003460B437FD4002243088B4274D3030987
:100300008B425FD3030A8B4244D3030B8B4228D327
:10031000030C8B420DD3FF22090212BA030C8B424D
:1003200002D31212090265D0030B8B4219D300E0ED
:10033000090AC30B8B4201D3CB03C01A5241830B72
:100340008B4201D38B03C01A5241430B8B4201D322
:100350004B03C01A5241030B8B4201D30B03C01A4B
:100360005241C30A8B4201D3CB02C01A5241830AC5
:100370008B4201D38B02C01A5241430A8B4201D3F4
:100380004B02C01A5241030A8B4201D30B02C01A1E
:100390005241CDD2C3098B4201D3CB01C01A524185
:1003A00083098B4201D38B01C01A524143098B420E
:1003B00001D34B01C01A524103098B4201D30B01F7
:1003C000C01A5241C3088B4201D3CB00C01A52411C
:1003D00083088B4201D38B00C01A524143088B42E1
:1003E00001D34B00C01A5241411A00D2014652417A
:1003F000104670475DE0CA0F00D04942031000D399
:100400004042534000229C4603098B422DD3030AED
:100410008B4212D3FC22890112BA030A8B420CD3FD
:10042000890192118B4208D3890192118B4204D326
:1004300089013AD0921100E08909C3098B4201D3A6
:10044000CB01C01A524183098B4201D38B01C01AE0
:10045000524143098B4201D34B01C01A5241030957
:100460008B4201D30B01C01A5241C3088B4201D306
:10047000CB00C01A524183088B4201D38B00C01AB3
:100480005241D9D243088B4201D34B00C01A52418A
:10049000411A00D20146634652415B10104601D317
:1004A0004042002B00D54942704763465B1000D3A1
:1004B000404201B5002000F00BF802BD0029F8D041
:1004C00016E7704700000000000000000000000078
:1004D0007047C0460000000000000000000000005F
:1004E0008446101C62468C46191C634600E0C046D8
:1004F0001FB50EF035FD002801D40021C8421FBDF4
:1005000010B50EF07DFC4042013010BD10B50EF06C
:1005100027FD002801DB002010BD012010BDC046D2
:1005200010B50EF01DFD002801DD002010BD0120DA
:1005300010BDC04610B50EF0A3FC002801DC002061
:1005400010BD012010BDC04610B50EF099FC00286A
:1005500001DA002010BD012010BDC04600000000DF
:100560008446081C6146FFE71FB50DF019FA002804
:1005700001D40021C8421FBD10B50DF099F94042C9
:10058000013010BD10B50DF00BFA002801DB002082
:1005900010BD012010BDC04610B50DF001FA0028B5
:1005A00001DD002010BD012010BDC04610B50DF0CA
:1005B000A7F9002801DC002010BD012010BDC046B5
:1005C00010B50DF09DF9002801DA002010BD0120C2
:1005D00010BDC04600000000000000000000000048
:1005E000002B11D1002A0FD1002900D1002802D000
:1005F0000021C943081C07B4024802A14018029018
:1006000003BDC046CDFEFFFF03B4684601B50298A6
:100610000CF0E6FD019B9E4602B00CBC7047C04644
:100620001C2101231B04984201D3000C10391B0A22
:10063000984201D3000A08391B09984201D30009E6
:10064000043902A2105C40187047C046040302023D
:100650000101010100000000000000000000000096
:1006600010B5002903D1FFF7DBFF203002E0081CA2
:10067000FFF7D6FF10BDC0460000000000000000DC
:1006800002780B78002A03D0013001319A42F7D06A
:10069000D01A7047000000000000000000000000B9
:1006A0007047C0460000000000000000000000008D
:1006B0007047C0460000000000000000000000007D
:1006C000FEE7C0460000000000000000000000003F
:1006D00080229446F0B50025104E114C1149124B62
:1006E0001248B44499420DD91A0080C880C2914280
:1006F000FBD80139C91A8908013189005B189C426D
:1007000002D920C39C42FCD81036664504D030681C
:100710007368B168F468E5E7F0BDC04654000108AD
:10072000D83D0020D83D0020D83D0020D03501081C
:10073000FEE7C046000000000000000000000000CE
:10074000FEE7C046000000000000000000000000BE
:1007500010B500F0FDF800F06BF80B4C80220B494F
:10076000200000F0DDF90A4B283C206103610123E1
:10077000084A0375136A08490B40136262B60748BA
:1007800000F0EEF910BDC04628050020D400010895
:100790000001002000ED00E0FFFF00FFDC00010889
:1007A00072B6014B5862FEE7000500200000000011
:1007B000F8B58026CE4647461B4DF6056C69726A31
:1007C000286AA36880B5111A99421DD32F00002210
:1007D000143790460AE062B62069C84772B66C6961
:1007E000726A286AA368111A8B420DD8E268C3188E
:1007F000914642462B6223685F606B61E260BB42B8
:10080000E9D100F0C5FAE6E708498C4206D018188D
:10081000801A022806D3801800F0C2FA0CBC904659
:100820009946F8BD0220F6E70005002014050020D7
:10083000054B1A0014325A619A6101225242DA6160
:1008400000221A627047C046000500200000000028
:1008500070B503618023DB050500C260586A022978
:1008600000D20221164E32007369143293421DD019
:10087000326A0818841A9A68A24203D911E01B68E8
:10088000A41A9A68A242FAD35A682B606A6015606B
:100890005D60AC609A68141B9C6001235B42F3614D
:1008A00070BD00F07DFA73699A68EBE7306275619C
:1008B000B56108182B606B60A96000F061FAEFE782
:1008C0000005002000000000000000000000000003
:1008D0001C4B10B55969026881420ED0416814332F
:1008E0000A60026851600021C1609A4204D0916898
:1008F00083688C466344936010BD18000024143054
:100900005A615060CC60824218D0886891681B6A36
:100910008C46604490608022D205526AD11A884287
:10092000EAD99B1A1818022803D3801800F038FA65
:10093000E2E70220801800F033FADDE700F028FA41
:10094000DAE7C046000500200000000000000000BB
:100950000022024B1B605B609A607047000500201C
:10096000002382680375054B1B6899689142FBD28E
:100970005A680360426010605860704700050020AC
:1009800010B572B6037D032B0AD0042B0CD0002BBC
:1009900004D001235B428361FFF7E2FF62B610BD22
:1009A000002283691A60F4E74268036813605A60A2
:1009B000EFE7C0460000000000000000000000005B
:1009C000002382680375054B1B6899689142FBD828
:1009D0005A6803604260106058607047000500204C
:1009E00070B50C4C25692875206803685C6023602D
:1009F000012320610375EFF309832A69243B9A429E
:100A000003D82900FFF7C4FB70BD0348FFF7C8FEF9
:100A10002069F6E700050020FC0001080000000046
:100A200030B5050087B04B1C12D00B4C0B4A236924
:100A300001A8FFF70DFF2800FFF7D2FF049B002B52
:100A400002D001A8FFF744FF2369986907B030BDC1
:100A5000FFF7C6FF004CF7E70005002081090008FA
:100A600070B504000F4DA3682869A16182689342A4
:100A700003D82000FFF774FF70BDFFF771FF01235B
:100A800006002C612375EFF309830269243B9A4227
:100A900004D831002000FFF77BFBEDE70248FFF7A9
:100AA0007FFEF6E700050020FC00010800000000C2
:100AB000044B1A69196890688B68984280414042DB
:100AC0007047C04600050020000000000000000044
:100AD00070B50D4C236820691A68546022600122A9
:100AE0001A752361FFF76CFF0500EFF309830269B4
:100AF000243B9A4204D829002069FFF749FB70BDC6
:100B00000248FFF74DFEF6E700050020FC00010853
:100B100010B5FFF7DDFF10BD000000000000000071
:100B20000223826083827047000000000000000002
:100B3000836841681A00203A11610169443BD3601F
:100B400019614169596105491962C36810009360D0
:100B500002231375002353757047C046B101000886
:100B60004368826810B5934204D25521197001334D
:100B70009A42FBD172B6FFF7DBFF00210400FFF7BA
:100B80006FFF62B6200010BD0000000000000000F2
:100B900070B54518A84205D20400552626700134C8
:100BA000A542FBD172B620394418210024392061B6
:100BB000E1600B61049B20004B61054B0B6202233B
:100BC000A260A3820021FFF74BFF62B6200070BD38
:100BD000B10100080000000000000000000000005B
:100BE00010B5034B1B6998610F20FFF7F9FE10BD8C
:100BF00000050020000000000000000000000000D0
:100C000010B572B6FFF7ECFF10BDC0460000000043
:100C100010B5010072B60820FFF702FF62B610BDE2
:100C2000064B10B51B69002905D0036098610320AD
:100C3000FFF7F6FE10BD01204042FBE70005002053
:100C4000036810B5002B05D00022026099611800DE
:100C5000FFF786FE10BDC046000000000000000047
:100C600010B500290AD0074B42681B6918605A600A
:100C7000136043600420FFF7D3FE10BD0120404203
:100C8000FBE7C04600050020000000000000000057
:100C9000036810B5984206D01A68026050609961E6
:100CA0001800FFF75DFE10BD00000000000000000E
:100CB00070B5040000680D00844208D0036823600A
:100CC0005C608561FFF74CFE20688442F6D170BD00
:100CD00080B500AFEFF30983203383F3098862B650
:100CE000BD4680BD000000000000000000000000C4
:100CF000B0B500AF0F300ED072B6EFF30984203CD0
:100D000084F3098880235B04E361FFF7D1FE0028A8
:100D100003D0034BA361BD46B0BD024BA361FAE70C
:100D2000BD010008C0010008000000000000000034
:100D300010B501F0D5FA0C4801F0D2FD00F0D0FB5F
:100D400000F0EEFB00F01CFC00F05AFC00F0C8FCC8
:100D500000F026FF00F04CFF00F0EAFD02F080FDFD
:100D600000F006F810BDC046300201080000000087
:100D700010B501F0CDFB10BD000000000000000028
:100D800080230022DB0558631A610232DA60704763
:100D900080230022DB05DA607047C04600000000B7
:100DA0008023DB055863704700000000000000004E
:100DB00030B51D00002404325543C361039B4D1917
:100DC000C362049B45610060406084600161C16052
:100DD0008261016244628462036330BD00000000EE
:100DE0000023022110B5026A83600261C26043627F
:100DF00083624942FFF75CFF10BDC046000000005F
:100E0000C3680269934201D0181D704782680020B0
:100E1000002AFAD1F8E7C0460000000000000000F8
:100E2000C36810B519608268013282608269944695
:100E300042696344C360934201D3036AC3600021E3
:100E4000FFF726FF10BDC0460000000000000000B4
:100E500070B504000D0005E029002000FFF700FF39
:100E6000002809DBA368002BF6D000202269131D9F
:100E7000126863629B18A36270BDC0460000000048
:100E8000826983689446013B8360036942696344D5
:100E900010B50361934201D3036A036100234362E7
:100EA000C36A002B00D0984710BDC0460000000068
:100EB00070B5040072B6436A002B0CD0A26A1D788C
:100EC00001336362934202D262B6280070BD2000F3
:100ED000FFF7D6FFF8E7FFF7BBFF051EF4D1636A03
:100EE000ECE7C04600000000000000000000000029
:100EF000F0B557464E464546DE46E0B5040083B0A1
:100F00000F009046994672B68023DB055A6A002688
:100F10004A440192012252424A4493469A460FE0C3
:100F2000402238000FF054F8636AA26A4033403719
:100F3000636240369A421BD962B646451ED272B6EB
:100F4000616A002922D04246A36A951B5B1A9D4222
:100F500000D91D00402DE3D82A0038000FF038F8E2
:100F6000636AA26A5B197F19636276199A42E3D8B1
:100F70002000FFF785FF62B64645E0D3300003B09E
:100F80003CBC90469946A246AB46F0BD5B46033357
:100F90000CD85346596A019B591A89450CD3200035
:100FA000FFF756FF002807D1616ACCE749462000C9
:100FB000FFF74EFF0028F7D062B6DFE70000000021
:100FC00010B51C008360C3610023043254434362A4
:100FD0008362029B0C19C362039B00604060016145
:100FE000C160446182610162036310BD00000000C2
:100FF000C36902218360036A10B50361C3600023E3
:10100000494243628362FFF753FE10BD00000000B7
:101010000369C2689A4203D0180008C80B60704781
:1010200082680020002AFAD1F6E7C04600000000DE
:10103000826983689446013383600369426963442B
:1010400010B50361934201D3036A03610021FFF7E6
:101050001FFE10BD000000000000000000000000A6
:1010600070B504000D0005E029002000FFF7F8FD31
:1010700000280ADBA368002BF6D0E36800201A1DC5
:101080006262A26994466344A36270BD00000000DE
:10109000C36810B519608268013A8260826994461B
:1010A00042696344C360934201D3036AC36000236F
:1010B0004362C36A002B00D0984710BD00000000B7
:1010C00070B504000D0072B6436A002B0FD01D707E
:1010D000636AA26A01336362934202D262B600205D
:1010E00070BDA3692000191FFFF7D2FFF6E71100BA
:1010F000FFF7B6FF002801D1636AE8E762B6EFE7C1
:10110000F0B557464E464546DE46E0B5040083B08E
:101110000F009046994672B68023DB055A6A002676
:101120004A440192012252424A4493469A460FE0B1
:10113000402239000EF04CFF636AA26A4033403708
:10114000636240369A421BD962B6464520D272B6D7
:10115000606A002824D04246A36A951B1B1A9D4250
:1011600000D91D00402DE3D82A0039000EF030FFD1
:10117000636AA26A5B197F19636276199A42E3D89F
:10118000A3692000191FFFF783FF62B64645DED32F
:10119000300003B03CBC90469946A246AB46F0BD39
:1011A0005B4603330CD85346596A019B591A89454B
:1011B0000CD32000FFF754FF002807D1606ACAE76C
:1011C00049462000FFF74CFF0028F7D062B6DFE762
:1011D0000300C268196900208A4200D070479968EC
:1011E0000029FBD0596A0029F8D00439891AF5D0B2
:1011F000116099680139996099698C46596962440E
:10120000DA608A4201D31A6ADA60002201205A6247
:10121000E4E7C046000000000000000000000000FD
:1012200010B50024C361029BC160816141618918CE
:101230000060406084600161036210BD0000000036
:101240004369826910B5934211D08268013282608D
:101250005A1C4261197043690269934204D2002109
:10126000FFF716FD002010BDC3684361F7E78268F1
:10127000002AEAD001204042F5E7C0460000000005
:1012800070B504000D0072B605E029002000FFF7DC
:10129000E7FC002816DBA368002BF6D0A368A26940
:1012A000013BA360531CA36115782269934201D3CB
:1012B000E368A361E369002B01D02000984762B680
:1012C000280070BD62B6FCE70000000000000000CE
:1012D000F0B557464E464546DE46E0B59A46C369E8
:1012E00083B004000E001500994672B68023DB051A
:1012F0005A6A00275244019252469B46013A009294
:10130000A368002B1ED0A368013BA360A3695A1CED
:10131000A2611B78721C33709046A36922699342C4
:1013200001D3E368A3614B46002B01D02000C847DE
:1013300062B6013D0137002D13D072B6A368464650
:10134000002BE0D1009B033313D85B46596A019B05
:10135000591A8A4504D32000FFF782FC0028CFD019
:1013600062B6380003B03CBC90469946A246AB46F4
:10137000F0BD51462000FFF773FCEFE700000000CE
:10138000C361009BC1608161416189180060406058
:1013900082600161036270470000000000000000ED
:1013A00070B504000E00150072B605E0290020009B
:1013B000FFF756FC002817DBA368002BF6D0A368C4
:1013C000013BA36063695A1C62611E7063692269F4
:1013D000934201D3E3686361E369002B01D02000ED
:1013E000984762B6002070BD62B6FCE700000000BE
:1013F0008369426910B59A4210D0826801328260D6
:101400005A1C82611C7803699A4204D20021FFF7BA
:101410003FFC200010BDC3688361F7E78268002AA3
:10142000EBD001204042F5E7000000000000000082
:10143000F0B557464E464546DE46E0B59A46C36986
:1014400083B004000E001500994672B68023DB05B8
:101450005A6A00275244019252469B46013A009232
:10146000A368002B1ED0A368013BA360731C9846A1
:1014700063695A1C626132781A7063692269934207
:1014800001D3E36863614B46002B01D02000C847BD
:1014900062B6013D0137002D13D072B6A3684646EF
:1014A000002BE0D1009B033313D85B46596A019BA4
:1014B000591A8A4504D32000FFF7D2FB0028CFD069
:1014C00062B6380003B03CBC90469946A246AB4693
:1014D000F0BD51462000FFF7C3FBEFE7000000001E
:1014E00010B501F03DF810BD000000000000000044
:1014F00001230370002343607047C04600000000D2
:1015000010B5040072B6416001F0A2F80223237006
:1015100062B610BD000000000000000000000000E6
:1015200010B501F0EDFC10BD00000000000000004F
:1015300001230370002343607047C0460000000091
:1015400010B5040072B6416001F0EAFC022323707A
:1015500062B610BD000000000000000000000000A6
:10156000032310B5037001F013FD10BD000000004F
:1015700010B572B6FFF7F4FF62B610BD00000000B0
:1015800010B501F04DFB10BD000000000000000090
:1015900001230370002343607047C0460000000031
:1015A00010B5040072B6416001F04AFB02232370BB
:1015B00062B610BD00000000000000000000000046
:1015C00010B5040084B072B60020A0600330207013
:1015D000089802900798019006980090200001F06A
:1015E0005FFB431C5A1E934102225B429343053327
:1015F000237062B604B010BD0000000000000000BF
:1016000010B501F0CDFB10BD00000000000000008F
:1016100001230370002343607047C04600000000B0
:1016200010B5040072B6416001F0DAFB02232370AA
:1016300062B610BD000000000000000000000000C5
:1016400010B5040072B601F003FC0323237062B6E8
:1016500010BDC046000000000000000000000000B7
:1016600010B50C30FFF734FE10BDC046000000007E
:10167000012310B50C305B42FFF72AFE10BDC046B7
:1016800010B53030FFF7D4FE10BDC046000000009A
:10169000012310B530305B42FFF7CAFE10BDC046D3
:1016A00010B50C30FFF7ECFD10BDC0460000000087
:1016B000012110B50C304942FFF7E2FD10BDC046D4
:1016C00010B53030FFF76CFE10BDC04600000000C2
:1016D000012210B530305242FFF762FE10BDC04605
:1016E00010B501F025FD10BD000000000000000055
:1016F00030B515000D4A0400026000220B00010005
:1017000083B042600132027254310C3000943F3297
:10171000FFF786FD210020009431303000942B002B
:101720004022FFF72DFE03B030BDC0460C0101087A
:10173000436910B50400002B03D10422436813430E
:10174000436020000C30FFF77BFD002803DA802285
:1017500063681343636010BD0000000000000000D8
:1017600030B5C225046B6D00625983B013681978D7
:10177000042902D1217A022901D003B030BD1179A8
:1017800001228A401B891342F7D1200001A9403071
:10179000FFF73EFC021EF0D0635919791868019BCF
:1017A00000F08EFAE9E7C0460000000000000000EB
:1017B00070B5C225046B6D0062591368197804294D
:1017C00002D1217A022900D070BD517901228A40CC
:1017D0005B891342F8D120000C30FFF711FB021E89
:1017E000F2D0635959791868402300F051FAEBE7B9
:1017F00070B50400C2204000205800680578002021
:10180000042D00D070BD20000C30FFF771FBF9E70C
:101810000300C2204000185810B50068047800206A
:10182000042C00D010BD0C33180001235B42FFF7DD
:101830005FFBF7E700000000000000000000000070
:1018400070B50400C22040002058006805780020D0
:10185000042D00D070BD20004030FFF751FCF9E7A7
:101860000300C2204000185810B50068047800201A
:10187000042C00D010BD4033180001235B42FFF759
:101880003FFCF7E70000000000000000000000003F
:10189000C2235B00C35810B51B681B78042B03D10F
:1018A0000C30FFF705FB10BD02204042FBE7C046AD
:1018B000C2235B00C35810B51B681B78042B05D1ED
:1018C00001210C304942FFF7F3FA10BD02204042DB
:1018D000FBE7C04600000000000000000000000020
:1018E000C2235B00C35810B51B681B78042B03D1BF
:1018F0004030FFF7E5FB10BD02204042FBE7C04649
:10190000C2235B00C35810B51B681B78042B05D19C
:10191000012240305242FFF7D3FB10BD022040426B
:10192000FBE7C046000000000000000000000000CF
:101930007047C046000000000000000000000000EA
:101940000F4B10B503600023040001004360013316
:1019500003720C4B82B0009374310C30019402235B
:101960004022FFF725FA21002000074BFC310093AD
:101970004030019402234022FFF722FB02B010BD49
:101980002C010108B11700086117000800000000D1
:101990000A6872B60B7909339B00D31858604B79EB
:1019A00011339B0098508B79002B03D009339B0097
:1019B000D2185060C2235B00C150833BFF3B0372CF
:1019C00062B6704700000000000000000000000048
:1019D000022210B504004368134343600C30FFF744
:1019E000FFF920004030FFF703FB10BD00000000AE
:1019F00070B5050004000C352800FFF7F1F9200050
:101A00004030FFF7F5FA0122636828001343636052
:101A1000FFF7F6F9C2235B00E35802005979186812
:101A2000402300F035F970BD000000000000000008
:101A30007423C15C143B02000B400020202B00D01B
:101A400070475533D35C202BFAD3212B06D8074B94
:101A50001067936607230120D366F1E7222BEFD1AD
:101A60009066D06610670120EAE7C04600030020B8
:101A700070B5C2256D00425982B013680400197810
:101A8000042902D1017A022901D002B070BD117976
:101A900001228A401B891342F7D1060040363000EC
:101AA000FFF796FB0028F0D001A93000FFF7B0FA4D
:101AB0006359020019791868019B00F001F9E4E705
:101AC0000B00F0B509339B00C3185C6883B00600B7
:101AD0000F00002C19D072B6082263688D001343E2
:101AE00045196360EB6840345B691B68002B1FD1AC
:101AF00001A92000FFF78CFA002808D00200019B02
:101B00003900300000F0DCF862B603B0F0BDEA68DE
:101B100053691B68002BF7D0128A013A1342F3D1A4
:101B20003200002374323900300000F0C9F8EBE7CE
:101B30002000FFF77DFADBE7000000000000000056
:101B40001131890070B50C58002C20D072B60422D7
:101B5000C22625006368760013436360A3590C35E1
:101B60001A685B79280002339B00D3185B689B6975
:101B70005968FFF755F92800FFF742F9021E05D012
:101B8000A35959791868402300F082F862B670BDF5
:101B90007047C04600000000000000000000000088
:101BA00010B501F08DF910BD00000000000000002C
:101BB00001230370002343607047C046000000000B
:101BC000762310B50400C25C0833C25401F080FCD7
:101BD00063681B68002B02D0012120009847032373
:101BE000237010BD00000000000000000000000095
:101BF00010B501F03DFC10BD000000000000000029
:101C000001230370002301004360030000222C33F2
:101C100048311A60DA6104338B42FAD1826070472E
:101C200010B5040072B600234160C36003614361D4
:101C30008361C36103624362836201F021FC02237A
:101C4000237062B610BDC046000000000000000016
:101C50008B1C9B0070B5C318050050690E00140062
:101C60005A60002803D0102200210EF0C1F9A069AB
:101C7000002803D0102200210EF0BAF9310028000C
:101C800001F036FC70BDC0460000000000000000FE
:101C900070B501258D4044892C4344818C1CA400DF
:101CA00004196468A46923600023A260636001F0E2
:101CB00007FD70BD000000000000000000000000F3
:101CC00070B501258D4004892C4304818C1CA4002F
:101CD00004196468646923600023A260636001F0F2
:101CE00017FD70BD000000000000000000000000B3
:101CF000022310B56422037000230400C3678360CD
:101D0000C360036143618361C361036243628362B1
:101D1000835401F06DFC63681B68002B02D0002126
:101D20002000984710BDC0460000000000000000E1
:101D300005230370436810B51B68002B01D00321F5
:101D4000984710BD000000000000000000000000E7
:101D500004230370436810B51B68002B01D00421D5
:101D6000984710BD000000000000000000000000C7
:101D7000F8B500226423C25402000400743201F05A
:101D80007FFC63689B68002B23D0200098470028C5
:101D90001FD07423E56EE35C7B22A15C013AA25C58
:101DA00009020A43AA4201D21500E2665BB2002B87
:101DB00000DA8CE0002D00D169E064230422E254B3
:101DC00072B60021E36EA26E2000FFF761FF62B6DB
:101DD0004DE074276026E35D1E4036D175227F21D9
:101DE000A55C0A002D021A401543C02292009542BC
:101DF00000D1BCE019D9C022D200954200D1D6E072
:101E000036D990221201954200D1E8E0854A9542E8
:101E100055D080221201954217D122007F32A2664E
:101E200001222667E2660125B6E7022D00D17BE09C
:101E300039D980225200954200D18AE0023295427F
:101E400003D17622A25C002A5BD00021200001F0A1
:101E50009FFC0021200001F083FC63681B68002BBD
:101E600002D005212000984764230622E254F8BDE1
:101E70006D4A954200D188E0FF32FF329542E4D1AD
:101E80006A4AA666E66622675BB2002B2DDB6423F6
:101E90000522E25472B60023002200212000FFF741
:101EA0000FFF62B6E3E7002D07D122007C32A26665
:101EB00002222567E26602256EE7012DC5D15C4A44
:101EC0000225A2660222E2660022226764E7002D54
:101ED0000BD064230122E25472B60021E36EA26E9D
:101EE0002000FFF7EDFE62B6C1E764230322E2544F
:101EF00072B60023002200212000FFF7C9FE62B65F
:101F0000B5E70F217832A25C114008D052B2200010
:101F1000002A00DA7DE001F053FC7423E35C002228
:101F2000A266E2662267AFE778230F21E35C200018
:101F300019405BB2002B62DB01F07AFB012862D012
:101F4000022800D081E73B4BE566A3662667E35D88
:101F500022E77622A25C012A00D076E77C210220CB
:101F6000625A82436252A666E66626678CE776224C
:101F7000A25C012A00D068E77C210220625A024359
:101F80006252A666E66626677EE77622A25C002A93
:101F900000D05AE70F217832A25C1140BFD052B274
:101FA0002000002A3ADB01F0DBFBE35DB7E7792391
:101FB000E25C013BE35C1202134377217622606806
:101FC000A25C4568615C2000A847002800D13CE77E
:101FD00043680568A366E5662667E35DDCE676226E
:101FE000A25C6254511E8A410332227062681268F8
:101FF000002A94D0022120009047E35D8FE701F092
:102000002FFB01289CD10C4BE566A3662667E35D98
:10201000C2E601F0EDFB7423E35C80E701F0B8FB5E
:10202000E35D7CE7020C000002030000C11B000816
:1020300070010108680101086C010108000000003E
:10204000642310B5C35C0400062B14D8214A9B00FE
:10205000D3589F46002101F09BFB0021200001F096
:102060007FFB63681B68002B02D005212000984786
:1020700064230622E25410BD7B23E25C013BE35C57
:10208000C06E12021343984205D2E368198AFEF724
:1020900025F9002913D064230322E25472B60023E9
:1020A000002200212000FFF7F3FD62B6E3E7036F93
:1020B000002B00D0984764230022E254DBE772B67D
:1020C000002300222000FFF7FBFD62B664230222FA
:1020D000E254D0E74C0101080000000000000000BD
:1020E000642110B5425C0400062A12D801239340F3
:1020F00067221A421AD11A070CD5C3689B695B681C
:10210000002B06D1036F002B00D0984764230022D8
:10211000E25410BDDB06FCD50523435472B6002300
:1021200000220021FFF7CCFD62B6F2E7002101F0AA
:102130002FFB0021200001F013FB63681B68002BBC
:1021400002D005212000984764230622E254E0E7EC
:102150000F4A70B594460322FF25C0260240D200E4
:1021600095408901914083089B006344B6009C59C7
:102170001F22AC430C439C51012302409340C022D8
:1021800040098000604452008350036070BDC04627
:1021900000E100E00000000000000000000000007E
:1021A000242370B5184C75466269E05C11680B0019
:1021B0000F21C34019400CD00E0025238640E35C5C
:1021C0005660124ADB009E58002E02D0D318586881
:1021D000B0473823A26AE05C11680B000F21C340AE
:1021E00019400CD03923E35C0C0084405460074A4A
:1021F000DB009C58002C02D0D3185868A047280058
:10220000FEF776FD70BDC04674010108440500204C
:102210004C2370B52E4C7546E26BE05C11680B00E8
:102220000F21C34019400CD00E004D238640E35CC3
:102230005660284ADB009E58002E02D0D3185868FA
:10224000B0476023226DE05C11680B000F21C34092
:1022500019400CD00E0061238640E35C56601D4A95
:10226000DB009E58002E02D0D3185868B047742364
:10227000626EE05C11680B000F21C34019400CD066
:102280000E0075238640E35C5660124ADB009E58C0
:10229000002E02D0D3185868B0478823A26FE05CA4
:1022A00011680B000F21C34019400CD08923E35C57
:1022B0000C0084405460074ADB009C58002C02D07C
:1022C000D3185868A0472800FEF712FD70BDC0461D
:1022D0007401010844050020000000000000000017
:1022E0000B4B01219A6A0022494210B599629A6209
:1022F000186919611A61D86806490143D960DA6022
:102300008022D96952050A43DA6100F079F810BDDC
:1023100000100240FFFFBFFF0000000000000000AF
:102320000121284A13680B431360013113681942D5
:10233000FCD0032153688B435360536809315360C9
:10234000204A53680B40FCD1F9211068014011600C
:1023500001215360536B0B4353631A4A0131536B92
:102360001942FCD08023516B5B020B4380215363E5
:10237000144A8902536B0B42FCD0E523DB04536003
:102380000023D36210331363802311685B040B4373
:10239000802113600B4A890413680B42FCD0112181
:1023A000094B196053680F390B435360054A0A31D2
:1023B00053680B40082BFBD1012193690B439361B8
:1023C0007047C0460010024000200240000000009C
:1023D0000F21084B10B51A687446114006D0064A02
:1023E00059601368002B01D0506898472000FEF711
:1023F0007FFC10BD000002404405002000000000EA
:1024000000220B4B10B51A600A4B0B4A1C000B48FC
:102410008C34002100E058681433016011600832E8
:10242000A342F8D10122064B52425A6010BDC04669
:102430007C050020740101084405002008000240CA
:10244000000002400000000000000000000000004A
:10245000F8B5474698460123CE461D0080B50400D6
:10246000407C1C4F85403E6889462E422FD11A4938
:10247000C0008C464250414660444160710603D121
:102480001649486903434B6163689C4618680F23EB
:10249000614698430860207C216883404B6000239C
:1024A00061460B60A368334206D0002035433D608F
:1024B0000CBC90469946F8BD002AF6D00125A07CB8
:1024C0004946FFF745FE637C3E689D40EDE70120ED
:1024D000EEE7C0467C0500204405002000100240C5
:1024E0008023DB051A6910B57446920703D42000D7
:1024F000FEF7FEFB10BD00221A6172B6FEF758F916
:1025000062B6F4E7000000000000000000000000D8
:1025100001220E4910B5CB690F201343CB610C4942
:102520008B6813438B6080230A49DB059962012184
:102530004942D962002199615963D96059605A6151
:1025400002311A60FFF704FE10BDC04600100240C1
:1025500000580140BF120000000000000000000011
:1025600010B50248FEF7C4FF10BDC046800500202C
:102570001F2201230A40F0B593400F2913D8234AA4
:10258000466803259446CA0092590F260D40AD00B7
:1025900012093240AE40AA408C08A4006444A768E7
:1025A000B7433A43A2601A4A13421AD14268C9009B
:1025B00051180A68D843174DD40713D4AC680440A7
:1025C000AC60144C920713D5E2681A43E2604A6883
:1025D000002A13D00F4A11680B431360536803405D
:1025E0005360F0BDAC681C43AC600A4C9207EBD45E
:1025F000E2680240E2604A68002AEBD1054A51686D
:102600000B435360136803401360EAE70000014086
:102610000000847F00040140000000000000000072
:102620001F2301220B409A40D143074B18680840F2
:102630001860586808405860986808409860D868E2
:102640000140D9605A617047000401400000000059
:10265000037870B50500012B14D00024042604E093
:102660000134FFF785FF202C0BD06A68E3009B58EC
:10267000210028003342F3D10134FFF7D1FF202C91
:10268000F3D170BD00F0FCF8E7E7C04600000000A1
:1026900003230C4A70B55469754623405361E30720
:1026A00004D50948002143685B689847A30704D50F
:1026B000054801214368DB6898472800FEF718FBAE
:1026C00070BDC046000401408005002000000000ED
:1026D0000C230C4A70B55469754623405361630757
:1026E00004D50948022143685B699847230704D54C
:1026F000054803214368DB6998472800FEF7F8FA8C
:1027000070BDC046000401408005002000000000AC
:102710002F4A70B52F4B5469754623405361E30629
:1027200004D52D48042143685B6A9847A30604D565
:10273000294805214368DB6A9847630604D5264883
:10274000062143685B6B9847230604D5224807217E
:102750004368DB6B9847E30504D51F4808214368AD
:102760005B6C9847A30504D51B4809214368DB6CC3
:102770009847630504D518480A2143685B6D98475C
:10278000230504D514480B214368DB6D9847E30407
:1027900004D511480C2143685B6E9847A30404D507
:1027A0000D480D214368DB6E9847630404D50A4841
:1027B0000E2143685B6F9847230404D506480F2118
:1027C0004368DB6F98472800FEF792FA70BDC04659
:1027D00000040140F0FF0000800500200000000020
:1027E0000A4A10B55369116874460B4080214902AA
:1027F0000B40536105D08423054810214268D3580B
:1028000098472000FEF774FA10BDC046000401404E
:102810008005002000000000000000000000000013
:10282000124B70B55C691A6875461440D022520389
:1028300022405A61A30305D58C230D48112142681B
:10284000D3589847230305D59C2309481321426890
:10285000D3589847E30205D5A423054814214268BC
:10286000D35898472800FEF743FA70BD0004014092
:1028700080050020000000000000000000000000B3
:1028800010B503210520FFF763FC03210620FFF7A5
:102890005FFC03210720FFF75BFC03210120FFF70A
:1028A00057FC03210C20FFF753FC03210220FFF704
:1028B0004FFC10BD00000000000000000000000000
:1028C0004B6843608B688360CB68C3600B6943616E
:1028D0004B6903628B6943620B6803607047C046B3
:1028E000FC2310B504009020114ADB035169C00598
:1028F0000B4353612100FFF7E3FF21000D481C311A
:10290000FFF7DEFF21000C483831FFF7D9FF210027
:102910000A485431FFF7D4FF210009487031FFF70E
:10292000CFFF210007488C31FFF7CAFF10BDC0461A
:10293000001002400004004800080048000C004855
:1029400000100048001400480000000000000000D3
:10295000F0B557464E464546DE46E0B503263700FD
:10296000130017405207D20F94465C09DA08324030
:10297000264001245B051B0F9A46B04683B066468D
:102980000023A146944615E005682C403C430460B2
:10299000072B49D8046A22405C4622430262490858
:1029A0003BD06246920094464246920090467600A2
:1029B000BF0001334A460A42F1D0072254461A406A
:1029C0009500AC4001954D469D400322A3464468C6
:1029D000AC43344344605C00A240D4436246856803
:1029E0002540154342468560C568254015430F22A2
:1029F000C560019DAA40D243022FC5D1072B19D82B
:102A0000056A2A405D462A4302620268490814406A
:102A10000222144304600029C3D103B03CBC904699
:102A20009946A246AB46F0BD446A22405C4622432A
:102A30004262B4E7456A2A405D462A434262E4E7BF
:102A4000C36910B5016AFF2B0ED800241B0440682F
:102A50004A688068034307480240134380222343A7
:102A6000D20013434B6010BDFF2380241B04640479
:102A7000EDE7C046FFFF00FE000000000000000080
:102A8000426930B5016AFF2A0BD80024120440685D
:102A90004B68064D80682B400343234313434B6030
:102AA00030BDFF22802412046404F0E7FFFF00FE23
:102AB000FC2270B5584D92012C6A7646A369E361F9
:102AC000134238D1FE221A4203D13000FEF710F92A
:102AD00070BDDA0600D585E029782268032959D02F
:102AE0000421114251D019424FD0626AA869027084
:102AF000AA690132AA61EA69013AEA61002A02D1AF
:102B000022688A4322601A067AD45B06DDD52B78C8
:102B1000032B56D080236268DB011343402263609D
:102B200023689343236072B6280000210C30FEF71F
:102B300087F862B6C9E7062122688A432260AA683C
:102B4000D90502D501210A43AA60990502D50221BF
:102B50000A43AA608021490119405B0510D508236A
:102B60001A43AA60002902D020231A43AA6072B631
:102B70000221280049420C30FEF762F862B6A4E751
:102B80000029F1D1002AA0D0F1E71A063FD45B0654
:102B90009BD5BFE7013911420ED019420CD02A69EA
:102BA000107801322A616A69A062013A6A61002ADA
:102BB00002D122688A4322601A0624D45B0600D41C
:102BC00083E7EB69002BA5D02800FFF739FF04222B
:102BD000236813432360802361689B010B43636078
:102BE0002A7072E70423AA681343AB6080236268EB
:102BF000DB01134346226360236893432360B6E7F7
:102C00002B78032B03D12800FFF73AFF5DE728005C
:102C1000FFF716FF59E7C0468805002000000000B6
:102C200010B5044C2000FEF7B3FC0023E360024B18
:102C3000236210BD88050020005400400000000001
:102C4000012270B5046A050023689343236003786A
:102C5000012B0BD090236A6851680B4323601368E3
:102C60000122236123681343236070BD094B9842FE
:102C7000F0D18022084B9203196917201143196182
:102C800000211961D9690A43DA610321FFF760FA6B
:102C9000E0E7C04688050020001002400000000068
:102CA000F8B50600046A0020B06062B63261802286
:102CB0007361069BD205B361079B576AF36172B6D5
:102CC0008025A3692D022B420FD0F420536AFF30D8
:102CD000DB1B834204D92AE0536ADB1B834226D8DC
:102CE00062B672B6A3692B42F6D17368326A9B68EA
:102CF0001B0519D551603000FFF7C2FE4222236840
:102D0000300013432360802362689B011343636098
:102D10000C300899FDF784FF431C04D180236268BE
:102D2000DB0113436360F8BD49005160E3E7012014
:102D30004042F8E700000000000000000000000032
:102D400070B505000C000B071FD4A30711D56A68E6
:102D50001369002B0AD004212970916828004908C2
:102D60000A0098472B78042B00D070BD02232B70EB
:102D7000FBE76307F9D56A681369002BF5D0926801
:102D80000021520828009847EFE70248FDF708FDA8
:102D9000DBE7C04600020108000000000000000060
:102DA00010B5094C2000FEF733FC8022074B52007F
:102DB000A36000232261064AE3606261054AA361C1
:102DC000E261236210BDC046AC050020003800401F
:102DD000B0010108AE150000000000000000000076
:102DE00070B505780400012D15D06368A16816221E
:102DF0009D5E80220D621420185E238A1201034317
:102E00001343CB61E368002B04D01D62618A014348
:102E10000A43DA6170BD0B4B9842E6D180230A4A1F
:102E2000DB01D1690B43D36103210300074A4069E9
:102E3000FFF70EFB0022A3681A605D600C3363622B
:102E4000D3E7C046AC05002000100240412D000829
:102E500030B506244268938A91681C4200D049002C
:102E60004369002B0BD001255B68C4691C60446A70
:102E70009C605468DC6059601C682C431C6083694A
:102E8000002B0BD05B68046A12681C60846A9C602B
:102E9000DA60596001211A680A431A608023816848
:102EA000DB00CA691A43CA61C268002A02D0D1692C
:102EB0000B43D36130BDC04600000000000000009D
:102EC00010B5074C2000FEF773FE064BA360064BBF
:102ED000E36014332361054B6361054BA36110BDAF
:102EE000D805002000300140880101080A100000C8
:102EF00018100000000000000000000000000000AA
:102F000010B50348034BC360FEF712FB10BDC0466B
:102F1000F405002000040040000000000000000054
:102F2000037870B50400012B12D06568A068296889
:102F3000FDF74EF90022A968E36801381A6059606C
:102F4000FF2180B298621A61EA688A43DA6070BD34
:102F5000094B9842E9D10220084BD9690143D96154
:102F60001A69022102431A6100220E301A61FFF72A
:102F7000EFF8034BA360D8E7F405002000100240EF
:102F8000006CDC02000000000000000000000000F7
:102F9000C3680139D9620022012159615A621A615C
:102FA00042685268002A02D0DA680A43DA600522D1
:102FB0001A607047000000000000000000000000E0
:102FC0000022FF21C3681A601A61DA688A43DA6056
:102FD0007047C04600000000000000000000000034
:102FE0000022C36810B51A6103780400042B04D0D2
:102FF000636820005B68984710BD023B0370FFF7D1
:10300000DFFFF5E700000000000000000000000006
:1030100010B574460348FFF7E3FF2000FDF768FE94
:1030200010BDC046F40500200000000000000000B4
:103030008021024A13680B43136070470038014037
:10304000F8B5D4234746CE46364D80B5EE58F04607
:103050003768F4693462230729D1E30506D572B6CF
:1030600080236A689B0013436B6062B6A30616D484
:1030700080233B4201D0234230D1630608D572B68B
:103080006B6CAA6C934237D040239F43376062B683
:103090004046FDF72DFE0CBC90469946F8BD72B631
:1030A000B18C2800C9B2FEF743FB62B6E0E7082303
:1030B000234000D08023E20701D520221343A2073A
:1030C00001D540221343620702D5802252001343E8
:1030D00072B66A6813436B6062B6BEE772B6124B93
:1030E00018009946FEF784F900280DDB80B2308580
:1030F00062B66306CCD5C2E7AB6B002BC4D01022FE
:103100006B6813436B60BFE74B460821303B5A683E
:103110000A435A60C0233A009A43130040221343E3
:103120003360E5E7040600203406002000000000BC
:1031300010B5084C084A20000021FEF7D9FAD42324
:10314000064A0221E250064A04331B20E250FEF7F1
:10315000FFFF10BD04060020313000080038014098
:10316000006CDC0200000000000000000000000015
:1031700030B50F4C0F4BA4461B6DC0006344C01804
:10318000048893B2A4B24380002A0FDD6546013A59
:103190005208013252008A186D1A4B7808781B02C7
:1031A00003436018023143539142F6D130BDC0460B
:1031B00000600040005C00400000000000000000D3
:1031C000F0B5DE4657464E4645467346E0B589B0F3
:1031D0000793984B5C6C620500D519E1230500D577
:1031E0000AE1E30407D5934B9A6C120400D416E16C
:1031F000904B914A5A64A3050AD5904B9B465B6855
:10320000DB68002B01D0584698478A4B8C4A5A6499
:1032100080231B021C4200D1DAE0884A9946854B84
:1032200017009A462FE04246128A824200D90200D5
:103230009868DA60844661449960E0B2FFF798FFCD
:103240002B68804A1340302253407F4A13432B603F
:103250005B464A46134210D02B687C4AE1B21340C9
:10326000802213432B605B4601911B0537D5B600C6
:10327000BE19736838005B68984753465C6C4B46D0
:103280001C4200D1A4E00F231C406A4BA5009C46C1
:1032900065442B68A61C9B46B300FB185B689846E8
:1032A0005B461B06D4D52A68684943460A4049460E
:1032B0005B690A432A60D9685A6888181A68586096
:1032C000101AB0D10122A2403B8993433B8143466F
:1032D0009B68002BBCD0E1B238009847B8E7434662
:1032E000524699698B680093136D594A9446E200DF
:1032F00063449B189A8892B2944460460290DB889B
:103300009BB29805800D84465248034200D18FE05D
:103310006046009B0238049040080233059040004C
:103320001818009B0694D21A9346624603925A4696
:103330008B461100464C5A18A446624412881A70F3
:10334000120A5A7002338342F4D1029859468346D6
:10335000059A039B069C9C46531C5B009B44584665
:103360000290009883469B445B4600935300049A66
:10337000D31A002B03D0029B009A1B88137062465D
:103380008B6863448B604B6863444B600B689B1A8B
:1033900042460B608B89013B9BB28B81528A62450E
:1033A00001D8002B1ED10122A2407B89B600934395
:1033B000BE197B817368DB68002B00D15DE7019942
:1033C0003800984753465C6C4B461C4200D05AE785
:1033D0000798FDF78DFC09B03CBC90469946A24683
:1033E000AB46F0BD2A681C4B1A40C0239B015A40D3
:1033F000154B13432B6040E708210E4B1A6C0A4310
:103400001A64164A5A640D4B1800FEF791FCE8E660
:10341000134A5A64094B1800FEF76AFCDEE60821DD
:103420001A6C8A431A64054B1800FEF791FCDFE61C
:1034300063469EE7005C0040FFEFFFFFE0060020D0
:10344000FFFDFFFFBF87FFFF808000000F07FFFF2A
:1034500000600040FE0300008FB7FFFFFFF7FFFF93
:10346000FFFBFFFF00000000000000000000000064
:1034700010B50248FEF7C4FB10BDC046E0060020B0
:10348000037870B50400012B00D070BD0A4A904249
:1034900003D02000FEF72CFCF7E780220749084DF7
:1034A000C86912040243CA611F202B640321FEF77E
:1034B0004FFE00232B64ECE7E006002000100240E2
:1034C000005C004000000000000000000000000060
:1034D0007E238022C35C1343014AD3647047C046F5
:1034E000005C004000000000000000000000000040
:1034F000F0B50322CE4647468B1C9B00C3185D687F
:1035000080B52B681A4061D00023022A0AD9033AF9
:10351000534253415A428023DB00134080229200E1
:10352000944663442B4C2C4AA446126DCE00624450
:10353000B4186A69002A11D000226280803286584D
:1035400091462A8A01329046012247469743BA198A
:103550004F46C2512022B6B226801343AA69002AE0
:1035600016D06D8A6A1E3E2D27D8012632430132BD
:103570005210920292B280260127E28001358259D0
:10358000BD43AD1892B28551A280802292011343AF
:103590001A00114C1148A4460A4302401048890001
:1035A000614402430A600F4C0A68234053400343BE
:1035B0000B600CBC90469946F0BD1F263243013289
:1035C0005211094E9202324392B2D4E780239B00FB
:1035D000A8E7C04600600040005C00400F07FFFF06
:1035E00080800000707800000080FFFF0000000075
:1035F00000230C4A10B51365536443688021DB68CF
:10360000D1645C4263419E242402A4465B425B0277
:103610006344136440234350034B0021C360FFF70E
:1036200067FF10BD005C00400C02010800000000B4
:10363000074B8900C858C0239B01184006D0054B92
:103640009C466044431E9841013070470020FCE7CF
:10365000005C004000F0FFFF0000000000000000E0
:103660003020064B8900CB58184004D01038431E38
:103670009841013070470020FCE7C046005C0040E4
:103680000A480B4B844610B51B6DC9006344C9182A
:1036900088881400614680B20834891A13185B5A6E
:1036A00013800232A242F9D110BDC0460060004032
:1036B000005C00400000000000000000000000006E
:1036C0008B1C9B00C018426870B595690C00286877
:1036D0000123002805D0518A40180138FCF778FDF5
:1036E00083B2AB81064BA4009C4664442268054B20
:1036F0001A40C0239B015A40034B1343236070BD03
:10370000005C00408FB7FFFF8080000000000000D9
:103710008B1C9B0010B5C01842680C005369128ABC
:1037200019688A4200D90A00DA6099682000FFF718
:103730001FFD064BA4009C4664442368044A1340C2
:1037400030225340034A1343236010BD005C004005
:10375000BF87FFFF80800000000000000000000025
:10376000064B89009C4661440A68054B1A40802339
:103770005B015A40034B13430B607047005C0040F1
:103780008FB7FFFF808000000000000000000000F5
:10379000064B89009C4661440B68054A1340102281
:1037A0005340044A13430B607047C046005C00401E
:1037B000BF87FFFF808000000000000000000000C5
:1037C000084BC0229C46890061440B68920113405B
:1037D000934205D00B68044A1A40044B13430B6014
:1037E0007047C046005C0040BF87FFFF80A000001C
:1037F000084B89009C46302361440A681340302BF3
:1038000007D00B68044A134020225340034A134355
:103810000B607047005C0040BF87FFFF80800000A6
:1038200080B50A4B0A4A196800AF914209D162B6C5
:1038300000221A60074B83F30888074B1B689847E0
:10384000FEE7FEF76DFDBD4680BDC046F03F00209F
:10385000EFBEADDE5022002004C8FF1F00000000B4
:103860007047C0460000000000000000000000009B
:10387000F8B547461D0080460B23CE46434480B52D
:103880000E00170099461C0039003000FCF726FD99
:103890003023CAB2092900D907339B18013CDBB297
:1038A0002370002D02D0013D002D02D1BE4202D373
:1038B00000250600E8E74A460020121B00E0235CD2
:1038C00041460B5401309042F9D140440CBC904623
:1038D0009946F8BD00000000000000000000000054
:1038E000F8B54746CE46140080B581460F1C904679
:1038F000092A01D90923984643469A001B4B381CD4
:10390000D65809F035FC05000AF0E2FB011C381C12
:103910000AF0AEF9071C30000AF0DAFB011C381C73
:103920000AF08EF80CF06CFA0022114B0AF010FC31
:1039300009F036FC0700864201D8871B01350023B9
:103940000A2229004846FFF793FF002C03D10CBC44
:1039500090469946F8BD2E23441C03700A22434624
:1039600039002000FFF784FFF1E7C046B4030108E7
:103970000000E03F00000000000000000000000028
:103980000389012B06D943685A1C426019700389C8
:10399000013B038100207047000000000000000090
:1039A000F0B557464E464546DE460023E0B58A460A
:1039B000804616008DB00093203302935346197849
:1039C0005F1C00290FD0252915D04346BA461B6835
:1039D00040469B689847009B0133009353461978F3
:1039E0005F1C0029EFD100980DB03CBC9046994671
:1039F000A246AB46F0BD3C780020102104220223F1
:103A00002D2C0AD02B2C0BD0302C0CD0202C0DD1EF
:103A1000204301373C782D2CF4D118430137F9E7C6
:103A200010430137F6E708430137F3E7002501901B
:103A30002A0006E008CEDBB29500AD186D003C7898
:103A40005A192300303BDBB20137092BF4D92A2C59
:103A5000F0D015002E2C00D133E14023019ABA4654
:103A60001A430023994601922300443BDBB2342BD6
:103A700000D921E1D14A9B00D3589F46082206ACC9
:103A8000002302CE2000FFF7F3FE8346031BED1A4E
:103A900063D430230293019BDB0601D420230293DD
:103AA000019B9B075DD5A34500D8BEE1009B47461F
:103AB00001331B1BB046A9461E005D463B682178BA
:103AC0009B683800984733190134A542F6D84D4613
:103AD0004646B8461F00002D00D1AAE12C00A94699
:103AE0004546B046029E2B6831009B682800013C89
:103AF0009847002CF7D14646A8464D46EB1900934F
:103B00005CE7072307369E4303CE0CF0D1F9002172
:103B10008346FCF737FD002800D0F8E0019B5B07E7
:103B200000D49AE106AB1A0003932B23944613703A
:103B30002A3B63440493FF215846C905FCF71CFD4A
:103B4000002800D1FCE0049A039C531C9B461923D7
:103B500013705B461B1BED1A9BD5019B00259B0731
:103B6000A1D42C23019A134202D0D30600D5BEE083
:103B70002F1E15D04346A0461C00A946029D23686F
:103B800029009B682000013F9847002FF7D12300B0
:103B900044469846009B00259C46CC4463460093CF
:103BA0005C4583D30AE702CE002900DAD8E0019B06
:103BB0005B0700D448E106AB1A0003932B23501C8B
:103BC000137000230A22FFF753FE039C8346031B56
:103BD0005DE71023019A10CE9A43002C00D1CBE070
:103BE00001992378490600D529E1002B00D128E16D
:103BF0004B46591E00D224E1230004E0E01A40188D
:103C0000013000D117E1013318780028F6D19B4626
:103C100001921B1B3BE7330004CB05934B46002B63
:103C200071D00393013B01260C2B6DD8002306A90C
:103C30008C4699460D3363441C00012392209C4618
:103C40001F339B464F46400093085108C9180B0983
:103C5000C9180B0AC9180B0CC918C9088B005B18C6
:103C60005B00D31A092B03D90A3B0131092BFBD87E
:103C70003033621EDBB21370002900D183E063464B
:103C8000034203D05B46A21E1370013714004008A4
:103C90000A00D9E71023019A9A4308CE019206AA96
:103CA0001370140001230122A44662449346EEE6F9
:103CB0001022E4E60A22E2E606AB1C70012306AC01
:103CC000F1E70023180006E008CEDBB20F00820007
:103CD0001218520098183C78791C2300303BDBB254
:103CE000092BF3D92A2CEFD081468A46BCE64346FD
:103CF0001B6821789B6840469847009B671C0133EE
:103D000000933C0034E705260D2303938EE7082338
:103D1000019AFF211A4306AB019203931A002D2347
:103D2000137080231B065B449B4694460123C90500
:103D3000634458460493FCF71FFC002800D002E7B8
:103D4000462C00D1A0E0019B5B0600D591E05946CE
:103D50004A460498FFF7C4FD039C8346031B96E67E
:103D60000823019A49421A4306AB019203931A00B1
:103D70002D23501C137024E7019B114C5B0600D4CB
:103D800036E7104938E706A884460D216144891AB0
:103D90008C460398B946844502D9022184460E43D5
:103DA00048460949095C0120049106A90C00814696
:103DB00001300391644483460EE0C046D8020108F6
:103DC000AC030108FE7F0000080300200B700131E6
:103DD0008C420DD002000378501C202BF6D14F46A8
:103DE00037421CD02E230B700131BE438C42F1D1DF
:103DF0000398030063441A00730707D5049B202B24
:103E000004D06346202101331170C218531C9B4615
:103E1000049B039C13705B46059E1B1B37E65F46A5
:103E20003742D3D0901C5378D0E7009F002D00D0AC
:103E300054E60097C2E59B4601921B1B27E6002B28
:103E40009FD1A346019229E62023019A134217D05D
:103E500006AA03921370501CB3E62023019A134262
:103E60000AD006AA944613701F3B6344039204933E
:103E700061E6092399466AE706AB039304935AE681
:103E800006AB039318009CE634495846FCF78EFBBA
:103E900000282AD0324C63780134002B10D05F46C2
:103EA00004E02E49FCF782FB002808D0381C2B497F
:103EB00009F0E6FB01342378071C002BF1D1BB4647
:103EC000013C2478584609F053F909281FD80223E9
:103ED0009C46E1444A4659460498FFF701FD002CF0
:103EE0000FD1039C8346031BD1E5FE21584689056B
:103EF000FCF748FB002810D101239C460024E14434
:103F0000E0E70470039C431C9B461B1BBFE500239A
:103F1000632282425B419944DCE7124C2378002BF8
:103F200011D05F4605E0FE218905FCF72BFB002838
:103F300008D0381C094909F083FD01342378071C97
:103F4000002BF0D1BB4658460BF05AFF064A074BF0
:103F5000FCF7F0FA0028B3D10024B3E700007A445C
:103F60000803002014030020FCA9F1D24D62503F49
:103F70000CB430B5030085B00C000020002910DD22
:103F80000A4A01AD0192298109AA089928000293E1
:103F90000092FFF705FD00226B681A70844200DC76
:103FA000601E05B030BC08BC02B01847DC03010835
:103FB00002290ED0032905D0012901D00020704725
:103FC0000548FCE70020032AF9D80448D2008018ED
:103FD000F5E70348F3E7C046980401082005010807
:103FE0004C04010800000000000000000000000078
:103FF00010B572B60248FDF73BFD62B610BDC04673
:104000007C0700200000000000000000000000000D
:1040100010B50400022907D0032904D172B60A485A
:10402000FDF7D6FC62B610BD72B6084A0121FDF755
:104030000FFE074A02212000FDF70AFE0248FDF7A5
:10404000D7FC62B6EFE7C0467C070020EC0301080E
:104050001004010800000000000000000000000043
:10406000F8B5011C09F0ECFC0024FE25071CAD0589
:10407000261C291C301C09F08BF9FE21061C890521
:10408000201C09F085F98121041CC90509F0D8FC20
:10409000211C09F0D5FC011C381C09F0F1FA011CA7
:1040A000281C09F0CDFC0649051C301C09F0C8FC91
:1040B000291CFCF767FA0028DBD1301CF8BDC0468C
:1040C00017B7D13800000000000000000000000019
:1040D0000121024A13788B4313707047BC03002000
:1040E00070B5002402780B787C2B1AD09A4213D139
:1040F000002A0AD0461C01310B7835787C2B11D070
:104100000136AB4208D1002BF5D1200070BD013142
:104110000D787C2B0AD02B00002BF8D101246442AF
:10412000F3E71500002DF0D00B78F5E701342B00F4
:10413000DAE7C046000000000000000000000000B8
:104140000A4B30B5190000200225012430311A78BD
:10415000002A03D09A78002A04D120430C339942D4
:10416000F5D130BD012AF9D12843F7E71019002015
:10417000F0B5C646571E00B50400081A390090462F
:10418000FCF7ACF8050008000E4900220E007B0881
:104190001B1834609F4201D80134DB1B01326419C3
:1041A00004369742F4D24346642B08D89A000B0099
:1041B0008A1800219533FF3302C29A42FCD104BC15
:1041C0009046F0BD6C1900200000000000000000C7
:1041D000F0B5DE4657464E464546E0B5484B85B0FD
:1041E00001909B890393002B7BD0CE2292009446B2
:1041F000CC22434BD200634494461E00404B404FB8
:1042000063441C00002310379B462FE08023011CD1
:104210001B06FE209C468005654409F029FD4946A1
:10422000029009F00DFC291C8046504609F008FC5C
:10423000011C404609F01CFD51468046029809F0D9
:10424000FFFB291C8246484609F0FAFB011C504638
:1042500009F09EF84346236001239C46039BE344F8
:1042600060600837083608349B453ADA39682068B8
:1042700009F0FEFC79688146606809F0F9FC019B51
:10428000824675683068012BC0D0FE21890509F08F
:104290007FF8011C0290484609F0D2FB291C804699
:1042A000504609F0CDFB011C404609F0E1FC0299A3
:1042B0008046504609F0C4FB291C8246484609F056
:1042C000BFFB011C504609F063F8019B0133C1D1CB
:1042D00080231B064344984680231B069C4660446B
:1042E000B8E70422064BDB89934340221343044A78
:1042F000D38105B03CBC90469946A246AB46F0BD82
:104300003409002000000000000000000000000050
:1043100030B5012425000949094A8B5C1D408542BE
:104320000AD0A34303438B540A21064A13780B4354
:1043300013700022044B9A7030BDC046340900202F
:104340003110000058210020E00300200000000090
:10435000F0B5DE4657464E464546E0B58BB008F010
:1043600077F80690002800D183E0BB4A44681568BE
:10437000A54200D143E1B94804908789002F6CD051
:10438000A54200D362E11021B34B88461E1D069B57
:1043900000251A0042449446B14AB146904643442F
:1043A00019006346A4461C00230002001E68166123
:1043B0005E685661CA26B600B046434442449942FC
:1043C000F4D10135BD4248D24A4608CA0830914668
:1043D0009C45E9D86446069A02951D009389926827
:1043E000013B9A46131B180051460893FBF776FFD2
:1043F00053465B08834605919946002D2DD0994A76
:10440000A846944600274E465546069B63440993AA
:10441000BD4211D943465A460598A34202D3111909
:1044200099422DD83618B54201D80134761B013790
:10443000A418BD42F1D89346049B9B89BD4200D18C
:104440008CE0029A013202929A4206D2029B824A80
:104450009B00D3589846002BDAD1069BDA8980233B
:104460009B001343049AD38104217F4A13780B43A2
:1044700013700BB03CBC90469946A246AB46F0BDCB
:104480009846089B894693469D4200D988E043465A
:10449000181B09F01DFE8246584609F019FE011C42
:1044A000504609F0EDF80090200002F0F1FE82463F
:1044B000484602F0EDFE824575D1FE207B1C009936
:1044C0008005994609F0D4FBB8460190069A434608
:1044D0009046049902338A46DB0098444B46914645
:1044E000029ADB00D2009244099A994494460796B6
:1044F0004E46A1464446A8465546BA4663440393F1
:104500002168019809F09CFA3169071C009809F0AC
:1045100097FA011C381C08F03BFF2861616801987C
:1045200009F08EFA7169071C009809F089FA011CDC
:10453000381C08F02DFFCA239B009C46039B664451
:104540006861644465449E42DAD145465746049BFF
:10455000079E4C469B89BD4200D072E7029A9A4260
:1045600000D37AE7D400049ADB009446D018069A68
:10457000644494463B49EB006144D518C9182200B5
:104580002B001E6916615E695661CA26B600B446E4
:10459000634462449942F4D10834A042EFD15CE70D
:1045A0000023009380E7404602F072FE8046200020
:1045B00002F06EFE804510D0FE217B1C890500981C
:1045C000984609F055FB011C0090FE20BB1C80059D
:1045D000994609F04DFB019078E7002F20D0FE218D
:1045E0007B1E89050098984608F0D2FE011C0090B9
:1045F000FE20800509F03CFBB946019066E78389FF
:1046000015495A1E920089588268914212D0134966
:1046100004918989002900D11FE700210291DFE67A
:1046200000239846FE239B0501930123994600230E
:1046300000934BE7069D0D4C290020001031094ADC
:104640000BF0C6FCEB89103CE3810DE70023069AD2
:10465000029393899268C3E66C1900203409002004
:10466000D80F0000C80F0000582100204409002086
:1046700070B5124C2388002B14D080231048DB0522
:104680005B6A006898420DD80E4B25889B8A981C5F
:1046900085420FD020880133984204DD2388013BF6
:1046A0009BB2238070BD480007494018110003F0F9
:1046B00017F8F3E703F0BCF8F0E7C046D026002077
:1046C00054210020200300205C2100200000000075
:1046D000F0B557464E46DE464546E0B5D24E8DB063
:1046E000D24F0390B2893B880C009A4200D871E007
:1046F000002800D074E0039B3B808022CC4B9201C9
:104700005A830F2007F06CFB3B88B2899A4200D88D
:1047100086E1012222400192022222400292C54AF1
:1047200032259346C44A9246C44A9046C44A9146AA
:1047300005E001339BB23B8000258B4231D2C14A58
:104740009B00B15C5246D05802F0C2FD019B0400B0
:10475000002B00D0B3E0029B002B46D143461B78D0
:10476000002B02D0039B002B1BD15A46928A3B8818
:10477000B189262ADDD99800C3181801C01A013959
:104780008000FBF7B5FD0123020000210F2007F098
:1047900007FA3B88B18901339BB23B8000258B42ED
:1047A000CDD3022007F01CFB5B469B8A262B00D949
:1047B0002EE180229E4B92011A833B88B089C01A59
:1047C00043425841C0B20DB03CBC90469946A24607
:1047D000AB46F0BD00233B80039B002B00D18CE750
:1047E000002C00D089E70020EDE7012002F058FFFF
:1047F0008023DB055B6A924AED18934B2C191C60F1
:104800005B469B8A02339BB213801388002B03D034
:1048100030BF1388002BFBD18C4B38889C46653009
:10482000C000604402F0BCFFF389DB0500D495E7CB
:104830003C8823006533DA003233FF33DB00F15864
:10484000824B0692D05809F013FACB2189008C468E
:104850007E4BE5005B196344049018007C4B75198E
:10486000EB1819680790006809F002FA79493234A8
:104870008C46FF34E40034590590211C04986544AB
:1048800009F0DEF82D680890291C059809F0D8F881
:10489000011C089809F0ECF9069A6C495050211C4B
:1048A000059809F0CDF8291C041C049809F0C8F8F3
:1048B000011C201C08F06CFD079B18604EE70020CF
:1048C00002F0EEFE8023DB055B6A6419E4185E4BA0
:1048D0004A461C605B469B8A02339BB21380138856
:1048E000002B04D030BF4B461B88002BFAD1574B0E
:1048F00038889C46C000604402F052FFF389DB0513
:1049000001D4032427E73C885048A31CE200DB00C5
:10491000F1581058089209F0ABF9089B4B499C4696
:104920006144B4440A0061460490099150684969A1
:104930000B9209F09DF922006732D300F2580999D1
:104940000590101CCF228C46920062441268CC3431
:10495000011CE4000A900498079209F071F831599B
:1049600008F016FD0799041C059809F069F8011C68
:10497000201C09F07DF9384A099C94460799644443
:104980000690049809F05CF8216808F001FD0A9986
:10499000041C059809F054F8011C201C08F0F8FCD0
:1049A0000790069C211C201C09F04AF8079B041C58
:1049B000191C181C09F044F8011C201C08F0E8FC24
:1049C00006990990049809F03BF80799041C05988A
:1049D00009F036F8011C201C08F0DAFC099908F0EF
:1049E0004FFE089B194C06991851059809F028F8B4
:1049F0000799041C049809F023F8011C201C09F0F5
:104A000037F9099908F03CFE0B9B03245860A2E695
:104A100096220123520000210F2007F0C1F8C8E6BA
:104A2000044B9B46BDE6C0463409002050210020BF
:104A300000080048200300206C190020C72D00202A
:104A4000D02600203310000054210020001B00203D
:104A5000B40C00008C090000640600000000000097
:104A6000F8B5051C0E1C101C0021141CFBF784FD5E
:104A7000002802D0FE208005F8BD291C281C08F063
:104A800087FCFE21051C8905301C09F0F1F8011C8A
:104A9000281C08F0F5FDFE21890509F0E9F8011C44
:104AA00008F0CEFF011CFE20800509F0E1F80BF0B4
:104AB000A7F907F0FDFD06000F00201C0BF0A0F980
:104AC00032003B000AF0BCFA0BF0F2F9FFF7C8FA2B
:104AD000051C201CFFF7C4FA011C281C08F0D0FD9F
:104AE000CAE7C0460000000000000000000000000F
:104AF0000FB400B583B004AA044B02CA186801922F
:104B0000FEF74EFF03B008BC04B01847282300206E
:104B100010B502490248FFF7EBFF10BDAC050108D4
:104B2000E00A010800000000000000000000000092
:104B300070B5074C2168002909D0064D04342800BF
:104B40000434FFF7D5FF231F19680029F7D170BD82
:104B500090030020E00A01080000000000000000AF
:104B600070B50948FFF7C4FF084C0949094D0A34DC
:104B70002800FFF7BDFF6188238809041943F6D197
:104B80000548FFF7B5FF70BD5C070108E80A01089A
:104B900054070108680701089C070108000000008D
:104BA000F8B50C4EB389002B13D00B4C21680029AB
:104BB0000FD004340025094F04E00434231F196882
:104BC000002906D03800FFF793FFB3890135AB42C7
:104BD000F3DCF8BD340900206C1900204C070108F3
:104BE00010B5012805D108680C49FBF749FD0028DC
:104BF0000ED00B48FFF77CFF80230A4A1B01D169C6
:104C00000B43D3616022084B5A609F321A60FEE763
:104C10000648FFF76DFF06F0A3FC10BD1008010861
:104C20003408010800100240002C0040140801085C
:104C300010B507F0C5FC01000148FFF759FF10BD92
:104C4000D80A010800000000000000000000000079
:104C500070B500240B4D0C4E82B0A022210002231F
:104C600052000020009507F003F8A0223068D2001F
:104C7000036829001B6802349847F02CEDD102B07C
:104C800070BDC046D02D0020282300200000000069
:104C900010B506F0A5FB10BD0000000000000000EC
:104CA00070B50D48FFF724FF06F03AFB0B48FFF7FD
:104CB0001FFF0B48FFF71CFF0A4C0B4D2600083660
:104CC0000A23E15E28000234FFF712FFB442F7D155
:104CD0000648FFF70DFF70BD90090108BC090108E7
:104CE000C409010820030020D80901089C07010815
:104CF00010B501280FD108680949FBF7C1FC00284D
:104D000005D107F0ADFB0748FFF7F2FE10BD0648DE
:104D1000FFF7EEFEFAE70548FFF7EAFEF6E7C046C2
:104D2000600601087C0601086806010838060108CB
:104D300010B507F0EDFA0248FFF7DAFE10BDC046E5
:104D400054080108000000000000000000000000FE
:104D500010B5094CA289002A0CD0CA239B005843E5
:104D60001030001900230024013301604460083032
:104D70009342F9DB10BDC04634090020000000005A
:104D800010B500280CD000DC10BD254C08682100AF
:104D9000FFF7A6F9072804D8224B80001B589F462E
:104DA0001F4C21002048FFF7A3FEEDE718201F4904
:104DB0001F4A8B5C83438B54E6E718201B491C4A2F
:104DC0008B5C8343102003438B54DDE70120FFF706
:104DD0009FFAD9E70020FFF79BFAD5E70620134991
:104DE000134A8B5C8343022003438B54CCE7062099
:104DF0000E490F4A8B5C8343042003438B54C3E763
:104E000006200A490A4A8B5C83438B54BCE718206E
:104E10000649074A8B5C8343082003438B54B3E75E
:104E2000640A010840050108440A01083409002009
:104E30003110000000000000000000000000000031
:104E4000F0B5DE4657464E464546E0B5440085B0CF
:104E500064080190201C02928A4608F089F909F042
:104E600037F9011C201C08F003FF8821C90508F050
:104E7000E7FD061C08F07CF984B2200009F0D8F8A0
:104E80002500011C301C08F0F3FE8035ADB2E305AF
:104E9000EA05061CDB0DD20DE90500D5B3E061493A
:104EA0009000013292000D588F58E20500D59CE029
:104EB0009A0001339B00CB588C589846291C381C0B
:104EC00008F0D6FE41468146201C08F061FA56499A
:104ED00008F0B6FD49468346484608F059FA011CD9
:104EE000584608F055FA311C08F0AAFD211C039021
:104EF000201C08F04DFA414608F04AFA4A4908F0E9
:104F00009FFD4A498346484608F09AFD011C5846D1
:104F100008F03EFA039908F0ABFE311C08F090FD52
:104F200041498146201C08F08BFD011C484608F0D1
:104F30009FFE311C08F084FD291C08F029FA029B11
:104F4000211C1860404608F093FE391C8046281C3E
:104F500008F01EFA344908F073FD41468146404688
:104F600008F016FA011C484608F082FE311C08F0D1
:104F700067FD2E498146404608F062FD291C8046A7
:104F8000281C08F005FA391C08F002FA264908F036
:104F900057FD011C404608F06BFE494608F0F8F941
:104FA000311C08F04DFD2049071C281C08F048FD65
:104FB000391C08F0EDF9311C08F042FD211C08F005
:104FC000E7F90021041C0198FBF7DCFA002803D064
:104FD00080231B069C46644453461C6005B03CBCC1
:104FE00090469946A246AB46F0BD5A1EFF3A920043
:104FF0008C58802212069446FF3B9B00CB58644499
:105000009C44E0465AE7501E0649FF3880000D5880
:10501000802000068446FF3A92008F58654467441A
:1050200043E7C046FC0C0108DB0F493C0000404050
:10503000F0B5DE4657464E464546E0B5DA4B95B0EC
:105040009B4614E030BF002305935B461B68002B92
:1050500022D05B46D54A1B68111DD54A10880138FD
:10506000984700235A4664201360FBF7D1FDD14BCB
:105070001B789B07E6D0FFF763F801000120FFF7DC
:1050800027FB0222CB4B05901B789343C94A137030
:105090005B461B68002BDCD1012406F091FAC54B5E
:1050A0001B781C421CD0059B002B19D0C24FC34B50
:1050B0000021DE59301CFBF75FFA002800D18FE198
:1050C000BE4ABF4BD35C01221A400C920CD1BD48A2
:1050D00004F096FB1122BC4B1B781343BA4A1370A1
:1050E000059804F075FEC2E70627B44A1F4091896F
:1050F000022F00D152E2042F00D14FE200220C9285
:10510000109218220F911A4000D14FE2102A00D0BD
:1051100047E1AE4A0D921E2213404A011343AC4AA6
:105120009BB212889A4234D0A94A1380042F00D12E
:105130003FE20022A74B1A60002900D15CE20F98E1
:1051400008F0C6FF002480460025B946109E0D9F3A
:10515000300008F06DFF3A1C4146FFF781FC011C4E
:10516000201C08F015F99B4B01351860934B041C6B
:105170009B8901369D42EBDB4F468620211CC005F2
:1051800008F07EFA002F02D1011C08F001F9914BC2
:105190001860FEF7D5FF00230B9301230A900A9AAB
:1051A0001A4003920DD10A9B5B089BB20A930B9B9A
:1051B00065330B93CA2B8AD001230A9A1A400392B3
:1051C000F1D0804A0B9B9446CA22DB00634419004D
:1051D0009200814811930AF0FBFE784B9B89002BCB
:1051E00000D106E20F9808F073FF7A4B80461B68E7
:1051F000002599460D9B109E9A46774C300008F08A
:1052000017FF52464146FFF72BFC494608F018FCB1
:10521000011C071C206808F013FC391C2060606822
:1052200008F00EFC654B60609B890135013608343F
:105230009D42E3DB0E93FF2B0EDC674A80219446F0
:105240000E9B0901DB0063448C4662440021196017
:10525000596008339A42F9D10C9B002B00D0ADE184
:105260008027002101265C4C7F000A0008200023D3
:1052700035005B0015409BB2520801382B4392B2B7
:105280000028F5D18B420BD95348DB008446634498
:105290006268586860605A602268186820601A6006
:1052A000013189B20834B942DFD108230893783339
:1052B0000693039B5B0009939BB207930023029321
:1052C000029A039913008C46634404939A4200DBCC
:1052D0000DE1029B00259A460023984656E02B00DC
:1052E0003E4A403BDB00D65880231B069C46664462
:1052F000394BE4009C46644467682368311C381CC1
:10530000019308F09DFB41468146019808F098FB07
:10531000011C484608F03CF88022120681464146AE
:10532000B81808F08DFB0199071C301C08F088FBA9
:10533000011C381C08F02CF85346DE00264B071CD5
:105340009C4666447068494608F092FC606030688C
:10535000391C08F08DFC20604946706808F018F888
:10536000391C7060306808F013F8534601339BB263
:105370009A46069B30609C46049B6544ADB29A45B4
:1053800000DBB4E0154AEB00D3589846039B534426
:105390009CB2402DA3D84023104A5B1BDB00D6589B
:1053A000A6E700220D92B6E6F0220020DC220020C3
:1053B00024230020BC030020D80F00003409002063
:1053C00031100000001B0020582100200000504137
:1053D0002C230020C0030020D02D0020FC0C01084D
:1053E000FEF7AEFE854B9B89002B00D168E60223B9
:1053F000CA2203400393824D824B92009946944601
:105400002B000440634402941C0000230697CA4604
:105410001F0002E0794B069A9E585346186808F020
:1054200057FE311C08F00CFB0AF0EAFC764B774A79
:1054300009F006FE0AF03CFD13AA12A9FFF700FDD1
:10544000029B002B22D06B682E689846139B301C61
:105450009946129B4946019308F0F2FA019904908B
:10546000404608F0EDFA011C049808F001FC49469A
:105470002860404608F0E4FA01998046301C08F0A4
:10548000DFFA011C404607F083FF6860039B002B96
:1054900022D0636826689846139B301C9946129B5D
:1054A0004946019308F0CCFA01990490404608F06F
:1054B000C7FA011C049808F0DBFB4946206040460F
:1054C00008F0BEFA01998046301C08F0B9FA011CB8
:1054D000404607F05DFF606004239C46474B013760
:1054E0009B89E244083508349F4293DBE8E5079A3C
:1054F000029B944663449BB20293FF2B00D8DFE6E5
:10550000069B5B0806936B469B8C0393089B013BB1
:105510000893002B00D0CCE6CA223D499200119896
:105520000AF056FD0E9B002B1BD00B9A0E9B944647
:105530006344DD00324B119C9C460C9E6544EE2179
:105540002068890508F07CFA20600020002E04D134
:10555000EE216068890508F073FA60600834A5429E
:10556000EDD12C4B254AD25C06231340042B00D0EE
:1055700019E60E9B012B00DC15E60B9A119D944653
:105580006344DC001E4B083BE418A868296807F058
:10559000FFFE08352860AC42F7D104E64A0092B21B
:1055A0000F92182210911A4000D0AFE51A4A0D92BE
:1055B000B1E5FE23194A9B051360EAE50E9901291E
:1055C00000DC4DE6FE20164BC000844618001A0091
:1055D000C90008386244081880242406A4461968C3
:1055E000083A9160596808336144D1609842F3D118
:1055F00036E600230E9320E60024BEE534090020A1
:10560000001B00206C1900209997713D11EA2D8133
:10561000D02D0020311000000000C040C003002049
:10562000D82D002000000000000000000000000055
:105630000121024A13784B4013707047BC030020CD
:1056400010B50278411C00242D2A04D1831C427815
:105650000800190001342B2A01D142780131303A77
:105660000020092A08D883001B185B0098180A78C4
:105670000131303A092AF6D9002C00D0404210BD41
:1056800010B5012805D0064B0648598AFFF730FAB5
:1056900010BD0868FFF7D4FF014B5882F8E7C046F9
:1056A000200300208809010800000000000000001D
:1056B00010B5012803D00848FFF71AFA10BD086892
:1056C000FFF7BEFF0428F6D806F06AFE0421034A5D
:1056D00013780B431370F1E74808010858210020A4
:1056E000F0B5CE46474680B583B0012823D0204B85
:1056F000204C984643469B89002B17D01E4B002513
:10570000994620680AF07CFB060060680F000AF0EA
:1057100077FB3B000090019132004846FFF7E8F923
:1057200043469B8901350834AB42EADC03B00CBC2C
:1057300090469946F0BD0868FFF782FF06280AD810
:1057400001280CDDCA24831EA4005C43084B1034DE
:1057500098464444CEE70948FFF7CAF9E6E7CA2469
:10576000A4004443034BE418014B9846C2E7C046EB
:1057700034090020001B0020240701080C07010841
:1057800010B5037802002B2B01D1437801320A2196
:10579000302B0ED00020202402E04843C01813789C
:1057A000303B0132102B01D9A343073B8B42F4D38A
:1057B00010BD50786F2809D0782805D06228E9D12B
:1057C000083993780232E5E71021FAE70821F8E773
:1057D000F8B5CE4647460D0080B5022826D02548AC
:1057E000FFF786F9244BF8269946E0235B01002455
:1057F0009846F827214D3604163541462B884846F1
:10580000DA080A40590939400A43190431405B0754
:105810000A431B0C21001A430134FFF769F90235D2
:10582000182CEAD10CBC90469946F8BD0868FFF7E1
:1058300007FF04001728F5DC6868FFF7A1FFE022E6
:10584000F8210E4B083464001C191202C3001340E7
:10585000490142010A401343F822010C0A40262163
:1058600000041343400F064A0343E38013780B43BD
:105870001370D7E7E0060108FC06010820030020AA
:10588000582100200000000000000000000000007F
:1058900010B5012805D0064B06485968FFF728F9CE
:1058A00010BD0868FFF76CFF014B5860F8E7C04671
:1058B0002003002050090108000000000000000043
:1058C00010B50400012803D00848FFF711F910BDF6
:1058D0000868FFF755FF064A1378A3431370054A7B
:1058E000054BD15C01F0F4FCF1E7C0462C07010840
:1058F000BC03002034090020331000000000000029
:10590000F0B5454657464E46DE460300E0B5A24D8B
:1059100087B0AE8905AC023B80460F002680022B83
:1059200000D9A5E00868FFF72BFF81467868FFF7EC
:1059300027FF4B468246002B00D18FE0002800D184
:105940008CE0814500D989E04346022B00D093E0EA
:1059500002AA94460E2363449B4600235A461380B2
:1059600008228E4903270B78029193430B70EB8931
:1059700098468B4B1B6803934B4505D1731E884A91
:105980009B00D358534508D0320051464846FEF795
:10599000EFFBEB89DB0500D5A8E0002F00D0A0E0ED
:1059A000434601220299EB810B7893430B705B46CF
:1059B0001B88002B55D01A0600D59AE02288002AB1
:1059C0004FD0784A00259046774A9146774A9246CA
:1059D0000FE09A0719D45B072ED44846FFF788F8E2
:1059E00008239C4623880135E044AB4239DD5B4601
:1059F0001B88DA07EDD56A4AAB00D1586C48FFF72F
:105A000077F85B461B889A07E5D54246694BD05824
:105A10000AF0F6F94246684B0600D0580F000AF02B
:105A2000EFF93B000090019132005046FFF760F81B
:105A30005B461B885B07D0D5434618680AF0E0F93F
:105A40004346060058680F000AF0DAF93200009069
:105A500001913B005548FFF74BF8BEE75748FFF769
:105A600047F807B03CBC90469946A246AB46F0BD0D
:105A70005348FFF73DF8F4E7B868FFF781FE86B2B8
:105A8000731E2680642B00D981E002AA94460E235F
:105A900063449B4600235A461380404BAE810293D9
:105AA0001B7803934346042B67D1F868FFF768FE21
:105AB000039B80B21B0701D5802318435B46082255
:105AC0001880039B029993430B70EB894707BF0F24
:105AD0009846024200D14CE742463A4B1340EB81D4
